{
  "_format": "hh-sol-artifact-1",
  "contractName": "AsterSoulRenderUtils",
  "sourceName": "contracts/AsterSoulRenderUtils.sol",
  "abi": [
    {
      "inputs": [],
      "stateMutability": "nonpayable",
      "type": "constructor"
    },
    {
      "inputs": [],
      "name": "RMRKChildNotFoundInParent",
      "type": "error"
    },
    {
      "inputs": [],
      "name": "RMRKMismachedArrayLength",
      "type": "error"
    },
    {
      "inputs": [],
      "name": "RMRKNotComposableAsset",
      "type": "error"
    },
    {
      "inputs": [],
      "name": "RMRKParentIsNotNFT",
      "type": "error"
    },
    {
      "inputs": [],
      "name": "RMRKTokenHasNoAssets",
      "type": "error"
    },
    {
      "inputs": [],
      "name": "RMRKUnexpectedParent",
      "type": "error"
    },
    {
      "inputs": [
        {
          "internalType": "address",
          "name": "childAddress",
          "type": "address"
        },
        {
          "internalType": "uint256",
          "name": "childId",
          "type": "uint256"
        },
        {
          "internalType": "address",
          "name": "expectedParent",
          "type": "address"
        },
        {
          "internalType": "uint256",
          "name": "expectedParentId",
          "type": "uint256"
        }
      ],
      "name": "checkExpectedParent",
      "outputs": [],
      "stateMutability": "view",
      "type": "function"
    },
    {
      "inputs": [
        {
          "internalType": "address",
          "name": "target",
          "type": "address"
        },
        {
          "internalType": "uint256",
          "name": "tokenId",
          "type": "uint256"
        },
        {
          "internalType": "uint64",
          "name": "assetId",
          "type": "uint64"
        }
      ],
      "name": "composeEquippables",
      "outputs": [
        {
          "internalType": "string",
          "name": "metadataURI",
          "type": "string"
        },
        {
          "internalType": "uint64",
          "name": "equippableGroupId",
          "type": "uint64"
        },
        {
          "internalType": "address",
          "name": "catalogAddress",
          "type": "address"
        },
        {
          "components": [
            {
              "internalType": "uint64",
              "name": "partId",
              "type": "uint64"
            },
            {
              "internalType": "uint8",
              "name": "z",
              "type": "uint8"
            },
            {
              "internalType": "string",
              "name": "metadataURI",
              "type": "string"
            }
          ],
          "internalType": "struct RMRKEquipRenderUtils.FixedPart[]",
          "name": "fixedParts",
          "type": "tuple[]"
        },
        {
          "components": [
            {
              "internalType": "uint64",
              "name": "partId",
              "type": "uint64"
            },
            {
              "internalType": "uint64",
              "name": "childAssetId",
              "type": "uint64"
            },
            {
              "internalType": "uint8",
              "name": "z",
              "type": "uint8"
            },
            {
              "internalType": "address",
              "name": "childAddress",
              "type": "address"
            },
            {
              "internalType": "uint256",
              "name": "childId",
              "type": "uint256"
            },
            {
              "internalType": "string",
              "name": "childAssetMetadata",
              "type": "string"
            },
            {
              "internalType": "string",
              "name": "partMetadata",
              "type": "string"
            }
          ],
          "internalType": "struct RMRKEquipRenderUtils.EquippedSlotPart[]",
          "name": "slotParts",
          "type": "tuple[]"
        }
      ],
      "stateMutability": "view",
      "type": "function"
    },
    {
      "inputs": [
        {
          "internalType": "address",
          "name": "collection",
          "type": "address"
        },
        {
          "internalType": "uint256",
          "name": "tokenId",
          "type": "uint256"
        }
      ],
      "name": "directOwnerOfWithParentsPerspective",
      "outputs": [
        {
          "internalType": "address",
          "name": "directOwner",
          "type": "address"
        },
        {
          "internalType": "uint256",
          "name": "ownerId",
          "type": "uint256"
        },
        {
          "internalType": "bool",
          "name": "isNFT",
          "type": "bool"
        },
        {
          "internalType": "bool",
          "name": "inParentsActiveChildren",
          "type": "bool"
        },
        {
          "internalType": "bool",
          "name": "inParentsPendingChildren",
          "type": "bool"
        }
      ],
      "stateMutability": "view",
      "type": "function"
    },
    {
      "inputs": [
        {
          "internalType": "address",
          "name": "parentAddress",
          "type": "address"
        },
        {
          "internalType": "uint256",
          "name": "parentId",
          "type": "uint256"
        },
        {
          "internalType": "uint64",
          "name": "parentAssetId",
          "type": "uint64"
        }
      ],
      "name": "equippedChildrenOf",
      "outputs": [
        {
          "components": [
            {
              "internalType": "uint64",
              "name": "assetId",
              "type": "uint64"
            },
            {
              "internalType": "uint64",
              "name": "childAssetId",
              "type": "uint64"
            },
            {
              "internalType": "uint256",
              "name": "childId",
              "type": "uint256"
            },
            {
              "internalType": "address",
              "name": "childEquippableAddress",
              "type": "address"
            }
          ],
          "internalType": "struct IERC6220.Equipment[]",
          "name": "equippedChildren",
          "type": "tuple[]"
        }
      ],
      "stateMutability": "view",
      "type": "function"
    },
    {
      "inputs": [
        {
          "internalType": "address",
          "name": "targetChild",
          "type": "address"
        },
        {
          "internalType": "uint256",
          "name": "childId",
          "type": "uint256"
        },
        {
          "internalType": "bool",
          "name": "onlyEquipped",
          "type": "bool"
        }
      ],
      "name": "getAllEquippableSlotsFromParent",
      "outputs": [
        {
          "internalType": "uint256",
          "name": "childIndex",
          "type": "uint256"
        },
        {
          "components": [
            {
              "internalType": "uint64",
              "name": "slotPartId",
              "type": "uint64"
            },
            {
              "internalType": "uint64",
              "name": "childAssetId",
              "type": "uint64"
            },
            {
              "internalType": "uint64",
              "name": "parentAssetId",
              "type": "uint64"
            },
            {
              "internalType": "uint64",
              "name": "priority",
              "type": "uint64"
            },
            {
              "internalType": "address",
              "name": "parentCatalogAddress",
              "type": "address"
            },
            {
              "internalType": "bool",
              "name": "isEquipped",
              "type": "bool"
            },
            {
              "internalType": "string",
              "name": "partMetadata",
              "type": "string"
            },
            {
              "internalType": "string",
              "name": "childAssetMetadata",
              "type": "string"
            },
            {
              "internalType": "string",
              "name": "parentAssetMetadata",
              "type": "string"
            }
          ],
          "internalType": "struct RMRKEquipRenderUtils.EquippableData[]",
          "name": "equippableData",
          "type": "tuple[]"
        }
      ],
      "stateMutability": "view",
      "type": "function"
    },
    {
      "inputs": [
        {
          "internalType": "address",
          "name": "target",
          "type": "address"
        },
        {
          "internalType": "uint256",
          "name": "tokenId",
          "type": "uint256"
        }
      ],
      "name": "getAssetIdWithTopPriority",
      "outputs": [
        {
          "internalType": "uint64",
          "name": "",
          "type": "uint64"
        },
        {
          "internalType": "uint64",
          "name": "",
          "type": "uint64"
        }
      ],
      "stateMutability": "view",
      "type": "function"
    },
    {
      "inputs": [
        {
          "internalType": "address",
          "name": "target",
          "type": "address"
        },
        {
          "internalType": "uint256",
          "name": "tokenId",
          "type": "uint256"
        },
        {
          "internalType": "uint64[]",
          "name": "assetIds",
          "type": "uint64[]"
        }
      ],
      "name": "getAssetsById",
      "outputs": [
        {
          "internalType": "string[]",
          "name": "",
          "type": "string[]"
        }
      ],
      "stateMutability": "view",
      "type": "function"
    },
    {
      "inputs": [
        {
          "internalType": "address",
          "name": "parentAddress",
          "type": "address"
        },
        {
          "internalType": "uint256",
          "name": "parentId",
          "type": "uint256"
        },
        {
          "internalType": "address",
          "name": "childAddress",
          "type": "address"
        },
        {
          "internalType": "uint256",
          "name": "childId",
          "type": "uint256"
        }
      ],
      "name": "getChildIndex",
      "outputs": [
        {
          "internalType": "uint256",
          "name": "",
          "type": "uint256"
        }
      ],
      "stateMutability": "view",
      "type": "function"
    },
    {
      "inputs": [
        {
          "internalType": "address",
          "name": "parentAddress",
          "type": "address"
        },
        {
          "internalType": "uint256",
          "name": "parentId",
          "type": "uint256"
        }
      ],
      "name": "getChildrenWithTopMetadata",
      "outputs": [
        {
          "components": [
            {
              "internalType": "address",
              "name": "contractAddress",
              "type": "address"
            },
            {
              "internalType": "uint256",
              "name": "tokenId",
              "type": "uint256"
            },
            {
              "internalType": "string",
              "name": "metadata",
              "type": "string"
            }
          ],
          "internalType": "struct RMRKEquipRenderUtils.ChildWithTopAssetMetadata[]",
          "name": "",
          "type": "tuple[]"
        }
      ],
      "stateMutability": "view",
      "type": "function"
    },
    {
      "inputs": [
        {
          "internalType": "address",
          "name": "targetChild",
          "type": "address"
        },
        {
          "internalType": "uint256",
          "name": "childId",
          "type": "uint256"
        },
        {
          "internalType": "uint64",
          "name": "parentAssetId",
          "type": "uint64"
        }
      ],
      "name": "getEquippableSlotsFromParent",
      "outputs": [
        {
          "internalType": "uint256",
          "name": "childIndex",
          "type": "uint256"
        },
        {
          "components": [
            {
              "internalType": "uint64",
              "name": "slotPartId",
              "type": "uint64"
            },
            {
              "internalType": "uint64",
              "name": "childAssetId",
              "type": "uint64"
            },
            {
              "internalType": "uint64",
              "name": "parentAssetId",
              "type": "uint64"
            },
            {
              "internalType": "uint64",
              "name": "priority",
              "type": "uint64"
            },
            {
              "internalType": "address",
              "name": "parentCatalogAddress",
              "type": "address"
            },
            {
              "internalType": "bool",
              "name": "isEquipped",
              "type": "bool"
            },
            {
              "internalType": "string",
              "name": "partMetadata",
              "type": "string"
            },
            {
              "internalType": "string",
              "name": "childAssetMetadata",
              "type": "string"
            },
            {
              "internalType": "string",
              "name": "parentAssetMetadata",
              "type": "string"
            }
          ],
          "internalType": "struct RMRKEquipRenderUtils.EquippableData[]",
          "name": "equippableData",
          "type": "tuple[]"
        }
      ],
      "stateMutability": "view",
      "type": "function"
    },
    {
      "inputs": [
        {
          "internalType": "address",
          "name": "targetChild",
          "type": "address"
        },
        {
          "internalType": "uint256",
          "name": "childId",
          "type": "uint256"
        },
        {
          "internalType": "uint64",
          "name": "parentAssetId",
          "type": "uint64"
        }
      ],
      "name": "getEquippableSlotsFromParentForPendingChild",
      "outputs": [
        {
          "internalType": "uint256",
          "name": "childIndex",
          "type": "uint256"
        },
        {
          "components": [
            {
              "internalType": "uint64",
              "name": "slotPartId",
              "type": "uint64"
            },
            {
              "internalType": "uint64",
              "name": "childAssetId",
              "type": "uint64"
            },
            {
              "internalType": "uint64",
              "name": "parentAssetId",
              "type": "uint64"
            },
            {
              "internalType": "uint64",
              "name": "priority",
              "type": "uint64"
            },
            {
              "internalType": "address",
              "name": "parentCatalogAddress",
              "type": "address"
            },
            {
              "internalType": "bool",
              "name": "isEquipped",
              "type": "bool"
            },
            {
              "internalType": "string",
              "name": "partMetadata",
              "type": "string"
            },
            {
              "internalType": "string",
              "name": "childAssetMetadata",
              "type": "string"
            },
            {
              "internalType": "string",
              "name": "parentAssetMetadata",
              "type": "string"
            }
          ],
          "internalType": "struct RMRKEquipRenderUtils.EquippableData[]",
          "name": "equippableData",
          "type": "tuple[]"
        }
      ],
      "stateMutability": "view",
      "type": "function"
    },
    {
      "inputs": [
        {
          "internalType": "address",
          "name": "target",
          "type": "address"
        },
        {
          "internalType": "uint64",
          "name": "tokenId",
          "type": "uint64"
        },
        {
          "internalType": "uint64",
          "name": "assetId",
          "type": "uint64"
        }
      ],
      "name": "getEquipped",
      "outputs": [
        {
          "internalType": "uint64[]",
          "name": "slotPartIds",
          "type": "uint64[]"
        },
        {
          "components": [
            {
              "internalType": "uint64",
              "name": "assetId",
              "type": "uint64"
            },
            {
              "internalType": "uint64",
              "name": "childAssetId",
              "type": "uint64"
            },
            {
              "internalType": "uint256",
              "name": "childId",
              "type": "uint256"
            },
            {
              "internalType": "address",
              "name": "childEquippableAddress",
              "type": "address"
            }
          ],
          "internalType": "struct IERC6220.Equipment[]",
          "name": "childrenEquipped",
          "type": "tuple[]"
        },
        {
          "internalType": "string[]",
          "name": "childrenAssetMetadata",
          "type": "string[]"
        }
      ],
      "stateMutability": "view",
      "type": "function"
    },
    {
      "inputs": [
        {
          "internalType": "address",
          "name": "target",
          "type": "address"
        },
        {
          "internalType": "uint256",
          "name": "tokenId",
          "type": "uint256"
        }
      ],
      "name": "getExtendedActiveAssets",
      "outputs": [
        {
          "components": [
            {
              "internalType": "uint64",
              "name": "id",
              "type": "uint64"
            },
            {
              "internalType": "uint64",
              "name": "priority",
              "type": "uint64"
            },
            {
              "internalType": "string",
              "name": "metadata",
              "type": "string"
            }
          ],
          "internalType": "struct RMRKMultiAssetRenderUtils.ExtendedActiveAsset[]",
          "name": "",
          "type": "tuple[]"
        }
      ],
      "stateMutability": "view",
      "type": "function"
    },
    {
      "inputs": [
        {
          "internalType": "address",
          "name": "target",
          "type": "address"
        },
        {
          "internalType": "uint256",
          "name": "tokenId",
          "type": "uint256"
        }
      ],
      "name": "getExtendedEquippableActiveAssets",
      "outputs": [
        {
          "components": [
            {
              "internalType": "uint64",
              "name": "id",
              "type": "uint64"
            },
            {
              "internalType": "uint64",
              "name": "equippableGroupId",
              "type": "uint64"
            },
            {
              "internalType": "uint64",
              "name": "priority",
              "type": "uint64"
            },
            {
              "internalType": "address",
              "name": "catalogAddress",
              "type": "address"
            },
            {
              "internalType": "string",
              "name": "metadata",
              "type": "string"
            },
            {
              "internalType": "uint64[]",
              "name": "partIds",
              "type": "uint64[]"
            }
          ],
          "internalType": "struct RMRKEquipRenderUtils.ExtendedEquippableActiveAsset[]",
          "name": "",
          "type": "tuple[]"
        }
      ],
      "stateMutability": "view",
      "type": "function"
    },
    {
      "inputs": [
        {
          "internalType": "uint256",
          "name": "tokenId",
          "type": "uint256"
        },
        {
          "internalType": "address",
          "name": "targetCollection",
          "type": "address"
        }
      ],
      "name": "getExtendedNft",
      "outputs": [
        {
          "components": [
            {
              "internalType": "string",
              "name": "tokenMetadataUri",
              "type": "string"
            },
            {
              "internalType": "address",
              "name": "directOwner",
              "type": "address"
            },
            {
              "internalType": "address",
              "name": "rootOwner",
              "type": "address"
            },
            {
              "internalType": "uint256",
              "name": "activeAssetCount",
              "type": "uint256"
            },
            {
              "internalType": "uint256",
              "name": "pendingAssetCount",
              "type": "uint256"
            },
            {
              "internalType": "uint64[]",
              "name": "priorities",
              "type": "uint64[]"
            },
            {
              "internalType": "uint256",
              "name": "maxSupply",
              "type": "uint256"
            },
            {
              "internalType": "uint256",
              "name": "totalSupply",
              "type": "uint256"
            },
            {
              "internalType": "address",
              "name": "issuer",
              "type": "address"
            },
            {
              "internalType": "string",
              "name": "name",
              "type": "string"
            },
            {
              "internalType": "string",
              "name": "symbol",
              "type": "string"
            },
            {
              "internalType": "uint256",
              "name": "activeChildrenNumber",
              "type": "uint256"
            },
            {
              "internalType": "uint256",
              "name": "pendingChildrenNumber",
              "type": "uint256"
            },
            {
              "internalType": "bool",
              "name": "isSoulbound",
              "type": "bool"
            },
            {
              "internalType": "bool",
              "name": "hasMultiAssetInterface",
              "type": "bool"
            },
            {
              "internalType": "bool",
              "name": "hasNestingInterface",
              "type": "bool"
            },
            {
              "internalType": "bool",
              "name": "hasEquippableInterface",
              "type": "bool"
            }
          ],
          "internalType": "struct RMRKRenderUtils.ExtendedNft",
          "name": "data",
          "type": "tuple"
        }
      ],
      "stateMutability": "view",
      "type": "function"
    },
    {
      "inputs": [
        {
          "internalType": "address",
          "name": "target",
          "type": "address"
        },
        {
          "internalType": "uint256",
          "name": "tokenId",
          "type": "uint256"
        }
      ],
      "name": "getExtendedPendingAssets",
      "outputs": [
        {
          "components": [
            {
              "internalType": "uint64",
              "name": "id",
              "type": "uint64"
            },
            {
              "internalType": "uint64",
              "name": "equippableGroupId",
              "type": "uint64"
            },
            {
              "internalType": "uint128",
              "name": "acceptRejectIndex",
              "type": "uint128"
            },
            {
              "internalType": "uint64",
              "name": "replacesAssetWithId",
              "type": "uint64"
            },
            {
              "internalType": "address",
              "name": "catalogAddress",
              "type": "address"
            },
            {
              "internalType": "string",
              "name": "metadata",
              "type": "string"
            },
            {
              "internalType": "uint64[]",
              "name": "partIds",
              "type": "uint64[]"
            }
          ],
          "internalType": "struct RMRKEquipRenderUtils.ExtendedPendingAsset[]",
          "name": "",
          "type": "tuple[]"
        }
      ],
      "stateMutability": "view",
      "type": "function"
    },
    {
      "inputs": [
        {
          "internalType": "address",
          "name": "target",
          "type": "address"
        },
        {
          "internalType": "uint256",
          "name": "pageStart",
          "type": "uint256"
        },
        {
          "internalType": "uint256",
          "name": "pageSize",
          "type": "uint256"
        }
      ],
      "name": "getPaginatedMintedIds",
      "outputs": [
        {
          "internalType": "uint256[]",
          "name": "page",
          "type": "uint256[]"
        }
      ],
      "stateMutability": "view",
      "type": "function"
    },
    {
      "inputs": [
        {
          "internalType": "address",
          "name": "childAddress",
          "type": "address"
        },
        {
          "internalType": "uint256",
          "name": "childId",
          "type": "uint256"
        }
      ],
      "name": "getParent",
      "outputs": [
        {
          "internalType": "address",
          "name": "parentAddress",
          "type": "address"
        },
        {
          "internalType": "uint256",
          "name": "parentId",
          "type": "uint256"
        }
      ],
      "stateMutability": "view",
      "type": "function"
    },
    {
      "inputs": [
        {
          "internalType": "address",
          "name": "target",
          "type": "address"
        },
        {
          "internalType": "uint256",
          "name": "tokenId",
          "type": "uint256"
        }
      ],
      "name": "getPendingAssets",
      "outputs": [
        {
          "components": [
            {
              "internalType": "uint64",
              "name": "id",
              "type": "uint64"
            },
            {
              "internalType": "uint128",
              "name": "acceptRejectIndex",
              "type": "uint128"
            },
            {
              "internalType": "uint64",
              "name": "replacesAssetWithId",
              "type": "uint64"
            },
            {
              "internalType": "string",
              "name": "metadata",
              "type": "string"
            }
          ],
          "internalType": "struct RMRKMultiAssetRenderUtils.PendingAsset[]",
          "name": "",
          "type": "tuple[]"
        }
      ],
      "stateMutability": "view",
      "type": "function"
    },
    {
      "inputs": [
        {
          "internalType": "address",
          "name": "parentAddress",
          "type": "address"
        },
        {
          "internalType": "uint256",
          "name": "parentId",
          "type": "uint256"
        },
        {
          "internalType": "address",
          "name": "childAddress",
          "type": "address"
        },
        {
          "internalType": "uint256",
          "name": "childId",
          "type": "uint256"
        }
      ],
      "name": "getPendingChildIndex",
      "outputs": [
        {
          "internalType": "uint256",
          "name": "",
          "type": "uint256"
        }
      ],
      "stateMutability": "view",
      "type": "function"
    },
    {
      "inputs": [
        {
          "internalType": "address",
          "name": "tokenAddress",
          "type": "address"
        },
        {
          "internalType": "uint256",
          "name": "tokenId",
          "type": "uint256"
        },
        {
          "internalType": "uint64",
          "name": "assetId",
          "type": "uint64"
        }
      ],
      "name": "getSlotPartsAndCatalog",
      "outputs": [
        {
          "internalType": "uint64[]",
          "name": "parentSlotPartIds",
          "type": "uint64[]"
        },
        {
          "internalType": "address",
          "name": "catalogAddress",
          "type": "address"
        }
      ],
      "stateMutability": "view",
      "type": "function"
    },
    {
      "inputs": [
        {
          "internalType": "address",
          "name": "target",
          "type": "address"
        },
        {
          "internalType": "uint256",
          "name": "tokenId",
          "type": "uint256"
        }
      ],
      "name": "getTopAsset",
      "outputs": [
        {
          "internalType": "uint64",
          "name": "topAssetId",
          "type": "uint64"
        },
        {
          "internalType": "uint64",
          "name": "topAssetPriority",
          "type": "uint64"
        },
        {
          "internalType": "string",
          "name": "topAssetMetadata",
          "type": "string"
        }
      ],
      "stateMutability": "view",
      "type": "function"
    },
    {
      "inputs": [
        {
          "internalType": "address",
          "name": "target",
          "type": "address"
        },
        {
          "internalType": "uint256",
          "name": "tokenId",
          "type": "uint256"
        }
      ],
      "name": "getTopAssetAndEquippableDataForToken",
      "outputs": [
        {
          "components": [
            {
              "internalType": "uint64",
              "name": "id",
              "type": "uint64"
            },
            {
              "internalType": "uint64",
              "name": "equippableGroupId",
              "type": "uint64"
            },
            {
              "internalType": "uint64",
              "name": "priority",
              "type": "uint64"
            },
            {
              "internalType": "address",
              "name": "catalogAddress",
              "type": "address"
            },
            {
              "internalType": "string",
              "name": "metadata",
              "type": "string"
            },
            {
              "internalType": "uint64[]",
              "name": "partIds",
              "type": "uint64[]"
            }
          ],
          "internalType": "struct RMRKEquipRenderUtils.ExtendedEquippableActiveAsset",
          "name": "topAsset",
          "type": "tuple"
        }
      ],
      "stateMutability": "view",
      "type": "function"
    },
    {
      "inputs": [
        {
          "internalType": "address",
          "name": "target",
          "type": "address"
        },
        {
          "internalType": "uint256",
          "name": "tokenId",
          "type": "uint256"
        }
      ],
      "name": "getTopAssetMetaForToken",
      "outputs": [
        {
          "internalType": "string",
          "name": "",
          "type": "string"
        }
      ],
      "stateMutability": "view",
      "type": "function"
    },
    {
      "inputs": [
        {
          "internalType": "address",
          "name": "target",
          "type": "address"
        },
        {
          "internalType": "uint256[]",
          "name": "tokenIds",
          "type": "uint256[]"
        }
      ],
      "name": "getTopAssetMetadataForTokens",
      "outputs": [
        {
          "internalType": "string[]",
          "name": "metadata",
          "type": "string[]"
        }
      ],
      "stateMutability": "view",
      "type": "function"
    },
    {
      "inputs": [
        {
          "internalType": "address",
          "name": "parentAddress",
          "type": "address"
        },
        {
          "internalType": "uint256",
          "name": "parentId",
          "type": "uint256"
        },
        {
          "internalType": "address",
          "name": "parentAssetCatalog",
          "type": "address"
        },
        {
          "internalType": "address",
          "name": "childAddress",
          "type": "address"
        },
        {
          "internalType": "uint256",
          "name": "childId",
          "type": "uint256"
        },
        {
          "internalType": "uint64",
          "name": "childAssetId",
          "type": "uint64"
        },
        {
          "internalType": "uint64",
          "name": "slotPartId",
          "type": "uint64"
        }
      ],
      "name": "isAssetEquipped",
      "outputs": [
        {
          "internalType": "bool",
          "name": "isEquipped",
          "type": "bool"
        }
      ],
      "stateMutability": "view",
      "type": "function"
    },
    {
      "inputs": [
        {
          "internalType": "address",
          "name": "collection",
          "type": "address"
        },
        {
          "internalType": "uint256",
          "name": "tokenId",
          "type": "uint256"
        }
      ],
      "name": "isTokenRejectedOrAbandoned",
      "outputs": [
        {
          "internalType": "bool",
          "name": "isRejectedOrAbandoned",
          "type": "bool"
        }
      ],
      "stateMutability": "view",
      "type": "function"
    },
    {
      "inputs": [
        {
          "internalType": "uint64[]",
          "name": "allPartIds",
          "type": "uint64[]"
        },
        {
          "internalType": "address",
          "name": "catalogAddress",
          "type": "address"
        }
      ],
      "name": "splitSlotAndFixedParts",
      "outputs": [
        {
          "internalType": "uint64[]",
          "name": "slotPartIds",
          "type": "uint64[]"
        },
        {
          "internalType": "uint64[]",
          "name": "fixedPartIds",
          "type": "uint64[]"
        }
      ],
      "stateMutability": "view",
      "type": "function"
    },
    {
      "inputs": [
        {
          "internalType": "address",
          "name": "parentAddress",
          "type": "address"
        },
        {
          "internalType": "address",
          "name": "childAddress",
          "type": "address"
        },
        {
          "internalType": "uint256",
          "name": "parentId",
          "type": "uint256"
        },
        {
          "internalType": "uint256",
          "name": "childId",
          "type": "uint256"
        }
      ],
      "name": "validateChildOf",
      "outputs": [
        {
          "internalType": "bool",
          "name": "",
          "type": "bool"
        }
      ],
      "stateMutability": "view",
      "type": "function"
    },
    {
      "inputs": [
        {
          "internalType": "address",
          "name": "parentAddress",
          "type": "address"
        },
        {
          "internalType": "address[]",
          "name": "childAddresses",
          "type": "address[]"
        },
        {
          "internalType": "uint256",
          "name": "parentId",
          "type": "uint256"
        },
        {
          "internalType": "uint256[]",
          "name": "childIds",
          "type": "uint256[]"
        }
      ],
      "name": "validateChildrenOf",
      "outputs": [
        {
          "internalType": "bool",
          "name": "",
          "type": "bool"
        },
        {
          "internalType": "bool[]",
          "name": "",
          "type": "bool[]"
        }
      ],
      "stateMutability": "view",
      "type": "function"
    }
  ],
  "bytecode": "0x608060405234801561001057600080fd5b50615d7080620000216000396000f3fe608060405234801561001057600080fd5b50600436106101da5760003560e01c80638ce9909511610104578063b6ede921116100a2578063e5d0faa011610071578063e5d0faa014610535578063ef7f5e6f14610548578063ef9a122914610569578063ff0af3971461057e57600080fd5b8063b6ede921146104dc578063c9aa8214146104ef578063d905980f1461050f578063e59a94151461052257600080fd5b8063ac6053f1116100de578063ac6053f114610439578063ac8e4e351461044c578063b05f0d441461046e578063b57d646d146104bb57600080fd5b80638ce99095146103d0578063987d09d1146103e35780639f7b0fc81461040757600080fd5b806347f59f211161017c57806373d36d7d1161014b57806373d36d7d1461034e5780637cdc2a481461036e5780638533168f1461038e5780638b7d8fd4146103b057600080fd5b806347f59f21146102ca57806351200ce9146102ea57806356937fa71461030b5780636f4f1d8f1461032b57600080fd5b8063217ff256116101b8578063217ff256146102495780633e6f80c71461026957806341e78cb91461028a57806347af4145146102aa57600080fd5b80630a9059ec146101df57806316fbb189146102095780631ae99aeb14610229575b600080fd5b6101f26101ed366004614855565b6105b1565b604051610200929190614934565b60405180910390f35b61021c610217366004614979565b6106db565b60405161020091906149f5565b61023c610237366004614979565b6109b5565b6040516102009190614a87565b61025c610257366004614979565b610c69565b6040516102009190614b48565b61027c610277366004614c1a565b610f8d565b604051908152602001610200565b61029d610298366004614c62565b6110a2565b6040516102009190614d42565b6102bd6102b8366004614979565b6111db565b6040516102009190614dd2565b6102dd6102d8366004614dfa565b6112cc565b6040516102009190614ea1565b6102fd6102f8366004614dfa565b611466565b604051610200929190614eb4565b61031e610319366004614fbb565b6114a2565b6040516102009190614feb565b61033e610339366004614979565b611da3565b6040519015158152602001610200565b61036161035c366004614979565b611dda565b6040516102009190615152565b61038161037c366004614979565b611e68565b6040516102009190615165565b6103a161039c366004614979565b61212f565b604051610200939291906151c7565b6103c36103be366004614979565b6121c8565b60405161020091906151f3565b61033e6103de36600461526d565b61238b565b6103f66103f1366004614dfa565b612468565b6040516102009594939291906153ae565b61041a610415366004614979565b6126ec565b604080516001600160a01b039093168352602083019190915201610200565b6102fd610447366004615484565b61278d565b61045f61045a3660046154bb565b612a6a565b604051610200939291906154fb565b61048161047c366004614979565b612d87565b604080516001600160a01b03909616865260208601949094529115159284019290925290151560608301521515608082015260a001610200565b6104ce6104c9366004615534565b61300c565b6040516102009291906155df565b6102fd6104ea366004614dfa565b6132ed565b6105026104fd366004615604565b61330e565b6040516102009190615639565b61027c61051d366004614c1a565b6134d3565b61029d61053036600461567d565b6135c6565b61033e6105433660046156cc565b613674565b61055b610556366004614dfa565b613795565b604051610200929190615712565b61057c610577366004614c1a565b61385f565b005b61059161058c366004614979565b6138b2565b604080516001600160401b03938416815292909116602083015201610200565b6000606082518551146105d757604051630d2d5a0960e01b815260040160405180910390fd5b600080600087516001600160401b038111156105f5576105f5614737565b60405190808252806020026020018201604052801561061e578160200160208202803683370190505b509050600160005b89518110156106cc5761066d8b8b83815181106106455761064561573c565b60200260200101518b8b85815181106106605761066061573c565b6020026020010151613674565b83828151811061067f5761067f61573c565b911515602092830291909101909101528180156106b357508281815181106106a9576106a961573c565b6020026020010151155b156106bd57600091505b60009450849350600101610626565b50999098509650505050505050565b6040516328a9972d60e11b81526004810182905260609083906000906001600160a01b038316906351532e5a90602401600060405180830381865afa158015610728573d6000803e3d6000fd5b505050506040513d6000823e601f3d908101601f1916820160405261075091908101906157b6565b80519091508061077357604051633456866f60e01b815260040160405180910390fd5b6000816001600160401b0381111561078d5761078d614737565b6040519080825280602002602001820160405280156107de57816020015b60408051608081018252600080825260208083018290529282015260608082015282526000199092019101816107ab5790505b50905060606000805b848110156109a557866001600160a01b0316635e2e32928a8884815181106108115761081161573c565b60200260200101516040518363ffffffff1660e01b81526004016108489291909182526001600160401b0316602082015260400190565b600060405180830381865afa158015610865573d6000803e3d6000fd5b505050506040513d6000823e601f3d908101601f1916820160405261088d919081019061584d565b9250866001600160a01b031663df6f556b8a8884815181106108b1576108b161573c565b60200260200101516040518363ffffffff1660e01b81526004016108e89291909182526001600160401b0316602082015260400190565b602060405180830381865afa158015610905573d6000803e3d6000fd5b505050506040513d601f19601f820116820180604052508101906109299190615881565b915060405180608001604052808783815181106109485761094861573c565b60200260200101516001600160401b03168152602001826001600160801b03168152602001836001600160401b03168152602001848152508482815181106109925761099261573c565b60209081029190910101526001016107e7565b5091955050505050505b92915050565b604051633940140f60e11b81526004810182905260609083906000906001600160a01b03831690637280281e90602401600060405180830381865afa158015610a02573d6000803e3d6000fd5b505050506040513d6000823e601f3d908101601f19168201604052610a2a91908101906157b6565b604051632f4a1aa560e11b8152600481018690529091506000906001600160a01b03841690635e94354a90602401600060405180830381865afa158015610a75573d6000803e3d6000fd5b505050506040513d6000823e601f3d908101601f19168201604052610a9d91908101906157b6565b825190915080610ac057604051633456866f60e01b815260040160405180910390fd5b6000816001600160401b03811115610ada57610ada614737565b604051908082528060200260200182016040528015610b2757816020015b60408051606080820183526000808352602083015291810191909152815260200190600190039081610af85790505b509050606060005b83811015610c5b57866001600160a01b0316635e2e32928a888481518110610b5957610b5961573c565b60200260200101516040518363ffffffff1660e01b8152600401610b909291909182526001600160401b0316602082015260400190565b600060405180830381865afa158015610bad573d6000803e3d6000fd5b505050506040513d6000823e601f3d908101601f19168201604052610bd5919081019061584d565b91506040518060600160405280878381518110610bf457610bf461573c565b60200260200101516001600160401b03168152602001868381518110610c1c57610c1c61573c565b60200260200101516001600160401b0316815260200183815250838281518110610c4857610c4861573c565b6020908102919091010152600101610b2f565b509098975050505050505050565b6040516328a9972d60e11b81526004810182905260609083906000906001600160a01b038316906351532e5a90602401600060405180830381865afa158015610cb6573d6000803e3d6000fd5b505050506040513d6000823e601f3d908101601f19168201604052610cde91908101906157b6565b805190915080610d0157604051633456866f60e01b815260040160405180910390fd5b6000816001600160401b03811115610d1b57610d1b614737565b604051908082528060200260200182016040528015610d8457816020015b6040805160e081018252600080825260208083018290529282018190526060808301829052608083019190915260a0820181905260c08201528252600019909201910181610d395790505b5090506000805b83811015610f8057600080600080896001600160a01b0316634e60edba8d8b8881518110610dbb57610dbb61573c565b60200260200101516040518363ffffffff1660e01b8152600401610df29291909182526001600160401b0316602082015260400190565b600060405180830381865afa158015610e0f573d6000803e3d6000fd5b505050506040513d6000823e601f3d908101601f19168201604052610e37919081019061589e565b9350935093509350896001600160a01b031663df6f556b8d8b8881518110610e6157610e6161573c565b60200260200101516040518363ffffffff1660e01b8152600401610e989291909182526001600160401b0316602082015260400190565b602060405180830381865afa158015610eb5573d6000803e3d6000fd5b505050506040513d601f19601f82011682018060405250810190610ed99190615881565b95506040518060e001604052808a8781518110610ef857610ef861573c565b60200260200101516001600160401b03168152602001846001600160401b03168152602001866001600160801b03168152602001876001600160401b03168152602001836001600160a01b0316815260200185815260200182815250878681518110610f6657610f6661573c565b602002602001018190525084600101945050505050610d8b565b5090979650505050505050565b60405163113b24d160e21b81526004810184905260009081906001600160a01b038716906344ec934490602401600060405180830381865afa158015610fd7573d6000803e3d6000fd5b505050506040513d6000823e601f3d908101601f19168201604052610fff919081019061591c565b805190915060005b8181101561108057848382815181106110225761102261573c565b6020026020010151600001511480156110695750856001600160a01b03168382815181106110525761105261573c565b6020026020010151602001516001600160a01b0316145b1561107857925061109a915050565b600101611007565b50604051639746ef3f60e01b815260040160405180910390fd5b949350505050565b606084826000816001600160401b038111156110c0576110c0614737565b6040519080825280602002602001820160405280156110f357816020015b60608152602001906001900390816110de5790505b50905060005b828110156111cf57836001600160a01b0316635e2e3292898989858181106111235761112361573c565b905060200201602081019061113891906159d0565b6040516001600160e01b031960e085901b16815260048101929092526001600160401b03166024820152604401600060405180830381865afa158015611182573d6000803e3d6000fd5b505050506040513d6000823e601f3d908101601f191682016040526111aa919081019061584d565b8282815181106111bc576111bc61573c565b60209081029190910101526001016110f9565b50979650505050505050565b6111e3614667565b6000806111f085856138b2565b60405163273076dd60e11b8152600481018790526001600160401b038316602482015291935091506000908190819081906001600160a01b038a1690634e60edba90604401600060405180830381865afa158015611252573d6000803e3d6000fd5b505050506040513d6000823e601f3d908101601f1916820160405261127a919081019061589e565b6040805160c0810182526001600160401b039b8c168152938b16602085015298909916978201979097526001600160a01b03909616606087015260808601525050505060a08101919091529392505050565b60606000806112dc868686613795565b9092509050856000806112f28389898789613a4e565b865191935091506000826001600160401b0381111561131357611313614737565b60405190808252806020026020018201604052801561136557816020015b6040805160808101825260008082526020808301829052928201819052606082015282526000199092019101816113315790505b50975060005b82811015611457578481815181106113855761138561573c565b60200260200101516080015160001461144f5760405180608001604052808b6001600160401b031681526020018683815181106113c4576113c461573c565b6020026020010151602001516001600160401b031681526020018683815181106113f0576113f061573c565b60200260200101516080015181526020018683815181106114135761141361573c565b6020026020010151606001516001600160a01b031681525089838151811061143d5761143d61573c565b60200260200101819052508160010191505b60010161136b565b50505050505050509392505050565b6000606060008061147787876126ec565b9150915061148782828989610f8d565b93506114968787848489613ea7565b92505050935093915050565b61154c6040518061022001604052806060815260200160006001600160a01b0316815260200160006001600160a01b03168152602001600081526020016000815260200160608152602001600081526020016000815260200160006001600160a01b03168152602001606081526020016060815260200160008152602001600081526020016000151581526020016000151581526020016000151581526020016000151581525090565b6040516301ffc9a760e01b815282906001600160a01b038216906301ffc9a7906115819063035a194d60e11b906004016159ed565b602060405180830381865afa15801561159e573d6000803e3d6000fd5b505050506040513d601f19601f820116820180604052508101906115c29190615a02565b15156101c08301526040516301ffc9a760e01b81526001600160a01b038216906301ffc9a7906115fd906342b0e56f60e01b906004016159ed565b602060405180830381865afa15801561161a573d6000803e3d6000fd5b505050506040513d601f19601f8201168201806040525081019061163e9190615a02565b15156101e08301526040516301ffc9a760e01b81526001600160a01b038216906301ffc9a79061167990630a2f26b960e21b906004016159ed565b602060405180830381865afa158015611696573d6000803e3d6000fd5b505050506040513d601f19601f820116820180604052508101906116ba9190615a02565b15156102008301526101e08201511561182a57604051637d92fdbd60e11b8152600481018590526001600160a01b0382169063fb25fb7a90602401606060405180830381865afa158015611712573d6000803e3d6000fd5b505050506040513d601f19601f820116820180604052508101906117369190615a1f565b50506001600160a01b039081166020840152604051631bc6654760e21b81526004810186905290821690636f19951c90602401600060405180830381865afa158015611786573d6000803e3d6000fd5b505050506040513d6000823e601f3d908101601f191682016040526117ae919081019061591c565b5161016083015260405163113b24d160e21b8152600481018590526001600160a01b038216906344ec934490602401600060405180830381865afa1580156117fa573d6000803e3d6000fd5b505050506040513d6000823e601f3d908101601f19168201604052611822919081019061591c565b516101808301525b816101c001511561198e57604051633940140f60e11b8152600481018590526001600160a01b03821690637280281e90602401600060405180830381865afa15801561187a573d6000803e3d6000fd5b505050506040513d6000823e601f3d908101601f191682016040526118a291908101906157b6565b5160608301526040516328a9972d60e11b8152600481018590526001600160a01b038216906351532e5a90602401600060405180830381865afa1580156118ed573d6000803e3d6000fd5b505050506040513d6000823e601f3d908101601f1916820160405261191591908101906157b6565b516080830152604051632f4a1aa560e11b8152600481018590526001600160a01b03821690635e94354a90602401600060405180830381865afa158015611960573d6000803e3d6000fd5b505050506040513d6000823e601f3d908101601f1916820160405261198891908101906157b6565b60a08301525b6040516301ffc9a760e01b81526001600160a01b038216906301ffc9a7906119c1906391a6262f60e01b906004016159ed565b602060405180830381865afa1580156119de573d6000803e3d6000fd5b505050506040513d601f19601f82011682018060405250810190611a029190615a02565b15611a86576040516391a6262f60e01b81526004810185905260006024820181905260448201526001600160a01b038416906391a6262f90606401602060405180830381865afa158015611a5a573d6000803e3d6000fd5b505050506040513d601f19601f82011682018060405250810190611a7e9190615a02565b156101a08301525b6040516331a9108f60e11b8152600481018590526001600160a01b03821690636352211e90602401602060405180830381865afa158015611acb573d6000803e3d6000fd5b505050506040513d601f19601f82011682018060405250810190611aef9190615a57565b6001600160a01b039081166040840152602083015116611b1d5760408201516001600160a01b031660208301525b806001600160a01b03166306fdde036040518163ffffffff1660e01b8152600401600060405180830381865afa158015611b5b573d6000803e3d6000fd5b505050506040513d6000823e601f3d908101601f19168201604052611b83919081019061584d565b61012083015260405163c87b56dd60e01b8152600481018590526001600160a01b0384169063c87b56dd90602401600060405180830381865afa925050508015611bef57506040513d6000823e601f3d908101601f19168201604052611bec919081019061584d565b60015b15611bf75782525b826001600160a01b03166318160ddd6040518163ffffffff1660e01b8152600401602060405180830381865afa925050508015611c51575060408051601f3d908101601f19168201909252611c4e91810190615a74565b60015b15611c5c5760e08301525b826001600160a01b031663d5abeb016040518163ffffffff1660e01b8152600401602060405180830381865afa925050508015611cb6575060408051601f3d908101601f19168201909252611cb391810190615a74565b60015b15611cc15760c08301525b826001600160a01b0316638da5cb5b6040518163ffffffff1660e01b8152600401602060405180830381865afa925050508015611d1b575060408051601f3d908101601f19168201909252611d1891810190615a57565b60015b15611d30576001600160a01b03166101008301525b806001600160a01b03166395d89b416040518163ffffffff1660e01b8152600401600060405180830381865afa158015611d6e573d6000803e3d6000fd5b505050506040513d6000823e601f3d908101601f19168201604052611d96919081019061584d565b6101408301525092915050565b600080600080611db38686612d87565b9450945094505050828015611dc6575081155b8015611dd0575080155b9695505050505050565b60606000611de884846138b2565b50604051632f17194960e11b8152600481018590526001600160401b03821660248201529091506001600160a01b03851690635e2e329290604401600060405180830381865afa158015611e40573d6000803e3d6000fd5b505050506040513d6000823e601f3d908101601f1916820160405261109a919081019061584d565b604051633940140f60e11b81526004810182905260609083906000906001600160a01b03831690637280281e90602401600060405180830381865afa158015611eb5573d6000803e3d6000fd5b505050506040513d6000823e601f3d908101601f19168201604052611edd91908101906157b6565b604051632f4a1aa560e11b8152600481018690529091506000906001600160a01b03841690635e94354a90602401600060405180830381865afa158015611f28573d6000803e3d6000fd5b505050506040513d6000823e601f3d908101601f19168201604052611f5091908101906157b6565b825190915080611f7357604051633456866f60e01b815260040160405180910390fd5b6000816001600160401b03811115611f8d57611f8d614737565b604051908082528060200260200182016040528015611fc657816020015b611fb3614667565b815260200190600190039081611fab5790505b50905060005b828110156111cf57600080600080896001600160a01b0316634e60edba8d8b8881518110611ffc57611ffc61573c565b60200260200101516040518363ffffffff1660e01b81526004016120339291909182526001600160401b0316602082015260400190565b600060405180830381865afa158015612050573d6000803e3d6000fd5b505050506040513d6000823e601f3d908101601f19168201604052612078919081019061589e565b93509350935093506040518060c001604052808a878151811061209d5761209d61573c565b60200260200101516001600160401b03168152602001846001600160401b031681526020018987815181106120d4576120d461573c565b60200260200101516001600160401b03168152602001836001600160a01b03168152602001858152602001828152508686815181106121155761211561573c565b602002602001018190525084600101945050505050611fcc565b600080606061213e85856138b2565b604051632f17194960e11b8152600481018790526001600160401b038316602482015291945092506001600160a01b03861690635e2e329290604401600060405180830381865afa158015612197573d6000803e3d6000fd5b505050506040513d6000823e601f3d908101601f191682016040526121bf919081019061584d565b90509250925092565b604051631bc6654760e21b8152600481018290526060906000906001600160a01b03851690636f19951c90602401600060405180830381865afa158015612213573d6000803e3d6000fd5b505050506040513d6000823e601f3d908101601f1916820160405261223b919081019061591c565b80519091506000816001600160401b0381111561225a5761225a614737565b6040519080825280602002602001820160405280156122a757816020015b604080516060808201835260008083526020830152918101919091528152602001906001900390816122785790505b50905060005b828110156123815760006122fb8583815181106122cc576122cc61573c565b6020026020010151602001518684815181106122ea576122ea61573c565b602002602001015160000151611dda565b9050604051806060016040528086848151811061231a5761231a61573c565b6020026020010151602001516001600160a01b031681526020018684815181106123465761234661573c565b60200260200101516000015181526020018281525083838151811061236d5761236d61573c565b6020908102919091010152506001016122ad565b5095945050505050565b604051633a83f15760e11b8152600481018790526001600160a01b0386811660248301526001600160401b038316604483015260009182918a1690637507e2ae90606401608060405180830381865afa1580156123ec573d6000803e3d6000fd5b505050506040513d601f19601f820116820180604052508101906124109190615a8d565b9050856001600160a01b031681606001516001600160a01b031614801561243a5750848160400151145b801561245b5750836001600160401b031681602001516001600160401b0316145b9998505050505050505050565b60405163273076dd60e11b8152600481018390526001600160401b0382166024820152606090600090819083908190889082906001600160a01b03831690634e60edba90604401600060405180830381865afa1580156124cc573d6000803e3d6000fd5b505050506040513d6000823e601f3d908101601f191682016040526124f4919081019061589e565b929950909750955090506001600160a01b03851661252557604051630f40c4af60e31b815260040160405180910390fd5b600080612532838861300c565b9150915080516001600160401b0381111561254f5761254f614737565b60405190808252806020026020018201604052801561259c57816020015b6040805160608082018352600080835260208301529181019190915281526020019060019003908161256d5790505b50815190965080156126cb57604051632601b1bb60e21b81526000906001600160a01b038a1690639806c6ec906125d7908690600401615aeb565b600060405180830381865afa1580156125f4573d6000803e3d6000fd5b505050506040513d6000823e601f3d908101601f1916820160405261261c9190810190615c00565b905060005b828110156126c85760405180606001604052808583815181106126465761264661573c565b60200260200101516001600160401b0316815260200183838151811061266e5761266e61573c565b60200260200101516020015160ff1681526020018383815181106126945761269461573c565b6020026020010151606001518152508982815181106126b5576126b561573c565b6020908102919091010152600101612621565b50505b6126d8858d8d8b87613a4e565b50999d989c50969a50949850505050505050565b6000806000846001600160a01b031663fb25fb7a856040518263ffffffff1660e01b815260040161271f91815260200190565b606060405180830381865afa15801561273c573d6000803e3d6000fd5b505050506040513d601f19601f820116820180604052508101906127609190615a1f565b919450925090508061278557604051630daea74560e11b815260040160405180910390fd5b509250929050565b6000606060008061279e87876126ec565b604051633940140f60e11b81526004810182905291935091506000906001600160a01b03841690637280281e90602401600060405180830381865afa1580156127eb573d6000803e3d6000fd5b505050506040513d6000823e601f3d908101601f1916820160405261281391908101906157b6565b8051604051633940140f60e11b8152600481018a9052919250906000906001600160a01b038b1690637280281e90602401600060405180830381865afa158015612861573d6000803e3d6000fd5b505050506040513d6000823e601f3d908101601f1916820160405261288991908101906157b6565b5190506000806128998385615cc6565b6001600160401b038111156128b0576128b0614737565b6040519080825280602002602001820160405280156128e957816020015b6128d66146c1565b8152602001906001900390816128ce5790505b509050606060005b858110156129ac576129208e8e8b8b8b6000815181106129135761291361573c565b6020026020010151613ea7565b805190925060005b818110156129a2578d1580612957575083818151811061294a5761294a61573c565b602002602001015160a001515b1561299a5783818151811061296e5761296e61573c565b60200260200101518587815181106129885761298861573c565b60200260200101819052508560010195505b600101612928565b50506001016128f1565b50826001600160401b038111156129c5576129c5614737565b6040519080825280602002602001820160405280156129fe57816020015b6129eb6146c1565b8152602001906001900390816129e35790505b50985060005b83811015612a4b57828181518110612a1e57612a1e61573c565b60200260200101518a8281518110612a3857612a3861573c565b6020908102919091010152600101612a04565b50612a5888888f8f6134d3565b99505050505050505050935093915050565b60405163273076dd60e11b81526001600160401b0380841660048301528216602482015260609081908190869060009081906001600160a01b03841690634e60edba90604401600060405180830381865afa158015612acd573d6000803e3d6000fd5b505050506040513d6000823e601f3d908101601f19168201604052612af5919081019061589e565b935093505050612b05818361300c565b508051909650806001600160401b03811115612b2357612b23614737565b604051908082528060200260200182016040528015612b7557816020015b604080516080810182526000808252602080830182905292820181905260608201528252600019909201910181612b415790505b509550806001600160401b03811115612b9057612b90614737565b604051908082528060200260200182016040528015612bc357816020015b6060815260200190600190039081612bae5790505b50945060005b81811015612d79576000856001600160a01b0316637507e2ae8c878c8681518110612bf657612bf661573c565b60200260200101516040518463ffffffff1660e01b8152600401612c43939291906001600160401b0393841681526001600160a01b03929092166020830152909116604082015260600190565b608060405180830381865afa158015612c60573d6000803e3d6000fd5b505050506040513d601f19601f82011682018060405250810190612c849190615a8d565b9050896001600160401b031681600001516001600160401b031603612d705780888381518110612cb657612cb661573c565b602002602001018190525080606001516001600160a01b0316635e2e3292826040015183602001516040518363ffffffff1660e01b8152600401612d0d9291909182526001600160401b0316602082015260400190565b600060405180830381865afa158015612d2a573d6000803e3d6000fd5b505050506040513d6000823e601f3d908101601f19168201604052612d52919081019061584d565b878381518110612d6457612d6461573c565b60200260200101819052505b50600101612bc9565b505050505093509350939050565b6000806000806000866001600160a01b031663fb25fb7a876040518263ffffffff1660e01b8152600401612dbd91815260200190565b606060405180830381865afa158015612dda573d6000803e3d6000fd5b505050506040513d601f19601f82011682018060405250810190612dfe9190615a1f565b9196509450925082612e1557506000905080613002565b604051631bc6654760e21b8152600481018590526000906001600160a01b03871690636f19951c90602401600060405180830381865afa158015612e5d573d6000803e3d6000fd5b505050506040513d6000823e601f3d908101601f19168201604052612e85919081019061591c565b60405163113b24d160e21b8152600481018790529091506000906001600160a01b038816906344ec934490602401600060405180830381865afa158015612ed0573d6000803e3d6000fd5b505050506040513d6000823e601f3d908101601f19168201604052612ef8919081019061591c565b825190915060005b81811015612f785789848281518110612f1b57612f1b61573c565b602002602001015160000151148015612f6257508a6001600160a01b0316848281518110612f4b57612f4b61573c565b6020026020010151602001516001600160a01b0316145b15612f705760019550612f78565b600101612f00565b5084612ffe5750805160005b81811015612ffc5789838281518110612f9f57612f9f61573c565b602002602001015160000151148015612fe657508a6001600160a01b0316838281518110612fcf57612fcf61573c565b6020026020010151602001516001600160a01b0316145b15612ff45760019450612ffc565b600101612f84565b505b5050505b9295509295909350565b6060806000836001600160a01b0316639806c6ec866040518263ffffffff1660e01b815260040161303d9190615aeb565b600060405180830381865afa15801561305a573d6000803e3d6000fd5b505050506040513d6000823e601f3d908101601f191682016040526130829190810190615c00565b905060008060008751905060005b8181101561312c5760028582815181106130ac576130ac61573c565b60200260200101516000015160028111156130c9576130c9615cdd565b036130e0576130d9600185615cf3565b9350613124565b60018582815181106130f4576130f461573c565b602002602001015160000151600281111561311157613111615cdd565b0361312457613121600184615cf3565b92505b600101613090565b50816001600160401b0381111561314557613145614737565b60405190808252806020026020018201604052801561316e578160200160208202803683370190505b509550826001600160401b0381111561318957613189614737565b6040519080825280602002602001820160405280156131b2578160200160208202803683370190505b50945060008060005b838110156132df5760028782815181106131d7576131d761573c565b60200260200101516000015160028111156131f4576131f4615cdd565b0361324f578a818151811061320b5761320b61573c565b60200260200101518883815181106132255761322561573c565b6001600160401b0390921660209283029190910190910152613248600183615cf3565b91506132d7565b60018782815181106132635761326361573c565b602002602001015160000151600281111561328057613280615cdd565b036132d7578a81815181106132975761329761573c565b60200260200101518984815181106132b1576132b161573c565b6001600160401b03909216602092830291909101909101526132d4600184615cf3565b92505b6001016131bb565b505050505050509250929050565b600060606000806132fe87876126ec565b91509150611487828289896134d3565b60606000826001600160401b0381111561332a5761332a614737565b604051908082528060200260200182016040528015613353578160200160208202803683370190505b5090506000805b8481101561340f576001600160a01b038716636352211e61337b8389615cf3565b6040518263ffffffff1660e01b815260040161339991815260200190565b602060405180830381865afa9250505080156133d2575060408051601f3d908101601f191682019092526133cf91810190615a57565b60015b15613407576133e18288615cf3565b8483815181106133f3576133f361573c565b602002602001018181525050600183019250505b60010161335a565b50806001600160401b0381111561342857613428614737565b604051908082528060200260200182016040528015613451578160200160208202803683370190505b5092506000805b858110156134c8578381815181106134725761347261573c565b60200260200101516000146134c0578381815181106134935761349361573c565b60200260200101518583815181106134ad576134ad61573c565b6020026020010181815250508160010191505b600101613458565b505050509392505050565b604051631bc6654760e21b81526004810184905260009081906001600160a01b03871690636f19951c90602401600060405180830381865afa15801561351d573d6000803e3d6000fd5b505050506040513d6000823e601f3d908101601f19168201604052613545919081019061591c565b805190915060005b8181101561108057848382815181106135685761356861573c565b6020026020010151600001511480156135af5750856001600160a01b03168382815181106135985761359861573c565b6020026020010151602001516001600160a01b0316145b156135be57925061109a915050565b60010161354d565b8051606090806001600160401b038111156135e3576135e3614737565b60405190808252806020026020018201604052801561361657816020015b60608152602001906001900390816136015790505b50915060005b8181101561366c576136478585838151811061363a5761363a61573c565b6020026020010151611dda565b8382815181106136595761365961573c565b602090810291909101015260010161361c565b505092915050565b6040516301ffc9a760e01b81526000906001600160a01b038516906301ffc9a7906136aa906342b0e56f60e01b906004016159ed565b602060405180830381865afa1580156136c7573d6000803e3d6000fd5b505050506040513d601f19601f820116820180604052508101906136eb9190615a02565b6136f75750600061109a565b604051637d92fdbd60e11b81526004810183905260009081906001600160a01b0387169063fb25fb7a90602401606060405180830381865afa158015613741573d6000803e3d6000fd5b505050506040513d601f19601f820116820180604052508101906137659190615a1f565b5091509150866001600160a01b0316826001600160a01b031614801561378a57508481145b979650505050505050565b60405163273076dd60e11b8152600481018390526001600160401b038216602482015260609060009082906001600160a01b03871690634e60edba90604401600060405180830381865afa1580156137f1573d6000803e3d6000fd5b505050506040513d6000823e601f3d908101601f19168201604052613819919081019061589e565b9094509250506001600160a01b038316905061384857604051630f40c4af60e31b815260040160405180910390fd5b613852818361300c565b5096919550909350505050565b60008061386c86866126ec565b90925090506001600160a01b0380831690851614158061388c5750808314155b156138aa57604051631eb88d2d60e31b815260040160405180910390fd5b505050505050565b604051632f4a1aa560e11b8152600481018290526000908190849082906001600160a01b03831690635e94354a90602401600060405180830381865afa158015613900573d6000803e3d6000fd5b505050506040513d6000823e601f3d908101601f1916820160405261392891908101906157b6565b604051633940140f60e11b8152600481018790529091506000906001600160a01b03841690637280281e90602401600060405180830381865afa158015613973573d6000803e3d6000fd5b505050506040513d6000823e601f3d908101601f1916820160405261399b91908101906157b6565b8251909150806139be57604051633456866f60e01b815260040160405180910390fd5b6001600160401b036000805b83816001600160401b031610156106cc57600086826001600160401b0316815181106139f8576139f861573c565b60200260200101519050836001600160401b0316816001600160401b03161015613a455780935085826001600160401b031681518110613a3a57613a3a61573c565b602002602001015192505b506001016139ca565b6060600082516001600160401b03811115613a6b57613a6b614737565b604051908082528060200260200182016040528015613afa57816020015b613ae76040518060e0016040528060006001600160401b0316815260200160006001600160401b03168152602001600060ff16815260200160006001600160a01b031681526020016000815260200160608152602001606081525090565b815260200190600190039081613a895790505b5083519092508015613e9c5760606000866001600160a01b0316639806c6ec876040518263ffffffff1660e01b8152600401613b369190615aeb565b600060405180830381865afa158015613b53573d6000803e3d6000fd5b505050506040513d6000823e601f3d908101601f19168201604052613b7b9190810190615c00565b905060005b83811015613e985760008b6001600160a01b0316637507e2ae8c8b8b8681518110613bad57613bad61573c565b60200260200101516040518463ffffffff1660e01b8152600401613bf6939291909283526001600160a01b039190911660208301526001600160401b0316604082015260600190565b608060405180830381865afa158015613c13573d6000803e3d6000fd5b505050506040513d601f19601f82011682018060405250810190613c379190615a8d565b9050896001600160401b031681600001516001600160401b031603613dc15780606001516001600160a01b0316635e2e3292826040015183602001516040518363ffffffff1660e01b8152600401613ca29291909182526001600160401b0316602082015260400190565b600060405180830381865afa158015613cbf573d6000803e3d6000fd5b505050506040513d6000823e601f3d908101601f19168201604052613ce7919081019061584d565b93506040518060e00160405280898481518110613d0657613d0661573c565b60200260200101516001600160401b0316815260200182602001516001600160401b03168152602001848481518110613d4157613d4161573c565b60200260200101516020015160ff16815260200182606001516001600160a01b0316815260200182604001518152602001858152602001848481518110613d8a57613d8a61573c565b602002602001015160600151815250878381518110613dab57613dab61573c565b6020026020010181905250856001019550613e8f565b878281518110613dd357613dd361573c565b6020026020010151878381518110613ded57613ded61573c565b60209081029190910101516001600160401b0390911690528251839083908110613e1957613e1961573c565b602002602001015160200151878381518110613e3757613e3761573c565b60200260200101516040019060ff16908160ff1681525050828281518110613e6157613e6161573c565b602002602001015160600151878381518110613e7f57613e7f61573c565b602002602001015160c001819052505b50600101613b80565b5050505b509550959350505050565b6060600080613eb7868686613795565b91509150600080613ecb8a8a868b87614279565b91509150806001600160401b03811115613ee757613ee7614737565b604051908082528060200260200182016040528015613f2057816020015b613f0d6146c1565b815260200190600190039081613f055790505b50945060005b8181101561426b57828181518110613f4057613f4061573c565b6020026020010151868281518110613f5a57613f5a61573c565b6020026020010181905250613fae8989868e8e888781518110613f7f57613f7f61573c565b602002602001015160200151898881518110613f9d57613f9d61573c565b60200260200101516000015161238b565b868281518110613fc057613fc061573c565b602002602001015160a0019015159081151581525050836001600160a01b031663d297ac43848381518110613ff757613ff761573c565b6020908102919091010151516040516001600160e01b031960e084901b1681526001600160401b039091166004820152602401600060405180830381865afa158015614047573d6000803e3d6000fd5b505050506040513d6000823e601f3d908101601f1916820160405261406f9190810190615d06565b606001518682815181106140855761408561573c565b602002602001015160c00181905250868682815181106140a7576140a761573c565b6020026020010151604001906001600160401b031690816001600160401b031681525050838682815181106140de576140de61573c565b6020026020010151608001906001600160a01b031690816001600160a01b0316815250508a6001600160a01b0316635e2e32928b8584815181106141245761412461573c565b6020026020010151602001516040518363ffffffff1660e01b815260040161415f9291909182526001600160401b0316602082015260400190565b600060405180830381865afa15801561417c573d6000803e3d6000fd5b505050506040513d6000823e601f3d908101601f191682016040526141a4919081019061584d565b8682815181106141b6576141b661573c565b602090810291909101015160e00152604051632f17194960e11b8152600481018990526001600160401b03881660248201526001600160a01b038a1690635e2e329290604401600060405180830381865afa158015614219573d6000803e3d6000fd5b505050506040513d6000823e601f3d908101601f19168201604052614241919081019061584d565b8682815181106142535761425361573c565b60209081029190910101516101000152600101613f26565b505050505095945050505050565b6060600080876001600160a01b0316637280281e886040518263ffffffff1660e01b81526004016142ac91815260200190565b600060405180830381865afa1580156142c9573d6000803e3d6000fd5b505050506040513d6000823e601f3d908101601f191682016040526142f191908101906157b6565b604051632f4a1aa560e11b8152600481018990529091506000906001600160a01b038a1690635e94354a90602401600060405180830381865afa15801561433c573d6000803e3d6000fd5b505050506040513d6000823e601f3d908101601f1916820160405261436491908101906157b6565b8251909150806001600160401b0381111561438157614381614737565b6040519080825280602002602001820160405280156143ba57816020015b6143a76146c1565b81526020019060019003908161439f5790505b50945060005b81811015613e985760008b6001600160a01b0316634e60edba8c8785815181106143ec576143ec61573c565b60200260200101516040518363ffffffff1660e01b81526004016144239291909182526001600160401b0316602082015260400190565b600060405180830381865afa158015614440573d6000803e3d6000fd5b505050506040513d6000823e601f3d908101601f19168201604052614468919081019061589e565b509250505060005b8a5181101561465d57886001600160a01b0316826001600160a01b031614801561456357508c6001600160a01b031663074334fb8b8e8987815181106144b8576144b861573c565b60200260200101518f86815181106144d2576144d261573c565b60209081029190910101516040516001600160e01b031960e087901b1681526001600160a01b03909416600485015260248401929092526001600160401b039081166044840152166064820152608401602060405180830381865afa15801561453f573d6000803e3d6000fd5b505050506040513d601f19601f820116820180604052508101906145639190615a02565b156146555785838151811061457a5761457a61573c565b60200260200101518888815181106145945761459461573c565b6020026020010151602001906001600160401b031690816001600160401b0316815250508a81815181106145ca576145ca61573c565b60200260200101518888815181106145e4576145e461573c565b60209081029190910101516001600160401b03909116905284518590849081106146105761461061573c565b602002602001015188888151811061462a5761462a61573c565b6020026020010151606001906001600160401b031690816001600160401b0316815250508660010196505b600101614470565b50506001016143c0565b6040518060c0016040528060006001600160401b0316815260200160006001600160401b0316815260200160006001600160401b0316815260200160006001600160a01b0316815260200160608152602001606081525090565b604080516101208101825260008082526020820181905291810182905260608082018390526080820183905260a082019290925260c0810182905260e0810182905261010081019190915290565b6001600160a01b038116811461472457600080fd5b50565b80356147328161470f565b919050565b634e487b7160e01b600052604160045260246000fd5b604080519081016001600160401b038111828210171561476f5761476f614737565b60405290565b604051608081016001600160401b038111828210171561476f5761476f614737565b604051601f8201601f191681016001600160401b03811182821017156147bf576147bf614737565b604052919050565b60006001600160401b038211156147e0576147e0614737565b5060051b60200190565b600082601f8301126147fb57600080fd5b8135602061481061480b836147c7565b614797565b82815260059290921b8401810191818101908684111561482f57600080fd5b8286015b8481101561484a5780358352918301918301614833565b509695505050505050565b6000806000806080858703121561486b57600080fd5b84356148768161470f565b93506020858101356001600160401b038082111561489357600080fd5b818801915088601f8301126148a757600080fd5b81356148b561480b826147c7565b81815260059190911b8301840190848101908b8311156148d457600080fd5b938501935b828510156148fb5784356148ec8161470f565b825293850193908501906148d9565b9750505060408801359450606088013592508083111561491a57600080fd5b5050614928878288016147ea565b91505092959194509250565b60006040820184151583526020604081850152818551808452606086019150828701935060005b81811015610f8057845115158352938301939183019160010161495b565b6000806040838503121561498c57600080fd5b82356149978161470f565b946020939093013593505050565b60005b838110156149c05781810151838201526020016149a8565b50506000910152565b600081518084526149e18160208601602086016149a5565b601f01601f19169290920160200192915050565b60006020808301818452808551808352604092508286019150828160051b87010184880160005b83811015610c5b57888303603f19018552815180516001600160401b039081168552888201516001600160801b031689860152878201511687850152606090810151608091850182905290614a73818601836149c9565b968901969450505090860190600101614a1c565b60006020808301818452808551808352604092508286019150828160051b87010184880160005b83811015610c5b57888303603f19018552815180516001600160401b0390811685528882015116888501528601516060878501819052614af0818601836149c9565b968901969450505090860190600101614aae565b600081518084526020808501945080840160005b83811015614b3d5781516001600160401b031687529582019590820190600101614b18565b509495945050505050565b60006020808301818452808551808352604092508286019150828160051b87010184880160005b83811015610c5b57603f19898403018552815180516001600160401b03908116855288820151811689860152878201516001600160801b031688860152606080830151909116908501526080808201516001600160a01b03169085015260a08082015160e08287018190529190614be8838801826149c9565b9250505060c08083015192508582038187015250614c068183614b04565b968901969450505090860190600101614b6f565b60008060008060808587031215614c3057600080fd5b8435614c3b8161470f565b9350602085013592506040850135614c528161470f565b9396929550929360600135925050565b60008060008060608587031215614c7857600080fd5b8435614c838161470f565b93506020850135925060408501356001600160401b0380821115614ca657600080fd5b818701915087601f830112614cba57600080fd5b813581811115614cc957600080fd5b8860208260051b8501011115614cde57600080fd5b95989497505060200194505050565b600081518084526020808501808196508360051b8101915082860160005b85811015614d35578284038952614d238483516149c9565b98850198935090840190600101614d0b565b5091979650505050505050565b602081526000614d556020830184614ced565b9392505050565b60006001600160401b038083511684528060208401511660208501528060408401511660408501525060018060a01b036060830151166060840152608082015160c06080850152614db060c08501826149c9565b905060a083015184820360a0860152614dc98282614b04565b95945050505050565b602081526000614d556020830184614d5c565b6001600160401b038116811461472457600080fd5b600080600060608486031215614e0f57600080fd5b8335614e1a8161470f565b9250602084013591506040840135614e3181614de5565b809150509250925092565b600081518084526020808501945080840160005b83811015614b3d57815180516001600160401b039081168952848201511684890152604080820151908901526060908101516001600160a01b03169088015260809096019590820190600101614e50565b602081526000614d556020830184614e3c565b6000604080830185845260208281860152818651808452606093508387019150838160051b88010183890160005b83811015614fab57605f198a8403018552815180516001600160401b039081168552878201518116888601528982015181168a8601528882015116888501526080808201516001600160a01b03169085015260a08082015115159085015260c0808201516101208287018190529190614f5d838801826149c9565b9250505060e08083015186830382880152614f7883826149c9565b925050506101008083015192508582038187015250614f9781836149c9565b968801969450505090850190600101614ee2565b50909a9950505050505050505050565b60008060408385031215614fce57600080fd5b823591506020830135614fe08161470f565b809150509250929050565b602081526000825161022080602085015261500a6102408501836149c9565b9150602085015161502660408601826001600160a01b03169052565b5060408501516001600160a01b03811660608601525060608501516080850152608085015160a085015260a0850151601f19808685030160c087015261506c8483614b04565b935060c087015160e087015260e087015191506101008281880152808801519250506101206150a5818801846001600160a01b03169052565b808801519250506101408187860301818801526150c285846149c9565b9450808801519250506101608187860301818801526150e185846149c9565b90880151610180888101919091528801516101a08089019190915288015190945091506101c090506151168187018315159052565b86015190506101e061512b8682018315159052565b86015190506102006151408682018315159052565b90950151151593019290925250919050565b602081526000614d5560208301846149c9565b6000602080830181845280855180835260408601915060408160051b870101925083870160005b828110156151ba57603f198886030184526151a8858351614d5c565b9450928501929085019060010161518c565b5092979650505050505050565b60006001600160401b03808616835280851660208401525060606040830152614dc960608301846149c9565b60006020808301818452808551808352604092508286019150828160051b87010184880160005b83811015610c5b57888303603f19018552815180516001600160a01b0316845287810151888501528601516060878501819052615259818601836149c9565b96890196945050509086019060010161521a565b600080600080600080600060e0888a03121561528857600080fd5b87356152938161470f565b96506020880135955060408801356152aa8161470f565b945060608801356152ba8161470f565b93506080880135925060a08801356152d181614de5565b915060c08801356152e181614de5565b8091505092959891949750929550565b600081518084526020808501808196508360051b8101915082860160005b85811015614d35578284038952815180516001600160401b03908116865286820151168686015260408082015160ff16908601526060808201516001600160a01b0316908601526080808201519086015260a08082015160e0828801819052919061537c838901826149c9565b9250505060c0808301519250868203818801525061539a81836149c9565b9a87019a955050509084019060010161530f565b60a0815260006153c160a08301886149c9565b60206001600160401b0380891682860152604060018060a01b038916818701526060868503818801528489518087528587019150858160051b880101868c0160005b8381101561544f57898303601f1901855281518051891684528981015160ff168a85015287015187840187905261543c878501826149c9565b958a019593505090880190600101615403565b505089810360808b0152615463818c6152f1565b9f9e505050505050505050505050505050565b801515811461472457600080fd5b60008060006060848603121561549957600080fd5b83356154a48161470f565b9250602084013591506040840135614e3181615476565b6000806000606084860312156154d057600080fd5b83356154db8161470f565b925060208401356154eb81614de5565b91506040840135614e3181614de5565b60608152600061550e6060830186614b04565b82810360208401526155208186614e3c565b90508281036040840152611dd08185614ced565b6000806040838503121561554757600080fd5b82356001600160401b0381111561555d57600080fd5b8301601f8101851361556e57600080fd5b8035602061557e61480b836147c7565b82815260059290921b8301810191818101908884111561559d57600080fd5b938201935b838510156155c45784356155b581614de5565b825293820193908201906155a2565b95506155d39050868201614727565b93505050509250929050565b6040815260006155f26040830185614b04565b8281036020840152614dc98185614b04565b60008060006060848603121561561957600080fd5b83356156248161470f565b95602085013595506040909401359392505050565b6020808252825182820181905260009190848201906040850190845b8181101561567157835183529284019291840191600101615655565b50909695505050505050565b6000806040838503121561569057600080fd5b823561569b8161470f565b915060208301356001600160401b038111156156b657600080fd5b6156c2858286016147ea565b9150509250929050565b600080600080608085870312156156e257600080fd5b84356156ed8161470f565b935060208501356156fd8161470f565b93969395505050506040820135916060013590565b6040815260006157256040830185614b04565b905060018060a01b03831660208301529392505050565b634e487b7160e01b600052603260045260246000fd5b600082601f83011261576357600080fd5b8151602061577361480b836147c7565b82815260059290921b8401810191818101908684111561579257600080fd5b8286015b8481101561484a5780516157a981614de5565b8352918301918301615796565b6000602082840312156157c857600080fd5b81516001600160401b038111156157de57600080fd5b61109a84828501615752565b600082601f8301126157fb57600080fd5b81516001600160401b0381111561581457615814614737565b615827601f8201601f1916602001614797565b81815284602083860101111561583c57600080fd5b61109a8260208301602087016149a5565b60006020828403121561585f57600080fd5b81516001600160401b0381111561587557600080fd5b61109a848285016157ea565b60006020828403121561589357600080fd5b8151614d5581614de5565b600080600080608085870312156158b457600080fd5b84516001600160401b03808211156158cb57600080fd5b6158d7888389016157ea565b9550602087015191506158e982614de5565b60408701519194506158fa8261470f565b60608701519193508082111561590f57600080fd5b5061492887828801615752565b6000602080838503121561592f57600080fd5b82516001600160401b0381111561594557600080fd5b8301601f8101851361595657600080fd5b805161596461480b826147c7565b81815260069190911b8201830190838101908783111561598357600080fd5b928401925b8284101561378a57604084890312156159a15760008081fd5b6159a961474d565b84518152858501516159ba8161470f565b8187015282526040939093019290840190615988565b6000602082840312156159e257600080fd5b8135614d5581614de5565b6001600160e01b031991909116815260200190565b600060208284031215615a1457600080fd5b8151614d5581615476565b600080600060608486031215615a3457600080fd5b8351615a3f8161470f565b602085015160408601519194509250614e3181615476565b600060208284031215615a6957600080fd5b8151614d558161470f565b600060208284031215615a8657600080fd5b5051919050565b600060808284031215615a9f57600080fd5b615aa7614775565b8251615ab281614de5565b81526020830151615ac281614de5565b6020820152604083810151908201526060830151615adf8161470f565b60608201529392505050565b602081526000614d556020830184614b04565b600082601f830112615b0f57600080fd5b81516020615b1f61480b836147c7565b82815260059290921b84018101918181019086841115615b3e57600080fd5b8286015b8481101561484a578051615b558161470f565b8352918301918301615b42565b600060808284031215615b7457600080fd5b615b7c614775565b9050815160038110615b8d57600080fd5b8152602082015160ff81168114615ba357600080fd5b602082015260408201516001600160401b0380821115615bc257600080fd5b615bce85838601615afe565b60408401526060840151915080821115615be757600080fd5b50615bf4848285016157ea565b60608301525092915050565b60006020808385031215615c1357600080fd5b82516001600160401b0380821115615c2a57600080fd5b818501915085601f830112615c3e57600080fd5b8151615c4c61480b826147c7565b81815260059190911b83018401908481019088831115615c6b57600080fd5b8585015b83811015615ca357805185811115615c875760008081fd5b615c958b89838a0101615b62565b845250918601918601615c6f565b5098975050505050505050565b634e487b7160e01b600052601160045260246000fd5b80820281158282048414176109af576109af615cb0565b634e487b7160e01b600052602160045260246000fd5b808201808211156109af576109af615cb0565b600060208284031215615d1857600080fd5b81516001600160401b03811115615d2e57600080fd5b61109a84828501615b6256fea2646970667358221220a0fac749280f0fcb9931b51712c6d3a2840a2ecbadc603115e78cd97a2e84bf364736f6c63430008120033",
  "linkReferences": {},
  "deployedLinkReferences": {}
}