{
  "_format": "hh-sol-artifact-1",
  "contractName": "AsterSoulMintingFacade",
  "sourceName": "contracts/AsterSoulMintingFacade.sol",
  "abi": [
    {
      "inputs": [
        {
          "components": [
            {
              "internalType": "address",
              "name": "asterSoul_",
              "type": "address"
            },
            {
              "internalType": "address",
              "name": "asterToken_",
              "type": "address"
            },
            {
              "internalType": "uint256",
              "name": "pricePerMintInWei_",
              "type": "uint256"
            },
            {
              "internalType": "address",
              "name": "asterSoulFace_",
              "type": "address"
            },
            {
              "internalType": "address",
              "name": "asterSoulEyes_",
              "type": "address"
            },
            {
              "internalType": "address",
              "name": "asterSoulBubble_",
              "type": "address"
            },
            {
              "internalType": "address",
              "name": "asterSoulBody_",
              "type": "address"
            },
            {
              "internalType": "address",
              "name": "asterSoulBelly_",
              "type": "address"
            },
            {
              "internalType": "address",
              "name": "asterSoulAntenna_",
              "type": "address"
            },
            {
              "internalType": "address",
              "name": "adminSigner_",
              "type": "address"
            }
          ],
          "internalType": "struct AsterSoulMintingFacade.InitData",
          "name": "data",
          "type": "tuple"
        }
      ],
      "stateMutability": "nonpayable",
      "type": "constructor"
    },
    {
      "inputs": [],
      "name": "AsterSoulAlreadyClaimed",
      "type": "error"
    },
    {
      "inputs": [],
      "name": "InvalidSignature",
      "type": "error"
    },
    {
      "inputs": [],
      "name": "RMRKNewContributorIsZeroAddress",
      "type": "error"
    },
    {
      "inputs": [],
      "name": "RMRKNewOwnerIsZeroAddress",
      "type": "error"
    },
    {
      "inputs": [],
      "name": "RMRKNotOwner",
      "type": "error"
    },
    {
      "inputs": [],
      "name": "RMRKNotOwnerOrContributor",
      "type": "error"
    },
    {
      "anonymous": false,
      "inputs": [
        {
          "indexed": true,
          "internalType": "address",
          "name": "contributor",
          "type": "address"
        },
        {
          "indexed": false,
          "internalType": "bool",
          "name": "isContributor",
          "type": "bool"
        }
      ],
      "name": "ContributorUpdate",
      "type": "event"
    },
    {
      "anonymous": false,
      "inputs": [
        {
          "indexed": true,
          "internalType": "address",
          "name": "previousOwner",
          "type": "address"
        },
        {
          "indexed": true,
          "internalType": "address",
          "name": "newOwner",
          "type": "address"
        }
      ],
      "name": "OwnershipTransferred",
      "type": "event"
    },
    {
      "inputs": [],
      "name": "adminSigner",
      "outputs": [
        {
          "internalType": "address",
          "name": "",
          "type": "address"
        }
      ],
      "stateMutability": "view",
      "type": "function"
    },
    {
      "inputs": [],
      "name": "asterSoul",
      "outputs": [
        {
          "internalType": "address",
          "name": "",
          "type": "address"
        }
      ],
      "stateMutability": "view",
      "type": "function"
    },
    {
      "inputs": [],
      "name": "asterToken",
      "outputs": [
        {
          "internalType": "address",
          "name": "",
          "type": "address"
        }
      ],
      "stateMutability": "view",
      "type": "function"
    },
    {
      "inputs": [],
      "name": "erc20TokenAddress",
      "outputs": [
        {
          "internalType": "address",
          "name": "",
          "type": "address"
        }
      ],
      "stateMutability": "view",
      "type": "function"
    },
    {
      "inputs": [
        {
          "internalType": "address",
          "name": "contributor",
          "type": "address"
        }
      ],
      "name": "isContributor",
      "outputs": [
        {
          "internalType": "bool",
          "name": "",
          "type": "bool"
        }
      ],
      "stateMutability": "view",
      "type": "function"
    },
    {
      "inputs": [
        {
          "internalType": "address",
          "name": "contributor",
          "type": "address"
        },
        {
          "internalType": "bool",
          "name": "grantRole",
          "type": "bool"
        }
      ],
      "name": "manageContributor",
      "outputs": [],
      "stateMutability": "nonpayable",
      "type": "function"
    },
    {
      "inputs": [
        {
          "internalType": "bytes",
          "name": "signature",
          "type": "bytes"
        },
        {
          "components": [
            {
              "internalType": "uint64",
              "name": "chosenAsterSoulFaceAssetId",
              "type": "uint64"
            },
            {
              "internalType": "uint64",
              "name": "chosenAsterSoulEyesAssetId",
              "type": "uint64"
            },
            {
              "internalType": "uint64",
              "name": "chosenAsterSoulBubbleAssetId",
              "type": "uint64"
            },
            {
              "internalType": "uint64",
              "name": "chosenAsterSoulBodyAssetId",
              "type": "uint64"
            },
            {
              "internalType": "uint64",
              "name": "chosenAsterSoulBellyAssetId",
              "type": "uint64"
            },
            {
              "internalType": "uint64",
              "name": "chosenAsterSoulAntennaAssetId",
              "type": "uint64"
            }
          ],
          "internalType": "struct AsterSoulMintingFacade.IntakeComponentAssetIds",
          "name": "chosenComponentAssetIdMap",
          "type": "tuple"
        }
      ],
      "name": "mint",
      "outputs": [],
      "stateMutability": "nonpayable",
      "type": "function"
    },
    {
      "inputs": [
        {
          "internalType": "address",
          "name": "",
          "type": "address"
        },
        {
          "internalType": "address",
          "name": "",
          "type": "address"
        },
        {
          "internalType": "uint256",
          "name": "",
          "type": "uint256"
        },
        {
          "internalType": "bytes",
          "name": "",
          "type": "bytes"
        }
      ],
      "name": "onERC721Received",
      "outputs": [
        {
          "internalType": "bytes4",
          "name": "",
          "type": "bytes4"
        }
      ],
      "stateMutability": "nonpayable",
      "type": "function"
    },
    {
      "inputs": [],
      "name": "owner",
      "outputs": [
        {
          "internalType": "address",
          "name": "",
          "type": "address"
        }
      ],
      "stateMutability": "view",
      "type": "function"
    },
    {
      "inputs": [],
      "name": "pricePerMintInWei",
      "outputs": [
        {
          "internalType": "uint256",
          "name": "",
          "type": "uint256"
        }
      ],
      "stateMutability": "view",
      "type": "function"
    },
    {
      "inputs": [],
      "name": "renounceOwnership",
      "outputs": [],
      "stateMutability": "nonpayable",
      "type": "function"
    },
    {
      "inputs": [
        {
          "internalType": "address",
          "name": "adminSigner_",
          "type": "address"
        }
      ],
      "name": "setAdminSigner",
      "outputs": [],
      "stateMutability": "nonpayable",
      "type": "function"
    },
    {
      "inputs": [
        {
          "internalType": "address",
          "name": "asterSoul_",
          "type": "address"
        }
      ],
      "name": "setAsterSoul",
      "outputs": [],
      "stateMutability": "nonpayable",
      "type": "function"
    },
    {
      "inputs": [
        {
          "internalType": "uint256",
          "name": "pricePerMintInWei_",
          "type": "uint256"
        }
      ],
      "name": "setPricePerMintInWei",
      "outputs": [],
      "stateMutability": "nonpayable",
      "type": "function"
    },
    {
      "inputs": [
        {
          "internalType": "address",
          "name": "newOwner",
          "type": "address"
        }
      ],
      "name": "transferOwnership",
      "outputs": [],
      "stateMutability": "nonpayable",
      "type": "function"
    },
    {
      "inputs": [
        {
          "internalType": "bytes",
          "name": "signature",
          "type": "bytes"
        },
        {
          "internalType": "address",
          "name": "from",
          "type": "address"
        }
      ],
      "name": "verifyAddressSigner",
      "outputs": [
        {
          "internalType": "bool",
          "name": "",
          "type": "bool"
        }
      ],
      "stateMutability": "view",
      "type": "function"
    },
    {
      "inputs": [
        {
          "internalType": "address",
          "name": "erc20",
          "type": "address"
        },
        {
          "internalType": "address",
          "name": "to",
          "type": "address"
        },
        {
          "internalType": "uint256",
          "name": "amount",
          "type": "uint256"
        }
      ],
      "name": "withdrawRaisedERC20",
      "outputs": [],
      "stateMutability": "nonpayable",
      "type": "function"
    }
  ],
  "bytecode": "0x60a06040523480156200001157600080fd5b5060405162001b2438038062001b248339810160408190526200003491620001c1565b602081015162000044336200011c565b6001600160a01b0390811660809081528251600280546001600160a01b031990811692851692909217905560608401516005805483169185169190911790559083015160068054831691841691909117905560a083015160078054831691841691909117905560c083015160088054831691841691909117905560e0830151600980548316918416919091179055610100830151600a805483169184169190911790556020830151600380548316918416919091179055604083015160045561012090920151600b8054909316911617905562000297565b600080546001600160a01b038381166001600160a01b0319831681178455604051919092169283917f8be0079c531659141344cd1fd0a4f28419497f9722a3daafe3b4186f6b6457e09190a35050565b60405161014081016001600160401b03811182821017156200019e57634e487b7160e01b600052604160045260246000fd5b60405290565b80516001600160a01b0381168114620001bc57600080fd5b919050565b60006101408284031215620001d557600080fd5b620001df6200016c565b620001ea83620001a4565b8152620001fa60208401620001a4565b6020820152604083015160408201526200021760608401620001a4565b60608201526200022a60808401620001a4565b60808201526200023d60a08401620001a4565b60a08201526200025060c08401620001a4565b60c08201526200026360e08401620001a4565b60e082015261010062000278818501620001a4565b908201526101206200028c848201620001a4565b908201529392505050565b60805161186a620002ba600039600081816102720152611357015261186a6000f3fe608060405234801561001057600080fd5b506004361061010b5760003560e01c8063a38b919f116100a2578063dc658f1411610071578063dc658f141461024a578063f2fde38b1461025d578063f835cd3c14610270578063fd4cb92714610296578063ff9d2dcc146102a957600080fd5b8063a38b919f14610200578063a429544214610213578063b59a8f7014610224578063b8b552f01461023757600080fd5b8063715018a6116100de578063715018a6146101c357806379e8ca9e146101cb5780638da5cb5b146101de57806394cd9216146101ef57600080fd5b8063150b7a0214610110578063183bbe801461014c5780631d0d35f5146101615780631d13832e1461019e575b600080fd5b61012e61011e366004611530565b630a85bd0160e11b949350505050565b6040516001600160e01b031990911681526020015b60405180910390f35b61015f61015a366004611597565b6102ba565b005b61018e61016f366004611597565b6001600160a01b03166000908152600160208190526040909120541490565b6040519015158152602001610143565b6002546001600160a01b03165b6040516001600160a01b039091168152602001610143565b61015f6102e4565b61015f6101d93660046115c7565b6102f8565b6000546001600160a01b03166101ab565b600454604051908152602001610143565b61015f61020e3660046115fe565b6103b5565b6003546001600160a01b03166101ab565b61015f610232366004611617565b6103c2565b61018e610245366004611653565b610444565b61015f610258366004611597565b6104e7565b61015f61026b366004611597565b610511565b7f00000000000000000000000000000000000000000000000000000000000000006101ab565b61015f6102a43660046116b7565b61054c565b600b546001600160a01b03166101ab565b6102c26110ac565b600b80546001600160a01b0319166001600160a01b0392909216919091179055565b6102ec6110eb565b6102f66000611116565b565b6103006110eb565b6001600160a01b0382166103275760405163016b812760e71b815260040160405180910390fd5b8061034c576001600160a01b038216600090815260016020526040812081905561036b565b6001600160a01b03821660009081526001602081905260409091208190555b50816001600160a01b03167f4b5657e84cf8a17ac5587bbeb3cc2bab9826c4c67b8bad81b4849de49d37aac2826040516103a9911515815260200190565b60405180910390a25050565b6103bd6110ac565b600455565b6103ca6110eb565b60405163a9059cbb60e01b81526001600160a01b0383811660048301526024820183905284169063a9059cbb906044015b6020604051808303816000875af115801561041a573d6000803e3d6000fd5b505050506040513d601f19601f8201168201806040525081019061043e9190611779565b50505050565b60408051606083901b6bffffffffffffffffffffffff1916602080830191909152825160148184030181526034830184528051908201207f19457468657265756d205369676e6564204d6573736167653a0a333200000000605484015260708084018290528451808503909101815260909093019093528151910120600091906104ce9085611166565b600b546001600160a01b03918216911614949350505050565b6104ef6110ac565b600280546001600160a01b0319166001600160a01b0392909216919091179055565b6105196110eb565b6001600160a01b03811661054057604051634ece6ecf60e01b815260040160405180910390fd5b61054981611116565b50565b6105568233610444565b61057357604051638baa579f60e01b815260040160405180910390fd5b600260009054906101000a90046001600160a01b03166001600160a01b031663a0dd31376040518163ffffffff1660e01b8152600401602060405180830381865afa1580156105c6573d6000803e3d6000fd5b505050506040513d601f19601f820116820180604052508101906105ea9190611796565b6002546040516370a0823160e01b81523360048201526001600160a01b03909116906370a0823190602401602060405180830381865afa158015610632573d6000803e3d6000fd5b505050506040513d601f19601f820116820180604052508101906106569190611796565b1061067457604051633f6f033960e21b815260040160405180910390fd5b61067f60045461118a565b6002546040516335313c2160e11b81523060048201526000916001600160a01b031690636a627842906024016020604051808303816000875af11580156106ca573d6000803e3d6000fd5b505050506040513d601f19601f820116820180604052508101906106ee9190611796565b600554835160405163afedc63b60e01b8152600481018490526001600160401b0390911660248201529192506000916001600160a01b039091169063afedc63b906044016020604051808303816000875af1158015610751573d6000803e3d6000fd5b505050506040513d601f19601f820116820180604052508101906107759190611796565b600254600554604051631d2f9d5560e31b81529293506001600160a01b039182169263e97ceaa8926107b49287926000929091169087906004016117af565b600060405180830381600087803b1580156107ce57600080fd5b505af11580156107e2573d6000803e3d6000fd5b5050600654602086015160405163afedc63b60e01b8152600481018790526001600160401b0390911660248201526001600160a01b03909116925063afedc63b91506044016020604051808303816000875af1158015610846573d6000803e3d6000fd5b505050506040513d601f19601f8201168201806040525081019061086a9190611796565b600254600654604051631d2f9d5560e31b81529293506001600160a01b039182169263e97ceaa8926108a99287926000929091169087906004016117af565b600060405180830381600087803b1580156108c357600080fd5b505af11580156108d7573d6000803e3d6000fd5b5050600754604086810151905163afedc63b60e01b8152600481018790526001600160401b0390911660248201526001600160a01b03909116925063afedc63b91506044016020604051808303816000875af115801561093b573d6000803e3d6000fd5b505050506040513d601f19601f8201168201806040525081019061095f9190611796565b600254600754604051631d2f9d5560e31b81529293506001600160a01b039182169263e97ceaa89261099e9287926000929091169087906004016117af565b600060405180830381600087803b1580156109b857600080fd5b505af11580156109cc573d6000803e3d6000fd5b5050600854606086015160405163afedc63b60e01b8152600481018790526001600160401b0390911660248201526001600160a01b03909116925063afedc63b91506044016020604051808303816000875af1158015610a30573d6000803e3d6000fd5b505050506040513d601f19601f82011682018060405250810190610a549190611796565b600254600854604051631d2f9d5560e31b81529293506001600160a01b039182169263e97ceaa892610a939287926000929091169087906004016117af565b600060405180830381600087803b158015610aad57600080fd5b505af1158015610ac1573d6000803e3d6000fd5b5050600954608086015160405163afedc63b60e01b8152600481018790526001600160401b0390911660248201526001600160a01b03909116925063afedc63b91506044016020604051808303816000875af1158015610b25573d6000803e3d6000fd5b505050506040513d601f19601f82011682018060405250810190610b499190611796565b600254600954604051631d2f9d5560e31b81529293506001600160a01b039182169263e97ceaa892610b889287926000929091169087906004016117af565b600060405180830381600087803b158015610ba257600080fd5b505af1158015610bb6573d6000803e3d6000fd5b5050600a5460a086015160405163afedc63b60e01b8152600481018790526001600160401b0390911660248201526001600160a01b03909116925063afedc63b91506044016020604051808303816000875af1158015610c1a573d6000803e3d6000fd5b505050506040513d601f19601f82011682018060405250810190610c3e9190611796565b600254600a54604051631d2f9d5560e31b81529293506001600160a01b039182169263e97ceaa892610c7d9287926000929091169087906004016117af565b600060405180830381600087803b158015610c9757600080fd5b505af1158015610cab573d6000803e3d6000fd5b50506040805160a081018252858152600060208201526001818301819052606082015286516001600160401b031660808201526002549151630e373dd360e21b81529093506001600160a01b0390911691506338dcf74c90610d119084906004016117d3565b600060405180830381600087803b158015610d2b57600080fd5b505af1158015610d3f573d6000803e3d6000fd5b50506040805160a0810182528681526001602080830182905282840191909152600260608301819052908901516001600160401b03166080830152549151630e373dd360e21b81529094506001600160a01b0390911692506338dcf74c9150610dac9084906004016117d3565b600060405180830381600087803b158015610dc657600080fd5b505af1158015610dda573d6000803e3d6000fd5b50506040805160a08101825286815260026020820181905260018284015260036060830152888301516001600160401b03166080830152549151630e373dd360e21b81529094506001600160a01b0390911692506338dcf74c9150610e439084906004016117d3565b600060405180830381600087803b158015610e5d57600080fd5b505af1158015610e71573d6000803e3d6000fd5b50506040805160a08101825286815260036020820152600181830152600460608083018290528901516001600160401b031660808301526002549251630e373dd360e21b81529195506001600160a01b0390921693506338dcf74c9250610eda918591016117d3565b600060405180830381600087803b158015610ef457600080fd5b505af1158015610f08573d6000803e3d6000fd5b50506040805160a081018252868152600460208201819052600182840152600560608301526080898101516001600160401b0316908301526002549251630e373dd360e21b81529195506001600160a01b0390921693506338dcf74c9250610f72918591016117d3565b600060405180830381600087803b158015610f8c57600080fd5b505af1158015610fa0573d6000803e3d6000fd5b50506040805160a0808201835287825260056020830152600182840152600660608301528801516001600160401b031660808201526002549151630e373dd360e21b81529094506001600160a01b0390911692506338dcf74c91506110099084906004016117d3565b600060405180830381600087803b15801561102357600080fd5b505af1158015611037573d6000803e3d6000fd5b50506002546040516323b872dd60e01b8152306004820152336024820152604481018790526001600160a01b0390911692506323b872dd9150606401600060405180830381600087803b15801561108d57600080fd5b505af11580156110a1573d6000803e3d6000fd5b505050505050505050565b6000546001600160a01b031633148015906110cd57506110cb3361016f565b155b156102f6576040516301eca16760e41b815260040160405180910390fd5b6000546001600160a01b031633146102f657604051631c62d58f60e11b815260040160405180910390fd5b600080546001600160a01b038381166001600160a01b0319831681178455604051919092169283917f8be0079c531659141344cd1fd0a4f28419497f9722a3daafe3b4186f6b6457e09190a35050565b60008060006111758585611195565b91509150611182816111da565b509392505050565b610549333083611329565b60008082516041036111cb5760208301516040840151606085015160001a6111bf87828585611386565b945094505050506111d3565b506000905060025b9250929050565b60008160048111156111ee576111ee61181e565b036111f65750565b600181600481111561120a5761120a61181e565b0361125c5760405162461bcd60e51b815260206004820152601860248201527f45434453413a20696e76616c6964207369676e6174757265000000000000000060448201526064015b60405180910390fd5b60028160048111156112705761127061181e565b036112bd5760405162461bcd60e51b815260206004820152601f60248201527f45434453413a20696e76616c6964207369676e6174757265206c656e677468006044820152606401611253565b60038160048111156112d1576112d161181e565b036105495760405162461bcd60e51b815260206004820152602260248201527f45434453413a20696e76616c6964207369676e6174757265202773272076616c604482015261756560f01b6064820152608401611253565b6040516323b872dd60e01b81526001600160a01b0384811660048301528381166024830152604482018390527f000000000000000000000000000000000000000000000000000000000000000016906323b872dd906064016103fb565b6000807f7fffffffffffffffffffffffffffffff5d576e7357a4501ddfe92f46681b20a08311156113bd5750600090506003611441565b6040805160008082526020820180845289905260ff881692820192909252606081018690526080810185905260019060a0016020604051602081039080840390855afa158015611411573d6000803e3d6000fd5b5050604051601f1901519150506001600160a01b03811661143a57600060019250925050611441565b9150600090505b94509492505050565b80356001600160a01b038116811461146157600080fd5b919050565b634e487b7160e01b600052604160045260246000fd5b60405160c081016001600160401b038111828210171561149e5761149e611466565b60405290565b600082601f8301126114b557600080fd5b81356001600160401b03808211156114cf576114cf611466565b604051601f8301601f19908116603f011681019082821181831017156114f7576114f7611466565b8160405283815286602085880101111561151057600080fd5b836020870160208301376000602085830101528094505050505092915050565b6000806000806080858703121561154657600080fd5b61154f8561144a565b935061155d6020860161144a565b92506040850135915060608501356001600160401b0381111561157f57600080fd5b61158b878288016114a4565b91505092959194509250565b6000602082840312156115a957600080fd5b6115b28261144a565b9392505050565b801515811461054957600080fd5b600080604083850312156115da57600080fd5b6115e38361144a565b915060208301356115f3816115b9565b809150509250929050565b60006020828403121561161057600080fd5b5035919050565b60008060006060848603121561162c57600080fd5b6116358461144a565b92506116436020850161144a565b9150604084013590509250925092565b6000806040838503121561166657600080fd5b82356001600160401b0381111561167c57600080fd5b611688858286016114a4565b9250506116976020840161144a565b90509250929050565b80356001600160401b038116811461146157600080fd5b60008082840360e08112156116cb57600080fd5b83356001600160401b038111156116e157600080fd5b6116ed868287016114a4565b93505060c0601f198201121561170257600080fd5b5061170b61147c565b611717602085016116a0565b8152611725604085016116a0565b6020820152611736606085016116a0565b6040820152611747608085016116a0565b606082015261175860a085016116a0565b608082015261176960c085016116a0565b60a0820152809150509250929050565b60006020828403121561178b57600080fd5b81516115b2816115b9565b6000602082840312156117a857600080fd5b5051919050565b93845260208401929092526001600160a01b03166040830152606082015260800190565b600060a082019050825182526020830151602083015260408301516001600160401b038082166040850152806060860151166060850152806080860151166080850152505092915050565b634e487b7160e01b600052602160045260246000fdfea2646970667358221220273752a2ff3bf156a0099cc84b19b16c88a15c91ece76a5618f231070230903064736f6c63430008120033",
  "linkReferences": {},
  "deployedLinkReferences": {}
}