{
  "_format": "hh-sol-artifact-1",
  "contractName": "AsterSoul",
  "sourceName": "contracts/AsterSoul.sol",
  "abi": [
    {
      "inputs": [
        {
          "internalType": "string",
          "name": "name_",
          "type": "string"
        },
        {
          "internalType": "string",
          "name": "symbol_",
          "type": "string"
        }
      ],
      "stateMutability": "nonpayable",
      "type": "constructor"
    },
    {
      "inputs": [],
      "name": "AsterSoulAlreadyClaimed",
      "type": "error"
    },
    {
      "inputs": [],
      "name": "ERC721AddressZeroIsNotaValidOwner",
      "type": "error"
    },
    {
      "inputs": [],
      "name": "ERC721ApprovalToCurrentOwner",
      "type": "error"
    },
    {
      "inputs": [],
      "name": "ERC721ApproveCallerIsNotOwnerNorApprovedForAll",
      "type": "error"
    },
    {
      "inputs": [],
      "name": "ERC721ApproveToCaller",
      "type": "error"
    },
    {
      "inputs": [],
      "name": "ERC721InvalidTokenId",
      "type": "error"
    },
    {
      "inputs": [],
      "name": "ERC721MintToTheZeroAddress",
      "type": "error"
    },
    {
      "inputs": [],
      "name": "ERC721NotApprovedOrOwner",
      "type": "error"
    },
    {
      "inputs": [],
      "name": "ERC721TokenAlreadyMinted",
      "type": "error"
    },
    {
      "inputs": [],
      "name": "ERC721TransferFromIncorrectOwner",
      "type": "error"
    },
    {
      "inputs": [],
      "name": "ERC721TransferToNonReceiverImplementer",
      "type": "error"
    },
    {
      "inputs": [],
      "name": "ERC721TransferToTheZeroAddress",
      "type": "error"
    },
    {
      "inputs": [],
      "name": "NoAsterSoulOnGivenAddress",
      "type": "error"
    },
    {
      "inputs": [],
      "name": "RMRKApprovalForAssetsToCurrentOwner",
      "type": "error"
    },
    {
      "inputs": [],
      "name": "RMRKApproveForAssetsCallerIsNotOwnerNorApprovedForAll",
      "type": "error"
    },
    {
      "inputs": [],
      "name": "RMRKAssetAlreadyExists",
      "type": "error"
    },
    {
      "inputs": [],
      "name": "RMRKBadPriorityListLength",
      "type": "error"
    },
    {
      "inputs": [],
      "name": "RMRKCannotTransferSoulbound",
      "type": "error"
    },
    {
      "inputs": [],
      "name": "RMRKCatalogRequiredForParts",
      "type": "error"
    },
    {
      "inputs": [],
      "name": "RMRKChildAlreadyExists",
      "type": "error"
    },
    {
      "inputs": [],
      "name": "RMRKChildIndexOutOfRange",
      "type": "error"
    },
    {
      "inputs": [],
      "name": "RMRKEquippableEquipNotAllowedByCatalog",
      "type": "error"
    },
    {
      "inputs": [],
      "name": "RMRKIdZeroForbidden",
      "type": "error"
    },
    {
      "inputs": [],
      "name": "RMRKIndexOutOfRange",
      "type": "error"
    },
    {
      "inputs": [],
      "name": "RMRKIsNotContract",
      "type": "error"
    },
    {
      "inputs": [],
      "name": "RMRKMaxPendingAssetsReached",
      "type": "error"
    },
    {
      "inputs": [],
      "name": "RMRKMaxPendingChildrenReached",
      "type": "error"
    },
    {
      "inputs": [
        {
          "internalType": "address",
          "name": "childContract",
          "type": "address"
        },
        {
          "internalType": "uint256",
          "name": "childId",
          "type": "uint256"
        }
      ],
      "name": "RMRKMaxRecursiveBurnsReached",
      "type": "error"
    },
    {
      "inputs": [],
      "name": "RMRKMustUnequipFirst",
      "type": "error"
    },
    {
      "inputs": [],
      "name": "RMRKNestableTooDeep",
      "type": "error"
    },
    {
      "inputs": [],
      "name": "RMRKNestableTransferToDescendant",
      "type": "error"
    },
    {
      "inputs": [],
      "name": "RMRKNestableTransferToNonRMRKNestableImplementer",
      "type": "error"
    },
    {
      "inputs": [],
      "name": "RMRKNestableTransferToSelf",
      "type": "error"
    },
    {
      "inputs": [],
      "name": "RMRKNewContributorIsZeroAddress",
      "type": "error"
    },
    {
      "inputs": [],
      "name": "RMRKNewOwnerIsZeroAddress",
      "type": "error"
    },
    {
      "inputs": [],
      "name": "RMRKNoAssetMatchingId",
      "type": "error"
    },
    {
      "inputs": [],
      "name": "RMRKNotApprovedForAssetsOrOwner",
      "type": "error"
    },
    {
      "inputs": [],
      "name": "RMRKNotApprovedOrDirectOwner",
      "type": "error"
    },
    {
      "inputs": [],
      "name": "RMRKNotEquipped",
      "type": "error"
    },
    {
      "inputs": [],
      "name": "RMRKNotOwner",
      "type": "error"
    },
    {
      "inputs": [],
      "name": "RMRKNotOwnerOrContributor",
      "type": "error"
    },
    {
      "inputs": [],
      "name": "RMRKPendingChildIndexOutOfRange",
      "type": "error"
    },
    {
      "inputs": [],
      "name": "RMRKSlotAlreadyUsed",
      "type": "error"
    },
    {
      "inputs": [],
      "name": "RMRKTargetAssetCannotReceiveSlot",
      "type": "error"
    },
    {
      "inputs": [],
      "name": "RMRKTokenCannotBeEquippedWithAssetIntoSlot",
      "type": "error"
    },
    {
      "inputs": [],
      "name": "RMRKTokenDoesNotHaveAsset",
      "type": "error"
    },
    {
      "inputs": [],
      "name": "RMRKUnexpectedAssetId",
      "type": "error"
    },
    {
      "inputs": [],
      "name": "RMRKUnexpectedChildId",
      "type": "error"
    },
    {
      "inputs": [],
      "name": "RMRKUnexpectedNumberOfAssets",
      "type": "error"
    },
    {
      "inputs": [],
      "name": "RMRKUnexpectedNumberOfChildren",
      "type": "error"
    },
    {
      "inputs": [],
      "name": "RentrantCall",
      "type": "error"
    },
    {
      "anonymous": false,
      "inputs": [
        {
          "indexed": true,
          "internalType": "uint256",
          "name": "tokenId",
          "type": "uint256"
        }
      ],
      "name": "AllChildrenRejected",
      "type": "event"
    },
    {
      "anonymous": false,
      "inputs": [
        {
          "indexed": true,
          "internalType": "address",
          "name": "owner",
          "type": "address"
        },
        {
          "indexed": true,
          "internalType": "address",
          "name": "approved",
          "type": "address"
        },
        {
          "indexed": true,
          "internalType": "uint256",
          "name": "tokenId",
          "type": "uint256"
        }
      ],
      "name": "Approval",
      "type": "event"
    },
    {
      "anonymous": false,
      "inputs": [
        {
          "indexed": true,
          "internalType": "address",
          "name": "owner",
          "type": "address"
        },
        {
          "indexed": true,
          "internalType": "address",
          "name": "operator",
          "type": "address"
        },
        {
          "indexed": false,
          "internalType": "bool",
          "name": "approved",
          "type": "bool"
        }
      ],
      "name": "ApprovalForAll",
      "type": "event"
    },
    {
      "anonymous": false,
      "inputs": [
        {
          "indexed": true,
          "internalType": "address",
          "name": "owner",
          "type": "address"
        },
        {
          "indexed": true,
          "internalType": "address",
          "name": "operator",
          "type": "address"
        },
        {
          "indexed": false,
          "internalType": "bool",
          "name": "approved",
          "type": "bool"
        }
      ],
      "name": "ApprovalForAllForAssets",
      "type": "event"
    },
    {
      "anonymous": false,
      "inputs": [
        {
          "indexed": true,
          "internalType": "address",
          "name": "owner",
          "type": "address"
        },
        {
          "indexed": true,
          "internalType": "address",
          "name": "approved",
          "type": "address"
        },
        {
          "indexed": true,
          "internalType": "uint256",
          "name": "tokenId",
          "type": "uint256"
        }
      ],
      "name": "ApprovalForAssets",
      "type": "event"
    },
    {
      "anonymous": false,
      "inputs": [
        {
          "indexed": true,
          "internalType": "uint256",
          "name": "tokenId",
          "type": "uint256"
        },
        {
          "indexed": true,
          "internalType": "uint64",
          "name": "assetId",
          "type": "uint64"
        },
        {
          "indexed": true,
          "internalType": "uint64",
          "name": "replacesId",
          "type": "uint64"
        }
      ],
      "name": "AssetAccepted",
      "type": "event"
    },
    {
      "anonymous": false,
      "inputs": [
        {
          "indexed": false,
          "internalType": "uint256[]",
          "name": "tokenIds",
          "type": "uint256[]"
        },
        {
          "indexed": true,
          "internalType": "uint64",
          "name": "assetId",
          "type": "uint64"
        },
        {
          "indexed": true,
          "internalType": "uint64",
          "name": "replacesId",
          "type": "uint64"
        }
      ],
      "name": "AssetAddedToTokens",
      "type": "event"
    },
    {
      "anonymous": false,
      "inputs": [
        {
          "indexed": true,
          "internalType": "uint256",
          "name": "tokenId",
          "type": "uint256"
        }
      ],
      "name": "AssetPrioritySet",
      "type": "event"
    },
    {
      "anonymous": false,
      "inputs": [
        {
          "indexed": true,
          "internalType": "uint256",
          "name": "tokenId",
          "type": "uint256"
        },
        {
          "indexed": true,
          "internalType": "uint64",
          "name": "assetId",
          "type": "uint64"
        }
      ],
      "name": "AssetRejected",
      "type": "event"
    },
    {
      "anonymous": false,
      "inputs": [
        {
          "indexed": true,
          "internalType": "uint64",
          "name": "assetId",
          "type": "uint64"
        }
      ],
      "name": "AssetSet",
      "type": "event"
    },
    {
      "anonymous": false,
      "inputs": [
        {
          "indexed": true,
          "internalType": "uint256",
          "name": "tokenId",
          "type": "uint256"
        },
        {
          "indexed": false,
          "internalType": "uint256",
          "name": "childIndex",
          "type": "uint256"
        },
        {
          "indexed": true,
          "internalType": "address",
          "name": "childAddress",
          "type": "address"
        },
        {
          "indexed": true,
          "internalType": "uint256",
          "name": "childId",
          "type": "uint256"
        }
      ],
      "name": "ChildAccepted",
      "type": "event"
    },
    {
      "anonymous": false,
      "inputs": [
        {
          "indexed": true,
          "internalType": "uint256",
          "name": "tokenId",
          "type": "uint256"
        },
        {
          "indexed": true,
          "internalType": "uint64",
          "name": "assetId",
          "type": "uint64"
        },
        {
          "indexed": true,
          "internalType": "uint64",
          "name": "slotPartId",
          "type": "uint64"
        },
        {
          "indexed": false,
          "internalType": "uint256",
          "name": "childId",
          "type": "uint256"
        },
        {
          "indexed": false,
          "internalType": "address",
          "name": "childAddress",
          "type": "address"
        },
        {
          "indexed": false,
          "internalType": "uint64",
          "name": "childAssetId",
          "type": "uint64"
        }
      ],
      "name": "ChildAssetEquipped",
      "type": "event"
    },
    {
      "anonymous": false,
      "inputs": [
        {
          "indexed": true,
          "internalType": "uint256",
          "name": "tokenId",
          "type": "uint256"
        },
        {
          "indexed": true,
          "internalType": "uint64",
          "name": "assetId",
          "type": "uint64"
        },
        {
          "indexed": true,
          "internalType": "uint64",
          "name": "slotPartId",
          "type": "uint64"
        },
        {
          "indexed": false,
          "internalType": "uint256",
          "name": "childId",
          "type": "uint256"
        },
        {
          "indexed": false,
          "internalType": "address",
          "name": "childAddress",
          "type": "address"
        },
        {
          "indexed": false,
          "internalType": "uint64",
          "name": "childAssetId",
          "type": "uint64"
        }
      ],
      "name": "ChildAssetUnequipped",
      "type": "event"
    },
    {
      "anonymous": false,
      "inputs": [
        {
          "indexed": true,
          "internalType": "uint256",
          "name": "tokenId",
          "type": "uint256"
        },
        {
          "indexed": false,
          "internalType": "uint256",
          "name": "childIndex",
          "type": "uint256"
        },
        {
          "indexed": true,
          "internalType": "address",
          "name": "childAddress",
          "type": "address"
        },
        {
          "indexed": true,
          "internalType": "uint256",
          "name": "childId",
          "type": "uint256"
        }
      ],
      "name": "ChildProposed",
      "type": "event"
    },
    {
      "anonymous": false,
      "inputs": [
        {
          "indexed": true,
          "internalType": "uint256",
          "name": "tokenId",
          "type": "uint256"
        },
        {
          "indexed": false,
          "internalType": "uint256",
          "name": "childIndex",
          "type": "uint256"
        },
        {
          "indexed": true,
          "internalType": "address",
          "name": "childAddress",
          "type": "address"
        },
        {
          "indexed": true,
          "internalType": "uint256",
          "name": "childId",
          "type": "uint256"
        },
        {
          "indexed": false,
          "internalType": "bool",
          "name": "fromPending",
          "type": "bool"
        },
        {
          "indexed": false,
          "internalType": "bool",
          "name": "toZero",
          "type": "bool"
        }
      ],
      "name": "ChildTransferred",
      "type": "event"
    },
    {
      "anonymous": false,
      "inputs": [
        {
          "indexed": true,
          "internalType": "address",
          "name": "contributor",
          "type": "address"
        },
        {
          "indexed": false,
          "internalType": "bool",
          "name": "isContributor",
          "type": "bool"
        }
      ],
      "name": "ContributorUpdate",
      "type": "event"
    },
    {
      "anonymous": false,
      "inputs": [
        {
          "indexed": true,
          "internalType": "address",
          "name": "from",
          "type": "address"
        },
        {
          "indexed": true,
          "internalType": "address",
          "name": "to",
          "type": "address"
        },
        {
          "indexed": false,
          "internalType": "uint256",
          "name": "fromTokenId",
          "type": "uint256"
        },
        {
          "indexed": false,
          "internalType": "uint256",
          "name": "toTokenId",
          "type": "uint256"
        },
        {
          "indexed": true,
          "internalType": "uint256",
          "name": "tokenId",
          "type": "uint256"
        }
      ],
      "name": "NestTransfer",
      "type": "event"
    },
    {
      "anonymous": false,
      "inputs": [
        {
          "indexed": true,
          "internalType": "address",
          "name": "previousOwner",
          "type": "address"
        },
        {
          "indexed": true,
          "internalType": "address",
          "name": "newOwner",
          "type": "address"
        }
      ],
      "name": "OwnershipTransferred",
      "type": "event"
    },
    {
      "anonymous": false,
      "inputs": [
        {
          "indexed": true,
          "internalType": "address",
          "name": "from",
          "type": "address"
        },
        {
          "indexed": true,
          "internalType": "address",
          "name": "to",
          "type": "address"
        },
        {
          "indexed": true,
          "internalType": "uint256",
          "name": "tokenId",
          "type": "uint256"
        }
      ],
      "name": "Transfer",
      "type": "event"
    },
    {
      "anonymous": false,
      "inputs": [
        {
          "indexed": true,
          "internalType": "uint64",
          "name": "equippableGroupId",
          "type": "uint64"
        },
        {
          "indexed": true,
          "internalType": "uint64",
          "name": "slotPartId",
          "type": "uint64"
        },
        {
          "indexed": false,
          "internalType": "address",
          "name": "parentAddress",
          "type": "address"
        }
      ],
      "name": "ValidParentEquippableGroupIdSet",
      "type": "event"
    },
    {
      "inputs": [],
      "name": "RMRK_INTERFACE",
      "outputs": [
        {
          "internalType": "bytes4",
          "name": "",
          "type": "bytes4"
        }
      ],
      "stateMutability": "view",
      "type": "function"
    },
    {
      "inputs": [],
      "name": "VERSION",
      "outputs": [
        {
          "internalType": "string",
          "name": "",
          "type": "string"
        }
      ],
      "stateMutability": "view",
      "type": "function"
    },
    {
      "inputs": [
        {
          "internalType": "uint256",
          "name": "tokenId",
          "type": "uint256"
        },
        {
          "internalType": "uint256",
          "name": "index",
          "type": "uint256"
        },
        {
          "internalType": "uint64",
          "name": "assetId",
          "type": "uint64"
        }
      ],
      "name": "acceptAsset",
      "outputs": [],
      "stateMutability": "nonpayable",
      "type": "function"
    },
    {
      "inputs": [
        {
          "internalType": "uint256",
          "name": "parentId",
          "type": "uint256"
        },
        {
          "internalType": "uint256",
          "name": "childIndex",
          "type": "uint256"
        },
        {
          "internalType": "address",
          "name": "childAddress",
          "type": "address"
        },
        {
          "internalType": "uint256",
          "name": "childId",
          "type": "uint256"
        }
      ],
      "name": "acceptChild",
      "outputs": [],
      "stateMutability": "nonpayable",
      "type": "function"
    },
    {
      "inputs": [
        {
          "internalType": "uint256",
          "name": "tokenId",
          "type": "uint256"
        },
        {
          "internalType": "uint64",
          "name": "assetId",
          "type": "uint64"
        },
        {
          "internalType": "uint64",
          "name": "replacesAssetWithId",
          "type": "uint64"
        }
      ],
      "name": "addAssetToToken",
      "outputs": [],
      "stateMutability": "nonpayable",
      "type": "function"
    },
    {
      "inputs": [
        {
          "internalType": "uint256",
          "name": "parentId",
          "type": "uint256"
        },
        {
          "internalType": "uint256",
          "name": "childId",
          "type": "uint256"
        },
        {
          "internalType": "bytes",
          "name": "data",
          "type": "bytes"
        }
      ],
      "name": "addChild",
      "outputs": [],
      "stateMutability": "nonpayable",
      "type": "function"
    },
    {
      "inputs": [
        {
          "internalType": "uint64",
          "name": "equippableGroupId",
          "type": "uint64"
        },
        {
          "internalType": "address",
          "name": "catalogAddress",
          "type": "address"
        },
        {
          "internalType": "string",
          "name": "metadataURI",
          "type": "string"
        },
        {
          "internalType": "uint64[]",
          "name": "partIds",
          "type": "uint64[]"
        }
      ],
      "name": "addEquippableAssetEntry",
      "outputs": [
        {
          "internalType": "uint256",
          "name": "",
          "type": "uint256"
        }
      ],
      "stateMutability": "nonpayable",
      "type": "function"
    },
    {
      "inputs": [],
      "name": "amountLimitPerUser",
      "outputs": [
        {
          "internalType": "uint256",
          "name": "",
          "type": "uint256"
        }
      ],
      "stateMutability": "view",
      "type": "function"
    },
    {
      "inputs": [
        {
          "internalType": "address",
          "name": "to",
          "type": "address"
        },
        {
          "internalType": "uint256",
          "name": "tokenId",
          "type": "uint256"
        }
      ],
      "name": "approve",
      "outputs": [],
      "stateMutability": "nonpayable",
      "type": "function"
    },
    {
      "inputs": [
        {
          "internalType": "address",
          "name": "to",
          "type": "address"
        },
        {
          "internalType": "uint256",
          "name": "tokenId",
          "type": "uint256"
        }
      ],
      "name": "approveForAssets",
      "outputs": [],
      "stateMutability": "nonpayable",
      "type": "function"
    },
    {
      "inputs": [
        {
          "internalType": "address",
          "name": "owner",
          "type": "address"
        }
      ],
      "name": "balanceOf",
      "outputs": [
        {
          "internalType": "uint256",
          "name": "",
          "type": "uint256"
        }
      ],
      "stateMutability": "view",
      "type": "function"
    },
    {
      "inputs": [
        {
          "internalType": "uint256",
          "name": "tokenId",
          "type": "uint256"
        }
      ],
      "name": "burn",
      "outputs": [],
      "stateMutability": "nonpayable",
      "type": "function"
    },
    {
      "inputs": [
        {
          "internalType": "uint256",
          "name": "tokenId",
          "type": "uint256"
        },
        {
          "internalType": "uint256",
          "name": "maxChildrenBurns",
          "type": "uint256"
        }
      ],
      "name": "burn",
      "outputs": [
        {
          "internalType": "uint256",
          "name": "",
          "type": "uint256"
        }
      ],
      "stateMutability": "nonpayable",
      "type": "function"
    },
    {
      "inputs": [
        {
          "internalType": "address",
          "name": "parent",
          "type": "address"
        },
        {
          "internalType": "uint256",
          "name": "tokenId",
          "type": "uint256"
        },
        {
          "internalType": "uint64",
          "name": "assetId",
          "type": "uint64"
        },
        {
          "internalType": "uint64",
          "name": "slotId",
          "type": "uint64"
        }
      ],
      "name": "canTokenBeEquippedWithAssetIntoSlot",
      "outputs": [
        {
          "internalType": "bool",
          "name": "",
          "type": "bool"
        }
      ],
      "stateMutability": "view",
      "type": "function"
    },
    {
      "inputs": [
        {
          "internalType": "uint256",
          "name": "parentId",
          "type": "uint256"
        },
        {
          "internalType": "uint256",
          "name": "index",
          "type": "uint256"
        }
      ],
      "name": "childOf",
      "outputs": [
        {
          "components": [
            {
              "internalType": "uint256",
              "name": "tokenId",
              "type": "uint256"
            },
            {
              "internalType": "address",
              "name": "contractAddress",
              "type": "address"
            }
          ],
          "internalType": "struct IERC6059.Child",
          "name": "",
          "type": "tuple"
        }
      ],
      "stateMutability": "view",
      "type": "function"
    },
    {
      "inputs": [
        {
          "internalType": "uint256",
          "name": "parentId",
          "type": "uint256"
        }
      ],
      "name": "childrenOf",
      "outputs": [
        {
          "components": [
            {
              "internalType": "uint256",
              "name": "tokenId",
              "type": "uint256"
            },
            {
              "internalType": "address",
              "name": "contractAddress",
              "type": "address"
            }
          ],
          "internalType": "struct IERC6059.Child[]",
          "name": "",
          "type": "tuple[]"
        }
      ],
      "stateMutability": "view",
      "type": "function"
    },
    {
      "inputs": [
        {
          "internalType": "uint256",
          "name": "tokenId",
          "type": "uint256"
        }
      ],
      "name": "directOwnerOf",
      "outputs": [
        {
          "internalType": "address",
          "name": "",
          "type": "address"
        },
        {
          "internalType": "uint256",
          "name": "",
          "type": "uint256"
        },
        {
          "internalType": "bool",
          "name": "",
          "type": "bool"
        }
      ],
      "stateMutability": "view",
      "type": "function"
    },
    {
      "inputs": [
        {
          "components": [
            {
              "internalType": "uint256",
              "name": "tokenId",
              "type": "uint256"
            },
            {
              "internalType": "uint256",
              "name": "childIndex",
              "type": "uint256"
            },
            {
              "internalType": "uint64",
              "name": "assetId",
              "type": "uint64"
            },
            {
              "internalType": "uint64",
              "name": "slotPartId",
              "type": "uint64"
            },
            {
              "internalType": "uint64",
              "name": "childAssetId",
              "type": "uint64"
            }
          ],
          "internalType": "struct IERC6220.IntakeEquip",
          "name": "data",
          "type": "tuple"
        }
      ],
      "name": "equip",
      "outputs": [],
      "stateMutability": "nonpayable",
      "type": "function"
    },
    {
      "inputs": [
        {
          "internalType": "uint256",
          "name": "tokenId",
          "type": "uint256"
        }
      ],
      "name": "getActiveAssetPriorities",
      "outputs": [
        {
          "internalType": "uint64[]",
          "name": "",
          "type": "uint64[]"
        }
      ],
      "stateMutability": "view",
      "type": "function"
    },
    {
      "inputs": [
        {
          "internalType": "uint256",
          "name": "tokenId",
          "type": "uint256"
        }
      ],
      "name": "getActiveAssets",
      "outputs": [
        {
          "internalType": "uint64[]",
          "name": "",
          "type": "uint64[]"
        }
      ],
      "stateMutability": "view",
      "type": "function"
    },
    {
      "inputs": [
        {
          "internalType": "uint256",
          "name": "tokenId",
          "type": "uint256"
        }
      ],
      "name": "getApproved",
      "outputs": [
        {
          "internalType": "address",
          "name": "",
          "type": "address"
        }
      ],
      "stateMutability": "view",
      "type": "function"
    },
    {
      "inputs": [
        {
          "internalType": "uint256",
          "name": "tokenId",
          "type": "uint256"
        }
      ],
      "name": "getApprovedForAssets",
      "outputs": [
        {
          "internalType": "address",
          "name": "",
          "type": "address"
        }
      ],
      "stateMutability": "view",
      "type": "function"
    },
    {
      "inputs": [
        {
          "internalType": "uint256",
          "name": "tokenId",
          "type": "uint256"
        },
        {
          "internalType": "uint64",
          "name": "assetId",
          "type": "uint64"
        }
      ],
      "name": "getAssetAndEquippableData",
      "outputs": [
        {
          "internalType": "string",
          "name": "",
          "type": "string"
        },
        {
          "internalType": "uint64",
          "name": "",
          "type": "uint64"
        },
        {
          "internalType": "address",
          "name": "",
          "type": "address"
        },
        {
          "internalType": "uint64[]",
          "name": "",
          "type": "uint64[]"
        }
      ],
      "stateMutability": "view",
      "type": "function"
    },
    {
      "inputs": [
        {
          "internalType": "uint256",
          "name": "tokenId",
          "type": "uint256"
        },
        {
          "internalType": "uint64",
          "name": "assetId",
          "type": "uint64"
        }
      ],
      "name": "getAssetMetadata",
      "outputs": [
        {
          "internalType": "string",
          "name": "",
          "type": "string"
        }
      ],
      "stateMutability": "view",
      "type": "function"
    },
    {
      "inputs": [
        {
          "internalType": "uint256",
          "name": "tokenId",
          "type": "uint256"
        },
        {
          "internalType": "uint64",
          "name": "newAssetId",
          "type": "uint64"
        }
      ],
      "name": "getAssetReplacements",
      "outputs": [
        {
          "internalType": "uint64",
          "name": "",
          "type": "uint64"
        }
      ],
      "stateMutability": "view",
      "type": "function"
    },
    {
      "inputs": [
        {
          "internalType": "uint256",
          "name": "tokenId",
          "type": "uint256"
        },
        {
          "internalType": "address",
          "name": "targetCatalogAddress",
          "type": "address"
        },
        {
          "internalType": "uint64",
          "name": "slotPartId",
          "type": "uint64"
        }
      ],
      "name": "getEquipment",
      "outputs": [
        {
          "components": [
            {
              "internalType": "uint64",
              "name": "assetId",
              "type": "uint64"
            },
            {
              "internalType": "uint64",
              "name": "childAssetId",
              "type": "uint64"
            },
            {
              "internalType": "uint256",
              "name": "childId",
              "type": "uint256"
            },
            {
              "internalType": "address",
              "name": "childEquippableAddress",
              "type": "address"
            }
          ],
          "internalType": "struct IERC6220.Equipment",
          "name": "",
          "type": "tuple"
        }
      ],
      "stateMutability": "view",
      "type": "function"
    },
    {
      "inputs": [
        {
          "internalType": "uint256",
          "name": "tokenId",
          "type": "uint256"
        }
      ],
      "name": "getPendingAssets",
      "outputs": [
        {
          "internalType": "uint64[]",
          "name": "",
          "type": "uint64[]"
        }
      ],
      "stateMutability": "view",
      "type": "function"
    },
    {
      "inputs": [
        {
          "internalType": "address",
          "name": "owner",
          "type": "address"
        },
        {
          "internalType": "address",
          "name": "operator",
          "type": "address"
        }
      ],
      "name": "isApprovedForAll",
      "outputs": [
        {
          "internalType": "bool",
          "name": "",
          "type": "bool"
        }
      ],
      "stateMutability": "view",
      "type": "function"
    },
    {
      "inputs": [
        {
          "internalType": "address",
          "name": "owner",
          "type": "address"
        },
        {
          "internalType": "address",
          "name": "operator",
          "type": "address"
        }
      ],
      "name": "isApprovedForAllForAssets",
      "outputs": [
        {
          "internalType": "bool",
          "name": "",
          "type": "bool"
        }
      ],
      "stateMutability": "view",
      "type": "function"
    },
    {
      "inputs": [
        {
          "internalType": "uint256",
          "name": "tokenId",
          "type": "uint256"
        },
        {
          "internalType": "address",
          "name": "childAddress",
          "type": "address"
        },
        {
          "internalType": "uint256",
          "name": "childId",
          "type": "uint256"
        }
      ],
      "name": "isChildEquipped",
      "outputs": [
        {
          "internalType": "bool",
          "name": "",
          "type": "bool"
        }
      ],
      "stateMutability": "view",
      "type": "function"
    },
    {
      "inputs": [
        {
          "internalType": "address",
          "name": "contributor",
          "type": "address"
        }
      ],
      "name": "isContributor",
      "outputs": [
        {
          "internalType": "bool",
          "name": "",
          "type": "bool"
        }
      ],
      "stateMutability": "view",
      "type": "function"
    },
    {
      "inputs": [
        {
          "internalType": "uint256",
          "name": "",
          "type": "uint256"
        },
        {
          "internalType": "address",
          "name": "from",
          "type": "address"
        },
        {
          "internalType": "address",
          "name": "to",
          "type": "address"
        }
      ],
      "name": "isTransferable",
      "outputs": [
        {
          "internalType": "bool",
          "name": "",
          "type": "bool"
        }
      ],
      "stateMutability": "view",
      "type": "function"
    },
    {
      "inputs": [
        {
          "internalType": "address",
          "name": "contributor",
          "type": "address"
        },
        {
          "internalType": "bool",
          "name": "grantRole",
          "type": "bool"
        }
      ],
      "name": "manageContributor",
      "outputs": [],
      "stateMutability": "nonpayable",
      "type": "function"
    },
    {
      "inputs": [
        {
          "internalType": "address",
          "name": "to",
          "type": "address"
        }
      ],
      "name": "mint",
      "outputs": [
        {
          "internalType": "uint256",
          "name": "",
          "type": "uint256"
        }
      ],
      "stateMutability": "nonpayable",
      "type": "function"
    },
    {
      "inputs": [],
      "name": "name",
      "outputs": [
        {
          "internalType": "string",
          "name": "",
          "type": "string"
        }
      ],
      "stateMutability": "view",
      "type": "function"
    },
    {
      "inputs": [
        {
          "internalType": "address",
          "name": "from",
          "type": "address"
        },
        {
          "internalType": "address",
          "name": "to",
          "type": "address"
        },
        {
          "internalType": "uint256",
          "name": "tokenId",
          "type": "uint256"
        },
        {
          "internalType": "uint256",
          "name": "destinationId",
          "type": "uint256"
        },
        {
          "internalType": "bytes",
          "name": "data",
          "type": "bytes"
        }
      ],
      "name": "nestTransferFrom",
      "outputs": [],
      "stateMutability": "nonpayable",
      "type": "function"
    },
    {
      "inputs": [],
      "name": "owner",
      "outputs": [
        {
          "internalType": "address",
          "name": "",
          "type": "address"
        }
      ],
      "stateMutability": "view",
      "type": "function"
    },
    {
      "inputs": [
        {
          "internalType": "uint256",
          "name": "tokenId",
          "type": "uint256"
        }
      ],
      "name": "ownerOf",
      "outputs": [
        {
          "internalType": "address",
          "name": "",
          "type": "address"
        }
      ],
      "stateMutability": "view",
      "type": "function"
    },
    {
      "inputs": [
        {
          "internalType": "address",
          "name": "owner",
          "type": "address"
        }
      ],
      "name": "ownerToTokenId",
      "outputs": [
        {
          "internalType": "uint256",
          "name": "",
          "type": "uint256"
        }
      ],
      "stateMutability": "view",
      "type": "function"
    },
    {
      "inputs": [
        {
          "internalType": "uint256",
          "name": "parentId",
          "type": "uint256"
        },
        {
          "internalType": "uint256",
          "name": "index",
          "type": "uint256"
        }
      ],
      "name": "pendingChildOf",
      "outputs": [
        {
          "components": [
            {
              "internalType": "uint256",
              "name": "tokenId",
              "type": "uint256"
            },
            {
              "internalType": "address",
              "name": "contractAddress",
              "type": "address"
            }
          ],
          "internalType": "struct IERC6059.Child",
          "name": "",
          "type": "tuple"
        }
      ],
      "stateMutability": "view",
      "type": "function"
    },
    {
      "inputs": [
        {
          "internalType": "uint256",
          "name": "parentId",
          "type": "uint256"
        }
      ],
      "name": "pendingChildrenOf",
      "outputs": [
        {
          "components": [
            {
              "internalType": "uint256",
              "name": "tokenId",
              "type": "uint256"
            },
            {
              "internalType": "address",
              "name": "contractAddress",
              "type": "address"
            }
          ],
          "internalType": "struct IERC6059.Child[]",
          "name": "",
          "type": "tuple[]"
        }
      ],
      "stateMutability": "view",
      "type": "function"
    },
    {
      "inputs": [
        {
          "internalType": "uint256",
          "name": "tokenId",
          "type": "uint256"
        },
        {
          "internalType": "uint256",
          "name": "maxRejections",
          "type": "uint256"
        }
      ],
      "name": "rejectAllAssets",
      "outputs": [],
      "stateMutability": "nonpayable",
      "type": "function"
    },
    {
      "inputs": [
        {
          "internalType": "uint256",
          "name": "tokenId",
          "type": "uint256"
        },
        {
          "internalType": "uint256",
          "name": "maxRejections",
          "type": "uint256"
        }
      ],
      "name": "rejectAllChildren",
      "outputs": [],
      "stateMutability": "nonpayable",
      "type": "function"
    },
    {
      "inputs": [
        {
          "internalType": "uint256",
          "name": "tokenId",
          "type": "uint256"
        },
        {
          "internalType": "uint256",
          "name": "index",
          "type": "uint256"
        },
        {
          "internalType": "uint64",
          "name": "assetId",
          "type": "uint64"
        }
      ],
      "name": "rejectAsset",
      "outputs": [],
      "stateMutability": "nonpayable",
      "type": "function"
    },
    {
      "inputs": [],
      "name": "renounceOwnership",
      "outputs": [],
      "stateMutability": "nonpayable",
      "type": "function"
    },
    {
      "inputs": [
        {
          "internalType": "address",
          "name": "from",
          "type": "address"
        },
        {
          "internalType": "address",
          "name": "to",
          "type": "address"
        },
        {
          "internalType": "uint256",
          "name": "tokenId",
          "type": "uint256"
        }
      ],
      "name": "safeTransferFrom",
      "outputs": [],
      "stateMutability": "nonpayable",
      "type": "function"
    },
    {
      "inputs": [
        {
          "internalType": "address",
          "name": "from",
          "type": "address"
        },
        {
          "internalType": "address",
          "name": "to",
          "type": "address"
        },
        {
          "internalType": "uint256",
          "name": "tokenId",
          "type": "uint256"
        },
        {
          "internalType": "bytes",
          "name": "data",
          "type": "bytes"
        }
      ],
      "name": "safeTransferFrom",
      "outputs": [],
      "stateMutability": "nonpayable",
      "type": "function"
    },
    {
      "inputs": [
        {
          "internalType": "uint256",
          "name": "amountLimitPerUser_",
          "type": "uint256"
        }
      ],
      "name": "setAmountLimitPerUser",
      "outputs": [],
      "stateMutability": "nonpayable",
      "type": "function"
    },
    {
      "inputs": [
        {
          "internalType": "address",
          "name": "operator",
          "type": "address"
        },
        {
          "internalType": "bool",
          "name": "approved",
          "type": "bool"
        }
      ],
      "name": "setApprovalForAll",
      "outputs": [],
      "stateMutability": "nonpayable",
      "type": "function"
    },
    {
      "inputs": [
        {
          "internalType": "address",
          "name": "operator",
          "type": "address"
        },
        {
          "internalType": "bool",
          "name": "approved",
          "type": "bool"
        }
      ],
      "name": "setApprovalForAllForAssets",
      "outputs": [],
      "stateMutability": "nonpayable",
      "type": "function"
    },
    {
      "inputs": [
        {
          "internalType": "uint256",
          "name": "tokenId",
          "type": "uint256"
        },
        {
          "internalType": "uint64[]",
          "name": "priorities",
          "type": "uint64[]"
        }
      ],
      "name": "setPriority",
      "outputs": [],
      "stateMutability": "nonpayable",
      "type": "function"
    },
    {
      "inputs": [
        {
          "internalType": "bytes4",
          "name": "interfaceId",
          "type": "bytes4"
        }
      ],
      "name": "supportsInterface",
      "outputs": [
        {
          "internalType": "bool",
          "name": "",
          "type": "bool"
        }
      ],
      "stateMutability": "view",
      "type": "function"
    },
    {
      "inputs": [],
      "name": "symbol",
      "outputs": [
        {
          "internalType": "string",
          "name": "",
          "type": "string"
        }
      ],
      "stateMutability": "view",
      "type": "function"
    },
    {
      "inputs": [],
      "name": "totalAssets",
      "outputs": [
        {
          "internalType": "uint256",
          "name": "",
          "type": "uint256"
        }
      ],
      "stateMutability": "view",
      "type": "function"
    },
    {
      "inputs": [],
      "name": "totalSupply",
      "outputs": [
        {
          "internalType": "uint256",
          "name": "",
          "type": "uint256"
        }
      ],
      "stateMutability": "view",
      "type": "function"
    },
    {
      "inputs": [
        {
          "internalType": "uint256",
          "name": "tokenId",
          "type": "uint256"
        },
        {
          "internalType": "address",
          "name": "to",
          "type": "address"
        },
        {
          "internalType": "uint256",
          "name": "destinationId",
          "type": "uint256"
        },
        {
          "internalType": "uint256",
          "name": "childIndex",
          "type": "uint256"
        },
        {
          "internalType": "address",
          "name": "childAddress",
          "type": "address"
        },
        {
          "internalType": "uint256",
          "name": "childId",
          "type": "uint256"
        },
        {
          "internalType": "bool",
          "name": "isPending",
          "type": "bool"
        },
        {
          "internalType": "bytes",
          "name": "data",
          "type": "bytes"
        }
      ],
      "name": "transferChild",
      "outputs": [],
      "stateMutability": "nonpayable",
      "type": "function"
    },
    {
      "inputs": [
        {
          "internalType": "address",
          "name": "from",
          "type": "address"
        },
        {
          "internalType": "address",
          "name": "to",
          "type": "address"
        },
        {
          "internalType": "uint256",
          "name": "tokenId",
          "type": "uint256"
        }
      ],
      "name": "transferFrom",
      "outputs": [],
      "stateMutability": "nonpayable",
      "type": "function"
    },
    {
      "inputs": [
        {
          "internalType": "address",
          "name": "newOwner",
          "type": "address"
        }
      ],
      "name": "transferOwnership",
      "outputs": [],
      "stateMutability": "nonpayable",
      "type": "function"
    },
    {
      "inputs": [
        {
          "internalType": "uint256",
          "name": "tokenId",
          "type": "uint256"
        },
        {
          "internalType": "uint64",
          "name": "assetId",
          "type": "uint64"
        },
        {
          "internalType": "uint64",
          "name": "slotPartId",
          "type": "uint64"
        }
      ],
      "name": "unequip",
      "outputs": [],
      "stateMutability": "nonpayable",
      "type": "function"
    }
  ],
  "bytecode": "0x60806040526001601d553480156200001657600080fd5b50604051620050eb380380620050eb833981016040819052620000399162000192565b60016000558181818181816200004f336200007b565b60036200005d83826200028b565b5060046200006c82826200028b565b50505050505050505062000357565b600180546001600160a01b038381166001600160a01b0319831681179093556040519116919082907f8be0079c531659141344cd1fd0a4f28419497f9722a3daafe3b4186f6b6457e090600090a35050565b634e487b7160e01b600052604160045260246000fd5b600082601f830112620000f557600080fd5b81516001600160401b0380821115620001125762000112620000cd565b604051601f8301601f19908116603f011681019082821181831017156200013d576200013d620000cd565b816040528381526020925086838588010111156200015a57600080fd5b600091505b838210156200017e57858201830151818301840152908201906200015f565b600093810190920192909252949350505050565b60008060408385031215620001a657600080fd5b82516001600160401b0380821115620001be57600080fd5b620001cc86838701620000e3565b93506020850151915080821115620001e357600080fd5b50620001f285828601620000e3565b9150509250929050565b600181811c908216806200021157607f821691505b6020821081036200023257634e487b7160e01b600052602260045260246000fd5b50919050565b601f8211156200028657600081815260208120601f850160051c81016020861015620002615750805b601f850160051c820191505b8181101562000282578281556001016200026d565b5050505b505050565b81516001600160401b03811115620002a757620002a7620000cd565b620002bf81620002b88454620001fc565b8462000238565b602080601f831160018114620002f75760008415620002de5750858301515b600019600386901b1c1916600185901b17855562000282565b600085815260208120601f198616915b82811015620003285788860151825594840194600190910190840162000307565b5085821015620003475787850151600019600388901b60f8161c191681555b5050505050600190811b01905550565b614d8480620003676000396000f3fe608060405234801561001057600080fd5b50600436106103995760003560e01c80636f19951c116101e9578063b390c0ab1161010f578063e7de4de4116100ad578063f2fde38b1161007c578063f2fde38b14610955578063fb25fb7a14610968578063fc3517c8146109a2578063ffa1ad74146109b557600080fd5b8063e7de4de4146108dd578063e97ceaa8146108f0578063e985e9c514610903578063ee1dffcf1461091657600080fd5b8063de8e602c116100e9578063de8e602c14610855578063defa80c314610868578063df6f556b1461087b578063e467a48f146108ca57600080fd5b8063b390c0ab1461081c578063b88d4fde1461082f578063c259a9881461084257600080fd5b80638d4f3bf511610187578063979613361161015657806397961336146107db578063a0dd3137146107ee578063a22cb465146107f6578063a898e3641461080957600080fd5b80638d4f3bf5146107885780638da5cb5b146107af57806391a6262f146107c057806395d89b41146107d357600080fd5b80637280281e116101c35780637280281e146106685780637507e2ae1461067b57806379e8ca9e146107625780638507dc281461077557600080fd5b80636f19951c1461063a57806370a082311461064d578063715018a61461066057600080fd5b80632f32f937116102ce5780634e60edba1161026c5780635ea72f361161023b5780635ea72f36146105ee5780636352211e14610601578063635490cc146106145780636a6278421461062757600080fd5b80634e60edba1461058557806351532e5a146105a85780635e2e3292146105c85780635e94354a146105db57600080fd5b806342842e0e116102a857806342842e0e1461052c57806342966c681461053f57806344ec9344146105525780634814f0351461057257600080fd5b80632f32f937146104e6578063319217f11461050657806338dcf74c1461051957600080fd5b806318160ddd1161033b57806322e6d1601161031557806322e6d1601461049a57806322f6da9c146104ad57806323b872dd146104c05780632452cd91146104d357600080fd5b806318160ddd146104535780631c7bb4611461045b5780631d0d35f51461046e57600080fd5b806306fdde031161037757806306fdde03146103ed578063074334fb14610402578063081812fc14610415578063095ea7b31461044057600080fd5b806301e1d1141461039e57806301ffc9a7146103b5578063064c0a3a146103d8575b600080fd5b601c545b6040519081526020015b60405180910390f35b6103c86103c33660046140fd565b6109d9565b60405190151581526020016103ac565b6103eb6103e63660046141e1565b610a04565b005b6103f5610a23565b6040516103ac919061429c565b6103c86104103660046142cb565b610ab5565b61042861042336600461431a565b610b2f565b6040516001600160a01b0390911681526020016103ac565b6103eb61044e366004614333565b610b75565b601b546103a2565b6103eb61046936600461435f565b610c01565b6103c861047c36600461439b565b6001600160a01b031660009081526002602052604090205460011490565b6103c86104a83660046143b8565b610c53565b6103eb6104bb3660046143f1565b610c81565b6103eb6104ce36600461441d565b610c9c565b6103a26104e13660046144a2565b610cc1565b6104f96104f4366004614546565b610d23565b6040516103ac9190614568565b6103eb61051436600461431a565b610dbc565b6103eb610527366004614588565b610dc9565b6103eb61053a36600461441d565b610dee565b6103eb61054d36600461431a565b610e09565b61056561056036600461431a565b610e18565b6040516103ac9190614609565b6103a261058036600461439b565b610e97565b610598610593366004614669565b610eeb565b6040516103ac94939291906146d9565b6105bb6105b636600461431a565b610fc8565b6040516103ac9190614727565b6103f56105d6366004614669565b61105c565b6105bb6105e936600461431a565b61114b565b6103eb6105fc366004614333565b6111b4565b61042861060f36600461431a565b61123b565b6103eb61062236600461473a565b6112cb565b6103a261063536600461439b565b6113dd565b61056561064836600461431a565b611497565b6103a261065b36600461439b565b611507565b6103eb61154c565b6105bb61067636600461431a565b611560565b610718610689366004614789565b6040805160808082018352600080835260208084018290528385018290526060938401829052968152601787528381206001600160a01b03968716825287528381206001600160401b03958616825287528390208351918201845280548086168352600160401b9004909416958101959095526001830154918501919091526002909101549091169082015290565b6040516103ac919081516001600160401b03908116825260208084015190911690820152604080830151908201526060918201516001600160a01b03169181019190915260800190565b6103eb6107703660046147be565b6115c9565b6103eb6107833660046147be565b611686565b61079663524d524b60e01b81565b6040516001600160e01b031990911681526020016103ac565b6001546001600160a01b0316610428565b6103c86107ce3660046147ec565b61171c565b6103f561179c565b6103eb6107e9366004614546565b6117ab565b601d546103a2565b6103eb6108043660046147be565b6117bf565b6104f9610817366004614546565b61184d565b6103a261082a366004614546565b6118aa565b6103eb61083d36600461482e565b6118c0565b6103eb61085036600461435f565b6118dd565b6103eb610863366004614899565b6118f2565b6103eb6108763660046148e4565b611907565b6108b2610889366004614669565b6000918252600d602090815260408084206001600160401b039384168552909152909120541690565b6040516001600160401b0390911681526020016103ac565b6104286108d836600461431a565b61192c565b6103eb6108eb366004614546565b61194f565b6103eb6108fe36600461497f565b611963565b6103c86109113660046143b8565b61196f565b6103c86109243660046149be565b60009283526018602090815260408085206001600160a01b0394909416855292815282842091845252902054151590565b6103eb61096336600461439b565b61199d565b61097b61097636600461431a565b6119d8565b604080516001600160a01b03909416845260208401929092521515908201526060016103ac565b6103eb6109b03660046143f1565b611a40565b6103f560405180604001604052806005815260200164312e322e3160d81b81525081565b60006391a6262f60e01b6001600160e01b0319831614806109fe57506109fe82611a55565b92915050565b82610a0e81611a9b565b610a1b8686868686611ac2565b505050505050565b606060038054610a32906149e5565b80601f0160208091040260200160405190810160405280929190818152602001828054610a5e906149e5565b8015610aab5780601f10610a8057610100808354040283529160200191610aab565b820191906000526020600020905b815481529060010190602001808311610a8e57829003601f168201915b5050505050905090565b6001600160401b038083166000908152601560209081526040808320548416808452601983528184206001600160a01b038a1685529092528220549192909181169084168103610b20576000610b1486610b0e89611560565b90611cab565b9450610b279350505050565b6000925050505b949350505050565b6000610b3a82611d14565b600082815260066020526040812090610b528461123b565b6001600160a01b0390811682526020820192909252604001600020541692915050565b6000610b808261123b565b9050806001600160a01b0316836001600160a01b031603610bb457604051630591db6d60e01b815260040160405180910390fd5b336001600160a01b03821614801590610bd45750610bd2813361196f565b155b15610bf257604051634c12315960e11b815260040160405180910390fd5b610bfc8383611d4c565b505050565b610c09611dc5565b610c14838383611e04565b610c1d8361123b565b6001600160a01b03163303610bfc576000838152600f6020526040902054610bfc908490610c4d90600190614a35565b84611ffa565b6001600160a01b03918216600090815260126020908152604080832093909416825291909152205460ff1690565b82610c8b8161223a565b610c96848484612261565b50505050565b80610ca681611a9b565b610c96848484604051806020016040528060008152506122d0565b6000610ccb611dc5565b601c8054600101908190556040805160208086028281018201909352858252610d1693928a928a928a928a918a91829185019084908082843760009201919091525061241592505050565b50601c5495945050505050565b604080518082019091526000808252602082015281610d4184611497565b5111610d605760405163653e642560e11b815260040160405180910390fd5b6000838152600960205260408120805484908110610d8057610d80614a48565b60009182526020918290206040805180820190915260029092020180548252600101546001600160a01b03169181019190915291505092915050565b610dc4611dc5565b601d55565b8051610dd4816124bc565b610ddc6124e3565b610de58261250d565b50506001600055565b610bfc838383604051806020016040528060008152506118c0565b610e148160006118aa565b5050565b6000818152600a60209081526040808320805482518185028101850190935280835260609493849084015b82821015610e8b5760008481526020908190206040805180820190915260028502909101805482526001908101546001600160a01b0316828401529083529092019101610e43565b50929695505050505050565b6001600160a01b0381166000908152601a60205260408120548103610ecf5760405163a2191e1760e01b815260040160405180910390fd5b506001600160a01b03166000908152601a602052604090205490565b60606000806060610efc868661105c565b6001600160401b0380871660009081526015602090815260408083205460148352818420546016845293829020805483518186028101860190945280845291909516946001600160a01b039094169392839190830182828015610fb057602002820191906000526020600020906000905b82829054906101000a90046001600160401b03166001600160401b031681526020019060080190602082600701049283019260010382029150808411610f6d5790505b50505050509050935093509350935092959194509250565b6000818152600f602090815260409182902080548351818402810184019094528084526060939283018282801561105057602002820191906000526020600020906000905b82829054906101000a90046001600160401b03166001600160401b03168152602001906008019060208260070104928301926001038202915080841161100d5790505b50505050509050919050565b60008281526011602090815260408083206001600160401b038516845290915290205460609060ff166110a257604051631b9928fd60e31b815260040160405180910390fd5b6001600160401b0382166000908152600c6020526040902080546110c5906149e5565b80601f01602080910402602001604051908101604052809291908181526020018280546110f1906149e5565b801561113e5780601f106111135761010080835404028352916020019161113e565b820191906000526020600020905b81548152906001019060200180831161112157829003601f168201915b5050505050905092915050565b60008181526010602090815260409182902080548351818402810184019094528084526060939283018282801561105057600091825260209182902080546001600160401b0316845290820283019290916008910180841161100d575094979650505050505050565b60006111bf8261123b565b9050806001600160a01b0316836001600160a01b0316036111f3576040516375f45abd60e01b815260040160405180910390fd5b336001600160a01b0382161480159061121357506112118133610c53565b155b15611231576040516357a2e94960e11b815260040160405180910390fd5b610bfc8383612879565b60008060008061124a856119d8565b92509250925080156112c2576040516331a9108f60e11b8152600481018390526001600160a01b03841690636352211e90602401602060405180830381865afa15801561129b573d6000803e3d6000fd5b505050506040513d601f19601f820116820180604052508101906112bf9190614a5e565b92505b50909392505050565b6112d483611d14565b33803b6112f45760405163b9d3114760e01b815260040160405180910390fd5b604080518082019091528381526001600160a01b0382166020820152600061131b86610e18565b519050608081101561137a576000868152600a60209081526040822080546001808201835591845292829020855160029094020192835590840151910180546001600160a01b0319166001600160a01b03909216919091179055611393565b60405163a53c8c0560e01b815260040160405180910390fd5b84836001600160a01b0316877fe65085e689b77b126ba0bac3b079aa8288f19f4d5445af11c76003f8ab3075dd846040516113d091815260200190565b60405180910390a4610a1b565b6000601d546113eb83611507565b1061140957604051633f6f033960e21b815260040160405180910390fd5b6000611414601b5490565b61141f906001614a7b565b6001600160a01b0384166000908152601a602090815260408083208490558051918201905290815290915061145790849083906128f2565b6114648160016000611e04565b6000818152600f602052604090205461148c90829061148590600190614a35565b6001611ffa565b601b81905592915050565b6000818152600960209081526040808320805482518185028101850190935280835260609493849084018215610e8b5760008481526020908190206040805180820190915260028502909101805482526001908101546001600160a01b0316828401529083529092019101610e43565b60006001600160a01b03821661153057604051633bb9143360e11b815260040160405180910390fd5b506001600160a01b031660009081526005602052604090205490565b611554612927565b61155e6000612952565b565b6000818152600e602090815260409182902080548351818402810184019094528084526060939283018282801561105057600091825260209182902080546001600160401b0316845290820283019290916008910180841161100d575094979650505050505050565b6115d1612927565b6001600160a01b0382166115f85760405163016b812760e71b815260040160405180910390fd5b8061161d576001600160a01b038216600090815260026020526040812081905561163c565b6001600160a01b03821660009081526002602052604090206001908190555b50816001600160a01b03167f4b5657e84cf8a17ac5587bbeb3cc2bab9826c4c67b8bad81b4849de49d37aac28260405161167a911515815260200190565b60405180910390a25050565b6001600160a01b03821633036116af576040516375f45abd60e01b815260040160405180910390fd5b3360008181526012602090815260408083206001600160a01b03871680855290835292819020805460ff191686151590811790915590519081529192917f0cff4fcf777050010027190b8061fd8bfd1de16d81b1f94e9752df1427a2623591015b60405180910390a35050565b60006001600160a01b038316158061173b57506001600160a01b038216155b8061175e57506001600160a01b0383166000908152600260205260409020546001145b80610b2757506001600160a01b0382166000908152600260205260409020546001148015610b275750506001600160a01b0391821691161415919050565b606060048054610a32906149e5565b816117b5816124bc565b610bfc83836129a4565b6001600160a01b03821633036117e857604051630b7b99b960e21b815260040160405180910390fd5b3360008181526007602090815260408083206001600160a01b03871680855290835292819020805460ff191686151590811790915590519081529192917f17307eab39ab6107e8899845ad3d59bd9653f200f220920489ca2b5937696c319101611710565b60408051808201909152600080825260208201528161186b84610e18565b511161188a5760405163da22687f60e01b815260040160405180910390fd5b6000838152600a60205260408120805484908110610d8057610d80614a48565b6000826118b681611a9b565b610b278484612a19565b816118ca81611a9b565b6118d685858585612d76565b5050505050565b826118e7816124bc565b610c96848484612dab565b826118fc8161223a565b610c96848484612f5d565b87611911816124bc565b6119218989898989898989612fd7565b505050505050505050565b600061193782611d14565b600082815260136020526040812090610b528461123b565b816119598161223a565b610bfc838361303f565b610c9684848484613137565b6001600160a01b03918216600090815260076020908152604080832093909416825291909152205460ff1690565b6119a5612927565b6001600160a01b0381166119cc57604051634ece6ecf60e01b815260040160405180910390fd5b6119d581612952565b50565b6000818152600860209081526040808320815180830190925280548252600101546001600160a01b03169181018290528291829190611a2a5760405163089ba7e160e41b815260040160405180910390fd5b6020810151905190959094508415159350915050565b82611a4a8161223a565b610c96848484611ffa565b6000611a608261314d565b80611a7b57506001600160e01b0319821663035a194d60e11b145b806109fe57506001600160e01b03198216630a2f26b960e21b1492915050565b611aa533826131b9565b6119d5576040516345f3c98360e11b815260040160405180910390fd5b600080611ace856119d8565b5091509150866001600160a01b0316826001600160a01b031614611b055760405163e146af6f60e01b815260040160405180910390fd5b6001600160a01b038616611b2c576040516338f646ff60e21b815260040160405180910390fd5b6001600160a01b03861630148015611b4357508385145b15611b6157604051633d76b10760e01b815260040160405180910390fd5b6001600160a01b0386163b611b895760405163b9d3114760e01b815260040160405180910390fd5b6040516301ffc9a760e01b81526342b0e56f60e01b60048201526001600160a01b038716906301ffc9a790602401602060405180830381865afa158015611bd4573d6000803e3d6000fd5b505050506040513d601f19601f82011682018060405250810190611bf89190614a8e565b611c1557604051631784ec7360e21b815260040160405180910390fd5b611c2085878661323c565b611c2b87878761332d565b6001600160a01b0387166000908152600560205260408120805460019290611c54908490614a35565b90915550611c659050858588613388565b6001600160a01b0386166000908152600560205260408120805460019290611c8e908490614a7b565b90915550611ca290508287838789886133e7565b50505050505050565b81516000908190815b81811015611d0357846001600160401b0316868281518110611cd857611cd8614a48565b60200260200101516001600160401b031603611cfb57925060019150611d0d9050565b600101611cb4565b5060008092509250505b9250929050565b6000818152600860205260409020600101546001600160a01b03166119d55760405163089ba7e160e41b815260040160405180910390fd5b6000611d578261123b565b60008381526006602090815260408083206001600160a01b038581168086529190935281842080546001600160a01b031916938916938417905590519394508593919290917f8c5be1e5ebec7d5bd14f71427d1e84f3dd0314c0f7b2291e5b200ac8c7c3b9259190a4505050565b6001546001600160a01b03163314801590611de65750611de43361047c565b155b1561155e576040516301eca16760e41b815260040160405180910390fd5b60008381526011602090815260408083206001600160401b038616845290915290205460ff1615611e48576040516308fe3c3160e41b815260040160405180910390fd5b6001600160401b0382166000908152600c602052604081208054611e6b906149e5565b905003611e8b57604051632aa5eff960e11b815260040160405180910390fd5b6000838152600f6020526040902054608011611eba5760405163bade3a7b60e01b815260040160405180910390fd5b60008381526011602090815260408083206001600160401b038681168086529184528285208054600160ff199091168117909155888652600f8552928520805493840181558552929093206004820401805460039092166008026101000a808402199092169190930217909155811615611f68576000838152600d602090815260408083206001600160401b0386811685529252909120805467ffffffffffffffff19169183169190911790555b604080516001808252818301909252600091602080830190803683370190505090508381600081518110611f9e57611f9e614a48565b602002602001018181525050816001600160401b0316836001600160401b03167f4a85a0221f784dbe75db7c29c422f474c15bde9211a98e50a30018fa8dfa937b83604051611fed9190614aab565b60405180910390a3610c96565b6120058383836134c4565b6000838152600d602090815260408083206001600160401b038086168552925282205416908082156120dd576120d783600e60008981526020019081526020016000208054806020026020016040519081016040528092919081815260200182805480156120c457602002820191906000526020600020906000905b82829054906101000a90046001600160401b03166001600160401b0316815260200190600801906020826007010492830192600103820291508084116120815790505b5050505050611cab90919063ffffffff16565b90925090505b801561215e576000868152600e6020526040902080548591908490811061210657612106614a48565b600091825260208083206004830401805460039093166008026101000a6001600160401b038181021990941695841602949094179093558882526011835260408083209187168352925220805460ff191690556121e9565b6000868152601060209081526040808320600e83529083208054825460018181018555938652848620600480830490910180546001600160401b0394851660086003958616810261010090810a9283029288021990931691909117909255855496870186559488529587209085040180548b84169590921690950290920a9283029202191617905592505b6121f486868661356c565b826001600160401b0316846001600160401b0316877f3f2709a99f6c06b4e57bbb38eb0134332f96f51a3da314f41a515adbb28b17cc60405160405180910390a4610a1b565b61224433826135ba565b6119d557604051635d64832960e01b815260040160405180910390fd5b61226c8383836134c4565b61227783838361356c565b60008381526011602090815260408083206001600160401b0385168085529252808320805460ff1916905551909185917f1010837a46db9510cad56c9b63e97183557a136e9d4ddbec309ce52c99afb1249190a3505050565b6000806122dc846119d8565b5091509150856001600160a01b0316826001600160a01b0316146123135760405163e146af6f60e01b815260040160405180910390fd5b6001600160a01b03851661233a576040516338f646ff60e21b815260040160405180910390fd5b61234586868661332d565b6001600160a01b038616600090815260056020526040812080546001929061236e908490614a35565b90915550612380905084600087613388565b6001600160a01b03851660009081526005602052604081208054600192906123a9908490614a7b565b909155505060405184906001600160a01b038088169190891690600080516020614d2f83398151915290600090a483856001600160a01b0316836001600160a01b0316600080516020614d0f8339815191528460006040516113d0929190918252602082015260400190565b61241f8583613618565b6001600160a01b0383161580156124365750805115155b1561245457604051631035ad0760e11b815260040160405180910390fd5b6001600160401b03858116600090815260146020908152604080832080546001600160a01b0319166001600160a01b03891617905560158252808320805467ffffffffffffffff191694891694909417909355601681529190208251610a1b92840190613f35565b6124c633826136de565b6119d5576040516302728a9d60e41b815260040160405180910390fd5b600260005403612506576040516362bfeae960e11b815260040160405180910390fd5b6002600055565b6040808201516001600160401b0390811660009081526014602090815283822054606086015186518452601783528584206001600160a01b0392831680865290845286852095821685529490925293909120600201549192909116156125865760405163bd0650ab60e01b815260040160405180910390fd5b61259483604001518261372a565b60006125a884600001518560200151610d23565b60208101518151608087015160405163074334fb60e01b815230600482015260248101929092526001600160401b039081166044830152851660648201529192506001600160a01b03169063074334fb90608401602060405180830381865afa158015612619573d6000803e3d6000fd5b505050506040513d601f19601f8201168201806040525081019061263d9190614a8e565b61265a57604051632c36cd3360e01b815260040160405180910390fd5b6020810151604051636e5bceab60e11b81526001600160401b03841660048201526001600160a01b0391821660248201529084169063dcb79d5690604401602060405180830381865afa1580156126b5573d6000803e3d6000fd5b505050506040513d601f19601f820116820180604052508101906126d99190614a8e565b6126f657604051637228eff560e11b815260040160405180910390fd5b6040805160808082018352868301516001600160401b0390811683529087015181166020808401918252855184860190815286820180516001600160a01b03908116606088019081528c516000908152601786528981208d8416825286528981208c8916825286528981208951815498518a16600160401b026001600160801b031990991699169890981796909617875592516001808801919091559251600290960180549682166001600160a01b0319909716969096179095558a51845260188352868420905190941683529281528482208651835290529283208054929391929091906127e6908490614a7b565b92505081905550826001600160401b031685604001516001600160401b031686600001517f1f5de02b1d9c93ca468f54630e1daf13f6dc458a63f8061ff73e85bf9bc38884856000015186602001518a6080015160405161286c939291909283526001600160a01b039190911660208301526001600160401b0316604082015260600190565b60405180910390a46118d6565b60006128848261123b565b60008381526013602090815260408083206001600160a01b038581168086529190935281842080546001600160a01b031916938916938417905590519394508593919290917fb90cc0d925ac3511ab6af2d7ca73ffcf7ec4bd871fff36b958ecf440079c463e9190a4505050565b6128fd8383836137ca565b61290a6000848484613838565b610bfc5760405163bcb5663760e01b815260040160405180910390fd5b6001546001600160a01b0316331461155e57604051631c62d58f60e11b815260040160405180910390fd5b600180546001600160a01b038381166001600160a01b0319831681179093556040519116919082907f8be0079c531659141344cd1fd0a4f28419497f9722a3daafe3b4186f6b6457e090600090a35050565b6000828152600a60205260409020548110156129d357604051631e73178b60e11b815260040160405180910390fd5b6000828152600a602052604081206129ea91613fed565b60405182907f8ac4a0d65950c3e40448afb2260e2e0ec36ea15644d9b39e37e85472e5f9445190600090a25050565b6000806000612a27856119d8565b50915091506000612a378661123b565b6001600160a01b03841660009081526005602052604081208054929350600192909190612a65908490614a35565b90915550612a7790508160008861332d565b604080516020810190915260009052612a91600087611d4c565b612a9a86613934565b6000612aa587611497565b6000888152600960205260408120919250612ac09190613fed565b6000878152600a60205260408120612ad791613fed565b60008781526006602090815260408083206001600160a01b0386168452909152812080546001600160a01b031916905581518190815b81811015612cdc57898310612b8657848181518110612b2e57612b2e614a48565b602002602001015160200151858281518110612b4c57612b4c614a48565b6020908102919091010151516040516306177b2560e41b81526001600160a01b039092166004830152602482015260440160405180910390fd5b600b6000868381518110612b9c57612b9c614a48565b6020026020010151602001516001600160a01b03166001600160a01b031681526020019081526020016000206000868381518110612bdc57612bdc614a48565b602002602001015160000151815260200190815260200160002060009055828a039350848181518110612c1157612c11614a48565b6020026020010151602001516001600160a01b031663b390c0ab868381518110612c3d57612c3d614a48565b602002602001015160000151600187612c569190614a35565b6040516001600160e01b031960e085901b168152600481019290925260248201526044016020604051808303816000875af1158015612c99573d6000803e3d6000fd5b505050506040513d601f19601f82011682018060405250810190612cbd9190614aef565b612cc8906001614a7b565b612cd29084614a7b565b9250600101612b0d565b5060008a81526008602052604080822082815560010180546001600160a01b0319169055518b91906001600160a01b03881690600080516020614d2f833981519152908390a4604080518781526000602082018190528c9290916001600160a01b038b1691600080516020614d0f833981519152910160405180910390a46040805160208101909152600090525098975050505050505050565b612d82848484846122d0565b612d8e84848484613838565b610c965760405163bcb5663760e01b815260040160405180910390fd5b6001600160401b03808316600090815260146020908152604080832054878452601783528184206001600160a01b039182168086529084528285208787168652845293829020825160808101845281548088168252600160401b9004909616938601939093526001830154918501919091526002909101541660608301819052909190612e4b576040516317de7dd760e21b815260040160405180910390fd5b60008581526017602090815260408083206001600160a01b0380871685529083528184206001600160401b0388168552835281842080546001600160801b03191681556001808201869055600290910180546001600160a01b031916905589855260188452828520606087015190921685529083528184208583015185529092528220805491929091612edf908490614a35565b92505081905550826001600160401b0316846001600160401b0316867f438e039ebbba8f290f3b5d41aaf3295eccc9b5e6b0e1d52ace700772afb7da1384604001518560600151866020015160405161286c939291909283526001600160a01b039190911660208301526001600160401b0316604082015260600190565b6000838152600e602052604090205481908114612f8d57604051633581be1d60e11b815260040160405180910390fd5b6000848152601060205260409020612fa690848461400e565b5060405184907ff0bfd70b0068f973d58178846ca67112671ec45e060838f7de5662036bcf801790600090a2610c96565b816130255760008881526018602090815260408083206001600160a01b038816845282528083208684529091529020541561302557604051630619dc9d60e21b815260040160405180910390fd5b613035888888888888888861393f565b5050505050505050565b6000828152600f60205260409020548181111561306f57604051635134ce8960e01b815260040160405180910390fd5b60005b818110156130ed576000848152600f6020526040812080548390811061309a5761309a614a48565b60009182526020808320600483040154888452600d8252604080852060039094166008026101000a9091046001600160401b031684529190529020805467ffffffffffffffff1916905550600101613072565b506000838152600f602052604081206131059161408a565b60405160009084907f1010837a46db9510cad56c9b63e97183557a136e9d4ddbec309ce52c99afb124908390a3505050565b83613141816124bc565b6118d685858585613b20565b60006001600160e01b031982166301ffc9a760e01b148061317e57506001600160e01b031982166380ac58cd60e01b145b8061319957506001600160e01b03198216635b5e139f60e01b145b806109fe57506001600160e01b031982166342b0e56f60e01b1492915050565b60008060006131c7846119d8565b5091509150806000146131ea57506001600160a01b0384811691161490506109fe565b816001600160a01b0316856001600160a01b0316148061320f575061320f828661196f565b806132335750846001600160a01b031661322885610b2f565b6001600160a01b0316145b95945050505050565b60005b6064811015613313576000806000856001600160a01b031663fb25fb7a866040518263ffffffff1660e01b815260040161327b91815260200190565b606060405180830381865afa158015613298573d6000803e3d6000fd5b505050506040513d601f19601f820116820180604052508101906132bc9190614b08565b925092509250806132d05750505050505050565b6001600160a01b038316301480156132e757508682145b15613305576040516324543e6d60e11b815260040160405180910390fd5b50909350915060010161323f565b50604051630349a6bd60e51b815260040160405180910390fd5b61333881848461171c565b6133555760405163792fac8360e11b815260040160405180910390fd5b613360838383613c26565b6001600160a01b039283166000908152601a6020526040808220829055929093168352912055565b6040805180820182528381526001600160a01b038381166020808401918252600088815260089091529384209251835551600190920180546001600160a01b031916929091169190911790556133de9084611d4c565b610bfc83613934565b6040516318d5243360e21b815285906001600160a01b0382169063635490cc9061341990879087908790600401614b40565b600060405180830381600087803b15801561343357600080fd5b505af1158015613447573d6000803e3d6000fd5b5050505082866001600160a01b0316886001600160a01b0316600080516020614d2f83398151915260405160405180910390a482866001600160a01b0316886001600160a01b0316600080516020614d0f83398151915288886040516134b7929190918252602082015260400190565b60405180910390a4611ca2565b6000838152600f602052604090205482106134f257604051630757d52160e01b815260040160405180910390fd5b6000838152600f6020526040902080548390811061351257613512614a48565b90600052602060002090600491828204019190066008029054906101000a90046001600160401b03166001600160401b0316816001600160401b031614610bfc576040516378eeeecf60e01b815260040160405180910390fd5b6000838152600f602052604090206135849083613c4e565b6000928352600d602090815260408085206001600160401b039093168552919052909120805467ffffffffffffffff1916905550565b6000806135c68361123b565b9050806001600160a01b0316846001600160a01b031614806135ed57506135ed8185610c53565b80610b275750836001600160a01b03166136068461192c565b6001600160a01b031614949350505050565b6001600160401b03821661363f576040516312c33ce360e01b815260040160405180910390fd5b6001600160401b0382166000908152600c602052604081208054613662906149e5565b90501115613683576040516308fe3c3160e41b815260040160405180910390fd5b6001600160401b0382166000908152600c602052604090206136a58282614ba5565b506040516001600160401b038316907f3cd061096eaf881067d936308fbd8b81d060c45ab2ec910c02b953162befc10990600090a25050565b6000806136ea8361123b565b9050806001600160a01b0316846001600160a01b031614806137115750613711818561196f565b80610b275750836001600160a01b031661360684610b2f565b6001600160401b038216600090815260166020908152604080832080548251818502810185019093528083526137a99386939291908301828280156120c457600091825260209182902080546001600160401b031684529082028301929091600891018084116120815790505050505050611cab90919063ffffffff16565b91505080610bfc57604051634ef44ed560e01b815260040160405180910390fd5b6137d78383600084613d34565b60405182906001600160a01b03851690600090600080516020614d2f833981519152908290a46040805160008082526020820181905284926001600160a01b03871692600080516020614d0f833981519152910160405180910390a4505050565b60006001600160a01b0384163b1561392c57604051630a85bd0160e11b81526001600160a01b0385169063150b7a029061387c903390899088908890600401614c64565b6020604051808303816000875af19250505080156138b7575060408051601f3d908101601f191682019092526138b491810190614ca1565b60015b613912573d8080156138e5576040519150601f19603f3d011682016040523d82523d6000602084013e6138ea565b606091505b50805161390a5760405163bcb5663760e01b815260040160405180910390fd5b805181602001fd5b6001600160e01b031916630a85bd0160e11b149050610b27565b506001610b27565b6119d5600082612879565b6040805180820190915260008082526020820152821561396a57613963898761184d565b9050613977565b6139748987610d23565b90505b613982818686613e37565b82156139a5576000898152600a602052604090206139a09087613e7b565b6139df565b6001600160a01b0385166000908152600b6020908152604080832087845282528083208390558b8352600990915290206139df9087613e7b565b6001600160a01b03881615613ac95786613a5c57604051635c46a7ef60e11b81526001600160a01b0386169063b88d4fde90613a259030908c9089908890600401614c64565b600060405180830381600087803b158015613a3f57600080fd5b505af1158015613a53573d6000803e3d6000fd5b50505050613ac9565b60208101518151604051630326051d60e11b81526001600160a01b039092169163064c0a3a91613a969130918d918d908990600401614cbe565b600060405180830381600087803b158015613ab057600080fd5b505af1158015613ac4573d6000803e3d6000fd5b505050505b6040805187815284151560208201526001600160a01b038a81161582840152915186928816918c917f02d6d6dbcb604d5e1e8c7886456e82a9cdce88b0a580071358f206b5a4d58f709181900360600190a4611921565b6000613b2c858561184d565b9050613b39818484613e37565b6001600160a01b0383166000908152600b6020908152604080832085845290915290205415613b7b5760405163188a497360e01b815260040160405180910390fd5b6000858152600a60205260409020613b939085613e7b565b600085815260096020908152604080832080546001808201835591855283852086516002909202019081558584015190820180546001600160a01b0319166001600160a01b039283161790558716808552600b8452828520878652845293829020555186815284929188917f29486b9e2ae569b440933a9b1b421467306fa21f3dcad439c262910a634963a9910161286c565b613c3181848461171c565b610bfc5760405163792fac8360e11b815260040160405180910390fd5b81548110613c5b57600080fd5b81548290613c6b90600190614a35565b81548110613c7b57613c7b614a48565b90600052602060002090600491828204019190066008029054906101000a90046001600160401b0316828281548110613cb657613cb6614a48565b90600052602060002090600491828204019190066008026101000a8154816001600160401b0302191690836001600160401b0316021790555081805480613cff57613cff614cf8565b60008281526020902060046000199092019182040180546001600160401b03600860038516026101000a021916905590555050565b6001600160a01b038416613d5b576040516325bd6bd360e01b815260040160405180910390fd5b6000838152600860205260409020600101546001600160a01b031615613d945760405163c5a8d37160e01b815260040160405180910390fd5b82613db2576040516312c33ce360e01b815260040160405180910390fd5b613dbe6000858561332d565b6001600160a01b0384166000908152600560205260408120805460019290613de7908490614a7b565b90915550506040805180820182529283526001600160a01b039485166020808501918252600095865260089052932091518255509051600190910180546001600160a01b03191691909216179055565b82602001516001600160a01b0316826001600160a01b0316141580613e5d575082518114155b15610bfc57604051637383f2c160e11b815260040160405180910390fd5b81548290613e8b90600190614a35565b81548110613e9b57613e9b614a48565b9060005260206000209060020201828281548110613ebb57613ebb614a48565b600091825260209091208254600290920201908155600191820154910180546001600160a01b0319166001600160a01b039092169190911790558154829080613f0657613f06614cf8565b60008281526020812060026000199093019283020190815560010180546001600160a01b031916905590555050565b82805482825590600052602060002090600301600490048101928215613fdd5791602002820160005b83821115613fa857835183826101000a8154816001600160401b0302191690836001600160401b031602179055509260200192600801602081600701049283019260010302613f5e565b8015613fdb5782816101000a8154906001600160401b030219169055600801602081600701049283019260010302613fa8565b505b50613fe99291506140ab565b5090565b50805460008255600202906000526020600020908101906119d591906140c0565b82805482825590600052602060002090600301600490048101928215613fdd5791602002820160005b83821115613fa85783356001600160401b031683826101000a8154816001600160401b0302191690836001600160401b031602179055509260200192600801602081600701049283019260010302614037565b5080546000825560030160049004906000526020600020908101906119d591905b5b80821115613fe957600081556001016140ac565b5b80821115613fe957600081556001810180546001600160a01b03191690556002016140c1565b6001600160e01b0319811681146119d557600080fd5b60006020828403121561410f57600080fd5b813561411a816140e7565b9392505050565b6001600160a01b03811681146119d557600080fd5b634e487b7160e01b600052604160045260246000fd5b60006001600160401b038084111561416657614166614136565b604051601f8501601f19908116603f0116810190828211818310171561418e5761418e614136565b816040528093508581528686860111156141a757600080fd5b858560208301376000602087830101525050509392505050565b600082601f8301126141d257600080fd5b61411a8383356020850161414c565b600080600080600060a086880312156141f957600080fd5b853561420481614121565b9450602086013561421481614121565b9350604086013592506060860135915060808601356001600160401b0381111561423d57600080fd5b614249888289016141c1565b9150509295509295909350565b6000815180845260005b8181101561427c57602081850181015186830182015201614260565b506000602082860101526020601f19601f83011685010191505092915050565b60208152600061411a6020830184614256565b80356001600160401b03811681146142c657600080fd5b919050565b600080600080608085870312156142e157600080fd5b84356142ec81614121565b935060208501359250614301604086016142af565b915061430f606086016142af565b905092959194509250565b60006020828403121561432c57600080fd5b5035919050565b6000806040838503121561434657600080fd5b823561435181614121565b946020939093013593505050565b60008060006060848603121561437457600080fd5b83359250614384602085016142af565b9150614392604085016142af565b90509250925092565b6000602082840312156143ad57600080fd5b813561411a81614121565b600080604083850312156143cb57600080fd5b82356143d681614121565b915060208301356143e681614121565b809150509250929050565b60008060006060848603121561440657600080fd5b8335925060208401359150614392604085016142af565b60008060006060848603121561443257600080fd5b833561443d81614121565b9250602084013561444d81614121565b929592945050506040919091013590565b60008083601f84011261447057600080fd5b5081356001600160401b0381111561448757600080fd5b6020830191508360208260051b8501011115611d0d57600080fd5b6000806000806000608086880312156144ba57600080fd5b6144c3866142af565b945060208601356144d381614121565b935060408601356001600160401b03808211156144ef57600080fd5b818801915088601f83011261450357600080fd5b6145128983356020850161414c565b9450606088013591508082111561452857600080fd5b506145358882890161445e565b969995985093965092949392505050565b6000806040838503121561455957600080fd5b50508035926020909101359150565b815181526020808301516001600160a01b031690820152604081016109fe565b600060a0828403121561459a57600080fd5b60405160a081018181106001600160401b03821117156145bc576145bc614136565b806040525082358152602083013560208201526145db604084016142af565b60408201526145ec606084016142af565b60608201526145fd608084016142af565b60808201529392505050565b602080825282518282018190526000919060409081850190868401855b8281101561465c5761464c848351805182526020908101516001600160a01b0316910152565b9284019290850190600101614626565b5091979650505050505050565b6000806040838503121561467c57600080fd5b8235915061468c602084016142af565b90509250929050565b600081518084526020808501945080840160005b838110156146ce5781516001600160401b0316875295820195908201906001016146a9565b509495945050505050565b6080815260006146ec6080830187614256565b6001600160401b03861660208401526001600160a01b0385166040840152828103606084015261471c8185614695565b979650505050505050565b60208152600061411a6020830184614695565b60008060006060848603121561474f57600080fd5b833592506020840135915060408401356001600160401b0381111561477357600080fd5b61477f868287016141c1565b9150509250925092565b60008060006060848603121561479e57600080fd5b83359250602084013561438481614121565b80151581146119d557600080fd5b600080604083850312156147d157600080fd5b82356147dc81614121565b915060208301356143e6816147b0565b60008060006060848603121561480157600080fd5b83359250602084013561481381614121565b9150604084013561482381614121565b809150509250925092565b6000806000806080858703121561484457600080fd5b843561484f81614121565b9350602085013561485f81614121565b92506040850135915060608501356001600160401b0381111561488157600080fd5b61488d878288016141c1565b91505092959194509250565b6000806000604084860312156148ae57600080fd5b8335925060208401356001600160401b038111156148cb57600080fd5b6148d78682870161445e565b9497909650939450505050565b600080600080600080600080610100898b03121561490157600080fd5b88359750602089013561491381614121565b96506040890135955060608901359450608089013561493181614121565b935060a0890135925060c0890135614948816147b0565b915060e08901356001600160401b0381111561496357600080fd5b61496f8b828c016141c1565b9150509295985092959890939650565b6000806000806080858703121561499557600080fd5b843593506020850135925060408501356149ae81614121565b9396929550929360600135925050565b6000806000606084860312156149d357600080fd5b83359250602084013561444d81614121565b600181811c908216806149f957607f821691505b602082108103614a1957634e487b7160e01b600052602260045260246000fd5b50919050565b634e487b7160e01b600052601160045260246000fd5b818103818111156109fe576109fe614a1f565b634e487b7160e01b600052603260045260246000fd5b600060208284031215614a7057600080fd5b815161411a81614121565b808201808211156109fe576109fe614a1f565b600060208284031215614aa057600080fd5b815161411a816147b0565b6020808252825182820181905260009190848201906040850190845b81811015614ae357835183529284019291840191600101614ac7565b50909695505050505050565b600060208284031215614b0157600080fd5b5051919050565b600080600060608486031215614b1d57600080fd5b8351614b2881614121565b602085015160408601519194509250614823816147b0565b8381528260208201526060604082015260006132336060830184614256565b601f821115610bfc57600081815260208120601f850160051c81016020861015614b865750805b601f850160051c820191505b81811015610a1b57828155600101614b92565b81516001600160401b03811115614bbe57614bbe614136565b614bd281614bcc84546149e5565b84614b5f565b602080601f831160018114614c075760008415614bef5750858301515b600019600386901b1c1916600185901b178555610a1b565b600085815260208120601f198616915b82811015614c3657888601518255948401946001909101908401614c17565b5085821015614c545787850151600019600388901b60f8161c191681555b5050505050600190811b01905550565b6001600160a01b0385811682528416602082015260408101839052608060608201819052600090614c9790830184614256565b9695505050505050565b600060208284031215614cb357600080fd5b815161411a816140e7565b6001600160a01b03868116825285166020820152604081018490526060810183905260a06080820181905260009061471c90830184614256565b634e487b7160e01b600052603160045260246000fdfe04444026cefd1b05506559cab59d1b865ae3ba4ed2fe5c894f04e522776c552dddf252ad1be2c89b69c2b068fc378daa952ba7f163c4a11628f55a4df523b3efa2646970667358221220eab4e42c96234d97a9eb23a997d91615096797fd3b14ba42caa732258fdffa6f64736f6c63430008120033",
  "linkReferences": {},
  "deployedLinkReferences": {}
}