{
  "address": "0x82e38D1E0C12B374656Ad61c77ed93bB55FA4C48",
  "abi": [
    {
      "inputs": [
        {
          "internalType": "string",
          "name": "_name",
          "type": "string"
        },
        {
          "internalType": "string",
          "name": "_version",
          "type": "string"
        },
        {
          "internalType": "address",
          "name": "_signer",
          "type": "address"
        }
      ],
      "stateMutability": "nonpayable",
      "type": "constructor"
    },
    {
      "inputs": [],
      "name": "AlreadyMinted",
      "type": "error"
    },
    {
      "inputs": [],
      "name": "InvalidSignature",
      "type": "error"
    },
    {
      "anonymous": false,
      "inputs": [
        {
          "indexed": false,
          "internalType": "uint256",
          "name": "cId",
          "type": "uint256"
        },
        {
          "indexed": false,
          "internalType": "uint256",
          "name": "nftId",
          "type": "uint256"
        },
        {
          "indexed": false,
          "internalType": "bytes32",
          "name": "signId",
          "type": "bytes32"
        },
        {
          "indexed": true,
          "internalType": "address",
          "name": "nft",
          "type": "address"
        },
        {
          "indexed": false,
          "internalType": "address",
          "name": "mintTo",
          "type": "address"
        }
      ],
      "name": "Claim",
      "type": "event"
    },
    {
      "anonymous": false,
      "inputs": [
        {
          "indexed": false,
          "internalType": "uint256",
          "name": "cId",
          "type": "uint256"
        },
        {
          "indexed": false,
          "internalType": "uint256[]",
          "name": "nftIds",
          "type": "uint256[]"
        },
        {
          "indexed": false,
          "internalType": "bytes32[]",
          "name": "signIds",
          "type": "bytes32[]"
        },
        {
          "indexed": true,
          "internalType": "address",
          "name": "nft",
          "type": "address"
        },
        {
          "indexed": false,
          "internalType": "address",
          "name": "mintTo",
          "type": "address"
        }
      ],
      "name": "ClaimBatch",
      "type": "event"
    },
    {
      "anonymous": false,
      "inputs": [
        {
          "indexed": true,
          "internalType": "address",
          "name": "previousOwner",
          "type": "address"
        },
        {
          "indexed": true,
          "internalType": "address",
          "name": "newOwner",
          "type": "address"
        }
      ],
      "name": "OwnershipTransferred",
      "type": "event"
    },
    {
      "inputs": [],
      "name": "NFTCLAIMBATCH_TYPEHASH",
      "outputs": [
        {
          "internalType": "bytes32",
          "name": "",
          "type": "bytes32"
        }
      ],
      "stateMutability": "view",
      "type": "function"
    },
    {
      "inputs": [],
      "name": "NFTCLAIM_TYPEHASH",
      "outputs": [
        {
          "internalType": "bytes32",
          "name": "",
          "type": "bytes32"
        }
      ],
      "stateMutability": "view",
      "type": "function"
    },
    {
      "inputs": [],
      "name": "adminSigner",
      "outputs": [
        {
          "internalType": "address",
          "name": "",
          "type": "address"
        }
      ],
      "stateMutability": "view",
      "type": "function"
    },
    {
      "inputs": [
        {
          "internalType": "uint256",
          "name": "_cId",
          "type": "uint256"
        },
        {
          "internalType": "contract IAsterBadge",
          "name": "_nft",
          "type": "address"
        },
        {
          "internalType": "bytes32",
          "name": "_signId",
          "type": "bytes32"
        },
        {
          "internalType": "address",
          "name": "_mintTo",
          "type": "address"
        },
        {
          "internalType": "bytes",
          "name": "_signature",
          "type": "bytes"
        }
      ],
      "name": "claim",
      "outputs": [],
      "stateMutability": "nonpayable",
      "type": "function"
    },
    {
      "inputs": [
        {
          "internalType": "uint256",
          "name": "_cId",
          "type": "uint256"
        },
        {
          "internalType": "contract IAsterBadge",
          "name": "_nft",
          "type": "address"
        },
        {
          "internalType": "bytes32[]",
          "name": "_signIds",
          "type": "bytes32[]"
        },
        {
          "internalType": "address",
          "name": "_mintTo",
          "type": "address"
        },
        {
          "internalType": "bytes",
          "name": "_signature",
          "type": "bytes"
        }
      ],
      "name": "claimBatch",
      "outputs": [],
      "stateMutability": "nonpayable",
      "type": "function"
    },
    {
      "inputs": [
        {
          "internalType": "bytes32",
          "name": "",
          "type": "bytes32"
        }
      ],
      "name": "hasMinted",
      "outputs": [
        {
          "internalType": "bool",
          "name": "",
          "type": "bool"
        }
      ],
      "stateMutability": "view",
      "type": "function"
    },
    {
      "inputs": [],
      "name": "owner",
      "outputs": [
        {
          "internalType": "address",
          "name": "",
          "type": "address"
        }
      ],
      "stateMutability": "view",
      "type": "function"
    },
    {
      "inputs": [],
      "name": "renounceOwnership",
      "outputs": [],
      "stateMutability": "nonpayable",
      "type": "function"
    },
    {
      "inputs": [
        {
          "internalType": "address",
          "name": "newOwner",
          "type": "address"
        }
      ],
      "name": "transferOwnership",
      "outputs": [],
      "stateMutability": "nonpayable",
      "type": "function"
    },
    {
      "inputs": [
        {
          "internalType": "address",
          "name": "_signer",
          "type": "address"
        }
      ],
      "name": "updateAdminSigner",
      "outputs": [],
      "stateMutability": "nonpayable",
      "type": "function"
    },
    {
      "inputs": [
        {
          "internalType": "uint256",
          "name": "_cId",
          "type": "uint256"
        },
        {
          "internalType": "contract IAsterBadge",
          "name": "_nft",
          "type": "address"
        },
        {
          "internalType": "bytes32",
          "name": "_signId",
          "type": "bytes32"
        },
        {
          "internalType": "address",
          "name": "_mintTo",
          "type": "address"
        },
        {
          "internalType": "bytes",
          "name": "_signature",
          "type": "bytes"
        }
      ],
      "name": "verifyClaim",
      "outputs": [
        {
          "internalType": "bool",
          "name": "",
          "type": "bool"
        }
      ],
      "stateMutability": "view",
      "type": "function"
    },
    {
      "inputs": [
        {
          "internalType": "uint256",
          "name": "_cId",
          "type": "uint256"
        },
        {
          "internalType": "contract IAsterBadge",
          "name": "_nft",
          "type": "address"
        },
        {
          "internalType": "bytes32[]",
          "name": "_signIds",
          "type": "bytes32[]"
        },
        {
          "internalType": "address",
          "name": "_mintTo",
          "type": "address"
        },
        {
          "internalType": "bytes",
          "name": "_signature",
          "type": "bytes"
        }
      ],
      "name": "verifyClaimBatch",
      "outputs": [
        {
          "internalType": "bool",
          "name": "",
          "type": "bool"
        }
      ],
      "stateMutability": "view",
      "type": "function"
    }
  ],
  "transactionHash": "0x2cb4558b87d9cedbfd19b5a616c092abf82a88b367c4da8515df58d88ccf0dc2",
  "args": [
    "Aster Station",
    "1.0.0",
    "0xffdd5cf30d1f56851ab13c33e1ebda7093feafe3"
  ],
  "numDeployments": 1,
  "solcInputHash": "aacaf67eb373c60ff7b0ef74c1ca2680",
  "bytecode": "0x6101406040523480156200001257600080fd5b50604051620017383803806200173883398101604081905262000035916200021a565b82826200004233620000fd565b815160208084019190912082518383012060e08290526101008190524660a0818152604080517f8b73c3c69bb8fe3d512ecc4cf759cc79239f7b179b0ffacaa9a75d522b39400f81880181905281830187905260608201869052608082019490945230818401528151808203909301835260c00190528051940193909320919290916080523060c052610120525050600280546001600160a01b0319166001600160a01b03949094169390931790925550620002a792505050565b600080546001600160a01b038381166001600160a01b0319831681178455604051919092169283917f8be0079c531659141344cd1fd0a4f28419497f9722a3daafe3b4186f6b6457e09190a35050565b634e487b7160e01b600052604160045260246000fd5b600082601f8301126200017557600080fd5b81516001600160401b03808211156200019257620001926200014d565b604051601f8301601f19908116603f01168101908282118183101715620001bd57620001bd6200014d565b81604052838152602092508683858801011115620001da57600080fd5b600091505b83821015620001fe5785820183015181830184015290820190620001df565b83821115620002105760008385830101525b9695505050505050565b6000806000606084860312156200023057600080fd5b83516001600160401b03808211156200024857600080fd5b620002568783880162000163565b945060208601519150808211156200026d57600080fd5b506200027c8682870162000163565b604086015190935090506001600160a01b03811681146200029c57600080fd5b809150509250925092565b60805160a05160c05160e0516101005161012051611441620002f76000396000610bb001526000610bff01526000610bda01526000610b3301526000610b5d01526000610b8701526114416000f3fe608060405234801561001057600080fd5b50600436106100d45760003560e01c8063af7958ba11610081578063e6e6e7bd1161005b578063e6e6e7bd146101ee578063f2fde38b14610215578063ff9d2dcc1461022857600080fd5b8063af7958ba14610193578063c766731e146101a6578063dc20e9fb146101b957600080fd5b80638c026c8c116100b25780638c026c8c1461012e5780638da5cb5b146101415780639ba94b9a1461018057600080fd5b8063715018a6146100d957806379b06632146100e35780637dbd77db1461010b575b600080fd5b6100e1610248565b005b6100f66100f1366004610fad565b61025c565b60405190151581526020015b60405180910390f35b6100f6610119366004611079565b60016020526000908152604090205460ff1681565b6100f661013c366004611092565b6103a6565b60005473ffffffffffffffffffffffffffffffffffffffff165b60405173ffffffffffffffffffffffffffffffffffffffff9091168152602001610102565b6100e161018e366004610fad565b610487565b6100e16101a1366004611092565b6106b8565b6100e16101b436600461110e565b610885565b6101e07fccc2ea3e14ace711ef2a2ff589c609ffff4e01564b92c06a68f67d5e4c8fc2d081565b604051908152602001610102565b6101e07fa1e12b2f202f9fe336799306f0a883e13b4107e75a08fb83ac8630cbfc0647b281565b6100e161022336600461110e565b6108d4565b60025461015b9073ffffffffffffffffffffffffffffffffffffffff1681565b610250610990565b61025a6000610a11565b565b600254604080516020601f850181900481028201810190925283815260009273ffffffffffffffffffffffffffffffffffffffff1691610383919086908690819084018382808284376000920191909152505060405161037d92507fccc2ea3e14ace711ef2a2ff589c609ffff4e01564b92c06a68f67d5e4c8fc2d091508d908d906102ee908e908e90602001611132565b604080517fffffffffffffffffffffffffffffffffffffffffffffffffffffffffffffffe081840301815282825280516020918201209083019590955281019290925273ffffffffffffffffffffffffffffffffffffffff9081166060830152608082019290925290891660a082015260c0015b60405160208183030381529060405280519060200120610a86565b90610af5565b73ffffffffffffffffffffffffffffffffffffffff161498975050505050505050565b600254604080516020601f850181900481028201810190925283815260009273ffffffffffffffffffffffffffffffffffffffff16916104639190869086908190840183828082843760009201919091525050604080517fa1e12b2f202f9fe336799306f0a883e13b4107e75a08fb83ac8630cbfc0647b260208201529081018d905273ffffffffffffffffffffffffffffffffffffffff808d166060830152608082018c90528a1660a082015261037d925060c0019050610362565b73ffffffffffffffffffffffffffffffffffffffff161490505b9695505050505050565b8360005b818110156105495760008787838181106104a7576104a7611177565b60209081029290920135600081815260019093526040909220549192505060ff16156104ff576040517fddefae2800000000000000000000000000000000000000000000000000000000815260040160405180910390fd5b600090815260016020819052604090912080547fffffffffffffffffffffffffffffffffffffffffffffffffffffffffffffff00169091179055610542816111a6565b905061048b565b506105598888888888888861025c565b61058f576040517f8baa579f00000000000000000000000000000000000000000000000000000000815260040160405180910390fd5b6040517f2e81aaea00000000000000000000000000000000000000000000000000000000815273ffffffffffffffffffffffffffffffffffffffff858116600483015260248201839052604482018a905260009190891690632e81aaea906064016000604051808303816000875af115801561060f573d6000803e3d6000fd5b505050506040513d6000823e601f3d9081017fffffffffffffffffffffffffffffffffffffffffffffffffffffffffffffffe01682016040526106559190810190611235565b90508773ffffffffffffffffffffffffffffffffffffffff167fb2c76fa5ef0a0e3fd00b595f1c555810da6a088d4ee96441a65a345fdb13ee658a838a8a8a6040516106a5959493929190611311565b60405180910390a2505050505050505050565b60008481526001602052604090205460ff1615610701576040517fddefae2800000000000000000000000000000000000000000000000000000000815260040160405180910390fd5b61070f8686868686866103a6565b610745576040517f8baa579f00000000000000000000000000000000000000000000000000000000815260040160405180910390fd5b600084815260016020819052604080832080547fffffffffffffffffffffffffffffffffffffffffffffffffffffffffffffff0016909217909155517f40c10f1900000000000000000000000000000000000000000000000000000000815273ffffffffffffffffffffffffffffffffffffffff8581166004830152602482018990528716906340c10f19906044016020604051808303816000875af11580156107f3573d6000803e3d6000fd5b505050506040513d601f19601f8201168201806040525081019061081791906113c3565b604080518981526020810183905290810187905273ffffffffffffffffffffffffffffffffffffffff8681166060830152919250908716907fc03fda1b93b1bed9ce8c4bc6a8b993db0701d2a682ad2e5c4646fa6f167c19129060800160405180910390a250505050505050565b61088d610990565b600280547fffffffffffffffffffffffff00000000000000000000000000000000000000001673ffffffffffffffffffffffffffffffffffffffff92909216919091179055565b6108dc610990565b73ffffffffffffffffffffffffffffffffffffffff8116610984576040517f08c379a000000000000000000000000000000000000000000000000000000000815260206004820152602660248201527f4f776e61626c653a206e6577206f776e657220697320746865207a65726f206160448201527f646472657373000000000000000000000000000000000000000000000000000060648201526084015b60405180910390fd5b61098d81610a11565b50565b60005473ffffffffffffffffffffffffffffffffffffffff16331461025a576040517f08c379a000000000000000000000000000000000000000000000000000000000815260206004820181905260248201527f4f776e61626c653a2063616c6c6572206973206e6f7420746865206f776e6572604482015260640161097b565b6000805473ffffffffffffffffffffffffffffffffffffffff8381167fffffffffffffffffffffffff0000000000000000000000000000000000000000831681178455604051919092169283917f8be0079c531659141344cd1fd0a4f28419497f9722a3daafe3b4186f6b6457e09190a35050565b6000610aef610a93610b19565b836040517f19010000000000000000000000000000000000000000000000000000000000006020820152602281018390526042810182905260009060620160405160208183030381529060405280519060200120905092915050565b92915050565b6000806000610b048585610c4d565b91509150610b1181610c93565b509392505050565b60003073ffffffffffffffffffffffffffffffffffffffff7f000000000000000000000000000000000000000000000000000000000000000016148015610b7f57507f000000000000000000000000000000000000000000000000000000000000000046145b15610ba957507f000000000000000000000000000000000000000000000000000000000000000090565b50604080517f00000000000000000000000000000000000000000000000000000000000000006020808301919091527f0000000000000000000000000000000000000000000000000000000000000000828401527f000000000000000000000000000000000000000000000000000000000000000060608301524660808301523060a0808401919091528351808403909101815260c0909201909252805191012090565b600080825160411415610c845760208301516040840151606085015160001a610c7887828585610e4a565b94509450505050610c8c565b506000905060025b9250929050565b6000816004811115610ca757610ca76113dc565b1415610cb05750565b6001816004811115610cc457610cc46113dc565b1415610d2c576040517f08c379a000000000000000000000000000000000000000000000000000000000815260206004820152601860248201527f45434453413a20696e76616c6964207369676e61747572650000000000000000604482015260640161097b565b6002816004811115610d4057610d406113dc565b1415610da8576040517f08c379a000000000000000000000000000000000000000000000000000000000815260206004820152601f60248201527f45434453413a20696e76616c6964207369676e6174757265206c656e67746800604482015260640161097b565b6003816004811115610dbc57610dbc6113dc565b141561098d576040517f08c379a000000000000000000000000000000000000000000000000000000000815260206004820152602260248201527f45434453413a20696e76616c6964207369676e6174757265202773272076616c60448201527f7565000000000000000000000000000000000000000000000000000000000000606482015260840161097b565b6000807f7fffffffffffffffffffffffffffffff5d576e7357a4501ddfe92f46681b20a0831115610e815750600090506003610f30565b6040805160008082526020820180845289905260ff881692820192909252606081018690526080810185905260019060a0016020604051602081039080840390855afa158015610ed5573d6000803e3d6000fd5b50506040517fffffffffffffffffffffffffffffffffffffffffffffffffffffffffffffffe0015191505073ffffffffffffffffffffffffffffffffffffffff8116610f2957600060019250925050610f30565b9150600090505b94509492505050565b73ffffffffffffffffffffffffffffffffffffffff8116811461098d57600080fd5b8035610f6681610f39565b919050565b60008083601f840112610f7d57600080fd5b50813567ffffffffffffffff811115610f9557600080fd5b602083019150836020828501011115610c8c57600080fd5b600080600080600080600060a0888a031215610fc857600080fd5b873596506020880135610fda81610f39565b9550604088013567ffffffffffffffff80821115610ff757600080fd5b818a0191508a601f83011261100b57600080fd5b81358181111561101a57600080fd5b8b60208260051b850101111561102f57600080fd5b602083019750955061104360608b01610f5b565b945060808a013591508082111561105957600080fd5b506110668a828b01610f6b565b989b979a50959850939692959293505050565b60006020828403121561108b57600080fd5b5035919050565b60008060008060008060a087890312156110ab57600080fd5b8635955060208701356110bd81610f39565b94506040870135935060608701356110d481610f39565b9250608087013567ffffffffffffffff8111156110f057600080fd5b6110fc89828a01610f6b565b979a9699509497509295939492505050565b60006020828403121561112057600080fd5b813561112b81610f39565b9392505050565b60007f07ffffffffffffffffffffffffffffffffffffffffffffffffffffffffffffff83111561116157600080fd5b8260051b80858437600092019182525092915050565b7f4e487b7100000000000000000000000000000000000000000000000000000000600052603260045260246000fd5b60007fffffffffffffffffffffffffffffffffffffffffffffffffffffffffffffffff8214156111ff577f4e487b7100000000000000000000000000000000000000000000000000000000600052601160045260246000fd5b5060010190565b7f4e487b7100000000000000000000000000000000000000000000000000000000600052604160045260246000fd5b6000602080838503121561124857600080fd5b825167ffffffffffffffff8082111561126057600080fd5b818501915085601f83011261127457600080fd5b81518181111561128657611286611206565b8060051b6040517fffffffffffffffffffffffffffffffffffffffffffffffffffffffffffffffe0603f830116810181811085821117156112c9576112c9611206565b6040529182528482019250838101850191888311156112e757600080fd5b938501935b82851015611305578451845293850193928501926112ec565b98975050505050505050565b600060808201878352602060808185015281885180845260a086019150828a01935060005b8181101561135257845183529383019391830191600101611336565b505084810360408601528681527f07ffffffffffffffffffffffffffffffffffffffffffffffffffffffffffffff87111561138c57600080fd5b8660051b9250828883830137600092010190815273ffffffffffffffffffffffffffffffffffffffff84166060840152905061047d565b6000602082840312156113d557600080fd5b5051919050565b7f4e487b7100000000000000000000000000000000000000000000000000000000600052602160045260246000fdfea2646970667358221220ff2e4a005652613f492ff23285ff2d55caca19dcd8cdacb649a043437f06b03a64736f6c634300080b0033",
  "devdoc": {
    "kind": "dev",
    "methods": {
      "owner()": {
        "details": "Returns the address of the current owner."
      },
      "renounceOwnership()": {
        "details": "Leaves the contract without owner. It will not be possible to call `onlyOwner` functions anymore. Can only be called by the current owner. NOTE: Renouncing ownership will leave the contract without an owner, thereby removing any functionality that is only available to the owner."
      },
      "transferOwnership(address)": {
        "details": "Transfers ownership of the contract to a new account (`newOwner`). Can only be called by the current owner."
      }
    },
    "version": 1
  },
  "userdoc": {
    "kind": "user",
    "methods": {},
    "version": 1
  },
  "storageLayout": {
    "storage": [
      {
        "astId": 396,
        "contract": "contracts/AsterStation.sol:AsterStation",
        "label": "_owner",
        "offset": 0,
        "slot": "0",
        "type": "t_address"
      },
      {
        "astId": 4381,
        "contract": "contracts/AsterStation.sol:AsterStation",
        "label": "hasMinted",
        "offset": 0,
        "slot": "1",
        "type": "t_mapping(t_bytes32,t_bool)"
      },
      {
        "astId": 4383,
        "contract": "contracts/AsterStation.sol:AsterStation",
        "label": "adminSigner",
        "offset": 0,
        "slot": "2",
        "type": "t_address"
      }
    ],
    "types": {
      "t_address": {
        "encoding": "inplace",
        "label": "address",
        "numberOfBytes": "20"
      },
      "t_bool": {
        "encoding": "inplace",
        "label": "bool",
        "numberOfBytes": "1"
      },
      "t_bytes32": {
        "encoding": "inplace",
        "label": "bytes32",
        "numberOfBytes": "32"
      },
      "t_mapping(t_bytes32,t_bool)": {
        "encoding": "mapping",
        "key": "t_bytes32",
        "label": "mapping(bytes32 => bool)",
        "numberOfBytes": "32",
        "value": "t_bool"
      }
    }
  }
}