{
  "address": "0xF799312040Ec564f831223368B99ced749e13e98",
  "abi": [
    {
      "inputs": [
        {
          "internalType": "address",
          "name": "_token",
          "type": "address"
        },
        {
          "internalType": "address",
          "name": "_treasury",
          "type": "address"
        }
      ],
      "stateMutability": "nonpayable",
      "type": "constructor"
    },
    {
      "inputs": [],
      "name": "NoAuthorization",
      "type": "error"
    },
    {
      "anonymous": false,
      "inputs": [
        {
          "indexed": true,
          "internalType": "uint256",
          "name": "itemId",
          "type": "uint256"
        },
        {
          "indexed": false,
          "internalType": "uint256",
          "name": "cost",
          "type": "uint256"
        },
        {
          "indexed": false,
          "internalType": "uint256",
          "name": "quantity",
          "type": "uint256"
        }
      ],
      "name": "AddItem",
      "type": "event"
    },
    {
      "anonymous": false,
      "inputs": [
        {
          "indexed": true,
          "internalType": "uint256",
          "name": "itemId",
          "type": "uint256"
        },
        {
          "indexed": false,
          "internalType": "uint256",
          "name": "cost",
          "type": "uint256"
        },
        {
          "indexed": false,
          "internalType": "uint256",
          "name": "quantity",
          "type": "uint256"
        }
      ],
      "name": "EditItem",
      "type": "event"
    },
    {
      "anonymous": false,
      "inputs": [
        {
          "indexed": true,
          "internalType": "address",
          "name": "previousOwner",
          "type": "address"
        },
        {
          "indexed": true,
          "internalType": "address",
          "name": "newOwner",
          "type": "address"
        }
      ],
      "name": "OwnershipTransferred",
      "type": "event"
    },
    {
      "anonymous": false,
      "inputs": [
        {
          "indexed": true,
          "internalType": "address",
          "name": "user",
          "type": "address"
        },
        {
          "indexed": false,
          "internalType": "uint256",
          "name": "itemId",
          "type": "uint256"
        },
        {
          "indexed": false,
          "internalType": "uint256",
          "name": "cost",
          "type": "uint256"
        }
      ],
      "name": "Redeem",
      "type": "event"
    },
    {
      "inputs": [
        {
          "internalType": "uint256",
          "name": "_cost",
          "type": "uint256"
        },
        {
          "internalType": "uint256",
          "name": "_quantity",
          "type": "uint256"
        }
      ],
      "name": "addItem",
      "outputs": [],
      "stateMutability": "nonpayable",
      "type": "function"
    },
    {
      "inputs": [],
      "name": "currentItemId",
      "outputs": [
        {
          "internalType": "uint256",
          "name": "",
          "type": "uint256"
        }
      ],
      "stateMutability": "view",
      "type": "function"
    },
    {
      "inputs": [
        {
          "internalType": "uint256",
          "name": "_offset",
          "type": "uint256"
        },
        {
          "internalType": "uint256",
          "name": "_limit",
          "type": "uint256"
        }
      ],
      "name": "getAllAvailableItems",
      "outputs": [
        {
          "internalType": "uint256[]",
          "name": "allAvailableItems",
          "type": "uint256[]"
        },
        {
          "internalType": "uint256",
          "name": "",
          "type": "uint256"
        }
      ],
      "stateMutability": "view",
      "type": "function"
    },
    {
      "inputs": [
        {
          "internalType": "uint256",
          "name": "",
          "type": "uint256"
        }
      ],
      "name": "itemInfos",
      "outputs": [
        {
          "internalType": "uint256",
          "name": "cost",
          "type": "uint256"
        },
        {
          "internalType": "uint256",
          "name": "quantity",
          "type": "uint256"
        }
      ],
      "stateMutability": "view",
      "type": "function"
    },
    {
      "inputs": [],
      "name": "owner",
      "outputs": [
        {
          "internalType": "address",
          "name": "",
          "type": "address"
        }
      ],
      "stateMutability": "view",
      "type": "function"
    },
    {
      "inputs": [
        {
          "internalType": "uint256",
          "name": "_itemId",
          "type": "uint256"
        }
      ],
      "name": "redeem",
      "outputs": [],
      "stateMutability": "nonpayable",
      "type": "function"
    },
    {
      "inputs": [],
      "name": "renounceOwnership",
      "outputs": [],
      "stateMutability": "nonpayable",
      "type": "function"
    },
    {
      "inputs": [
        {
          "internalType": "uint256",
          "name": "_itemId",
          "type": "uint256"
        },
        {
          "internalType": "uint256",
          "name": "_cost",
          "type": "uint256"
        }
      ],
      "name": "setItemCost",
      "outputs": [],
      "stateMutability": "nonpayable",
      "type": "function"
    },
    {
      "inputs": [
        {
          "internalType": "uint256",
          "name": "_itemId",
          "type": "uint256"
        },
        {
          "internalType": "uint256",
          "name": "_quantity",
          "type": "uint256"
        }
      ],
      "name": "setItemQuantity",
      "outputs": [],
      "stateMutability": "nonpayable",
      "type": "function"
    },
    {
      "inputs": [],
      "name": "token",
      "outputs": [
        {
          "internalType": "contract IERC20",
          "name": "",
          "type": "address"
        }
      ],
      "stateMutability": "view",
      "type": "function"
    },
    {
      "inputs": [
        {
          "internalType": "address",
          "name": "newOwner",
          "type": "address"
        }
      ],
      "name": "transferOwnership",
      "outputs": [],
      "stateMutability": "nonpayable",
      "type": "function"
    },
    {
      "inputs": [],
      "name": "treasury",
      "outputs": [
        {
          "internalType": "address",
          "name": "",
          "type": "address"
        }
      ],
      "stateMutability": "view",
      "type": "function"
    }
  ],
  "transactionHash": "0x735a8e20f3ca86037933adface8552cf2d0981ccdd79d3a4d718200670dd5f42",
  "args": [
    "0x402349046AA8F7e6fC355E7c8B4654D3e6967FD9",
    "0x3E4A8608c685625b46F1A03c8f2928781eaac2c3"
  ],
  "numDeployments": 1,
  "solcInputHash": "15bd304f38d5147036a9063725a01c8a",
  "bytecode": "0x608060405234801561001057600080fd5b50604051610e6f380380610e6f83398101604081905261002f916100d5565b61003833610069565b600180546001600160a01b039384166001600160a01b03199182161790915560028054929093169116179055610108565b600080546001600160a01b038381166001600160a01b0319831681178455604051919092169283917f8be0079c531659141344cd1fd0a4f28419497f9722a3daafe3b4186f6b6457e09190a35050565b80516001600160a01b03811681146100d057600080fd5b919050565b600080604083850312156100e857600080fd5b6100f1836100b9565b91506100ff602084016100b9565b90509250929050565b610d58806101176000396000f3fe608060405234801561001057600080fd5b50600436106100d45760003560e01c8063c7dedb5511610081578063f2fde38b1161005b578063f2fde38b146101f8578063fc0c546a1461020b578063fdb45b9b1461022b57600080fd5b8063c7dedb55146101ad578063db006a75146101ce578063dfe0a9b1146101e157600080fd5b80638da5cb5b116100b25780638da5cb5b14610169578063a212523214610187578063bb7847761461019a57600080fd5b8063312074ee146100d957806361d027b31461011a578063715018a61461015f575b600080fd5b6101006100e7366004610a7d565b6004602052600090815260409020805460019091015482565b604080519283526020830191909152015b60405180910390f35b60025461013a9073ffffffffffffffffffffffffffffffffffffffff1681565b60405173ffffffffffffffffffffffffffffffffffffffff9091168152602001610111565b61016761023e565b005b60005473ffffffffffffffffffffffffffffffffffffffff1661013a565b610167610195366004610a96565b610252565b6101676101a8366004610a96565b6102d4565b6101c06101bb366004610a96565b61032d565b604051610111929190610ab8565b6101676101dc366004610a7d565b610421565b6101ea60035481565b604051908152602001610111565b610167610206366004610b00565b6104bd565b60015461013a9073ffffffffffffffffffffffffffffffffffffffff1681565b610167610239366004610a96565b610579565b6102466105cf565b6102506000610650565b565b61025a6105cf565b60006004600060036000815461026f90610b6c565b918290555081526020808201929092526040908101600020858155600181018590556003548251878152938401869052909350917f2503a35a35938d0204f5b4f545a35dd6570d23c853261851b402b10ea8c834e291015b60405180910390a2505050565b6102dc6105cf565b60008281526004602090815260409182902060018101849055805483519081529182018490529184917fe3c7bef5c4cd85a52c53905bac684460122ab42e37bd547084aafb0b738b081491016102c7565b606060008261033b57600192505b6000600354600161034c9190610ba5565b90506103588582610bbd565b84111561036c576103698582610bbd565b93505b8367ffffffffffffffff81111561038557610385610bd4565b6040519080825280602002602001820160405280156103ae578160200160208202803683370190505b50925060005b8481101561040957600460006103ca8389610ba5565b8152602001908152602001600020600101548482815181106103ee576103ee610c03565b602090810291909101015261040281610b6c565b90506103b4565b50826104158587610ba5565b92509250509250929050565b6000818152600460205260409020600254815460015461045f9273ffffffffffffffffffffffffffffffffffffffff918216923392909116906106c5565b60018101805490600061047183610c32565b9091555050805460405133917fe5b754fb1abb7f01b499791d0b820ae3b6af3424ac1c59768edb53f4ec31a929916104b191868252602082015260400190565b60405180910390a25050565b6104c56105cf565b73ffffffffffffffffffffffffffffffffffffffff811661056d576040517f08c379a000000000000000000000000000000000000000000000000000000000815260206004820152602660248201527f4f776e61626c653a206e6577206f776e657220697320746865207a65726f206160448201527f646472657373000000000000000000000000000000000000000000000000000060648201526084015b60405180910390fd5b61057681610650565b50565b6105816105cf565b60008281526004602090815260409182902083815560018101548351858152928301529184917fe3c7bef5c4cd85a52c53905bac684460122ab42e37bd547084aafb0b738b081491016102c7565b60005473ffffffffffffffffffffffffffffffffffffffff163314610250576040517f08c379a000000000000000000000000000000000000000000000000000000000815260206004820181905260248201527f4f776e61626c653a2063616c6c6572206973206e6f7420746865206f776e65726044820152606401610564565b6000805473ffffffffffffffffffffffffffffffffffffffff8381167fffffffffffffffffffffffff0000000000000000000000000000000000000000831681178455604051919092169283917f8be0079c531659141344cd1fd0a4f28419497f9722a3daafe3b4186f6b6457e09190a35050565b6040805173ffffffffffffffffffffffffffffffffffffffff85811660248301528416604482015260648082018490528251808303909101815260849091019091526020810180517bffffffffffffffffffffffffffffffffffffffffffffffffffffffff167f23b872dd0000000000000000000000000000000000000000000000000000000017905261075a908590610760565b50505050565b60006107c2826040518060400160405280602081526020017f5361666545524332303a206c6f772d6c6576656c2063616c6c206661696c65648152508573ffffffffffffffffffffffffffffffffffffffff166108719092919063ffffffff16565b80519091501561086c57808060200190518101906107e09190610c67565b61086c576040517f08c379a000000000000000000000000000000000000000000000000000000000815260206004820152602a60248201527f5361666545524332303a204552433230206f7065726174696f6e20646964206e60448201527f6f742073756363656564000000000000000000000000000000000000000000006064820152608401610564565b505050565b60606108808484600085610888565b949350505050565b60608247101561091a576040517f08c379a000000000000000000000000000000000000000000000000000000000815260206004820152602660248201527f416464726573733a20696e73756666696369656e742062616c616e636520666f60448201527f722063616c6c00000000000000000000000000000000000000000000000000006064820152608401610564565b6000808673ffffffffffffffffffffffffffffffffffffffff1685876040516109439190610cb5565b60006040518083038185875af1925050503d8060008114610980576040519150601f19603f3d011682016040523d82523d6000602084013e610985565b606091505b5091509150610996878383876109a1565b979650505050505050565b60608315610a34578251610a2d5773ffffffffffffffffffffffffffffffffffffffff85163b610a2d576040517f08c379a000000000000000000000000000000000000000000000000000000000815260206004820152601d60248201527f416464726573733a2063616c6c20746f206e6f6e2d636f6e74726163740000006044820152606401610564565b5081610880565b6108808383815115610a495781518083602001fd5b806040517f08c379a00000000000000000000000000000000000000000000000000000000081526004016105649190610cd1565b600060208284031215610a8f57600080fd5b5035919050565b60008060408385031215610aa957600080fd5b50508035926020909101359150565b604080825283519082018190526000906020906060840190828701845b82811015610af157815184529284019290840190600101610ad5565b50505092019290925292915050565b600060208284031215610b1257600080fd5b813573ffffffffffffffffffffffffffffffffffffffff81168114610b3657600080fd5b9392505050565b7f4e487b7100000000000000000000000000000000000000000000000000000000600052601160045260246000fd5b60007fffffffffffffffffffffffffffffffffffffffffffffffffffffffffffffffff821415610b9e57610b9e610b3d565b5060010190565b60008219821115610bb857610bb8610b3d565b500190565b600082821015610bcf57610bcf610b3d565b500390565b7f4e487b7100000000000000000000000000000000000000000000000000000000600052604160045260246000fd5b7f4e487b7100000000000000000000000000000000000000000000000000000000600052603260045260246000fd5b600081610c4157610c41610b3d565b507fffffffffffffffffffffffffffffffffffffffffffffffffffffffffffffffff0190565b600060208284031215610c7957600080fd5b81518015158114610b3657600080fd5b60005b83811015610ca4578181015183820152602001610c8c565b8381111561075a5750506000910152565b60008251610cc7818460208701610c89565b9190910192915050565b6020815260008251806020840152610cf0816040850160208701610c89565b601f017fffffffffffffffffffffffffffffffffffffffffffffffffffffffffffffffe016919091016040019291505056fea26469706673582212206ee536cb6eb9b921ce945e7b96d3cb259533db25097b58dc2b3ef941e2b6034264736f6c634300080b0033",
  "devdoc": {
    "kind": "dev",
    "methods": {
      "owner()": {
        "details": "Returns the address of the current owner."
      },
      "renounceOwnership()": {
        "details": "Leaves the contract without owner. It will not be possible to call `onlyOwner` functions anymore. Can only be called by the current owner. NOTE: Renouncing ownership will leave the contract without an owner, thereby removing any functionality that is only available to the owner."
      },
      "transferOwnership(address)": {
        "details": "Transfers ownership of the contract to a new account (`newOwner`). Can only be called by the current owner."
      }
    },
    "version": 1
  },
  "userdoc": {
    "kind": "user",
    "methods": {},
    "version": 1
  },
  "storageLayout": {
    "storage": [
      {
        "astId": 7,
        "contract": "contracts/Reward.sol:Reward",
        "label": "_owner",
        "offset": 0,
        "slot": "0",
        "type": "t_address"
      },
      {
        "astId": 878,
        "contract": "contracts/Reward.sol:Reward",
        "label": "token",
        "offset": 0,
        "slot": "1",
        "type": "t_contract(IERC20)190"
      },
      {
        "astId": 880,
        "contract": "contracts/Reward.sol:Reward",
        "label": "treasury",
        "offset": 0,
        "slot": "2",
        "type": "t_address"
      },
      {
        "astId": 882,
        "contract": "contracts/Reward.sol:Reward",
        "label": "currentItemId",
        "offset": 0,
        "slot": "3",
        "type": "t_uint256"
      },
      {
        "astId": 887,
        "contract": "contracts/Reward.sol:Reward",
        "label": "itemInfos",
        "offset": 0,
        "slot": "4",
        "type": "t_mapping(t_uint256,t_struct(ItemInfo)875_storage)"
      }
    ],
    "types": {
      "t_address": {
        "encoding": "inplace",
        "label": "address",
        "numberOfBytes": "20"
      },
      "t_contract(IERC20)190": {
        "encoding": "inplace",
        "label": "contract IERC20",
        "numberOfBytes": "20"
      },
      "t_mapping(t_uint256,t_struct(ItemInfo)875_storage)": {
        "encoding": "mapping",
        "key": "t_uint256",
        "label": "mapping(uint256 => struct Reward.ItemInfo)",
        "numberOfBytes": "32",
        "value": "t_struct(ItemInfo)875_storage"
      },
      "t_struct(ItemInfo)875_storage": {
        "encoding": "inplace",
        "label": "struct Reward.ItemInfo",
        "members": [
          {
            "astId": 872,
            "contract": "contracts/Reward.sol:Reward",
            "label": "cost",
            "offset": 0,
            "slot": "0",
            "type": "t_uint256"
          },
          {
            "astId": 874,
            "contract": "contracts/Reward.sol:Reward",
            "label": "quantity",
            "offset": 0,
            "slot": "1",
            "type": "t_uint256"
          }
        ],
        "numberOfBytes": "64"
      },
      "t_uint256": {
        "encoding": "inplace",
        "label": "uint256",
        "numberOfBytes": "32"
      }
    }
  }
}