{
  "address": "0x96243a097DA599eeaC56a9AfA5B897076aF485dC",
  "abi": [
    {
      "inputs": [
        {
          "internalType": "address",
          "name": "_token",
          "type": "address"
        }
      ],
      "stateMutability": "nonpayable",
      "type": "constructor"
    },
    {
      "inputs": [],
      "name": "AlreadyAnnounce",
      "type": "error"
    },
    {
      "inputs": [],
      "name": "AlreadyClaimed",
      "type": "error"
    },
    {
      "inputs": [],
      "name": "BelowsMinimumAmount",
      "type": "error"
    },
    {
      "inputs": [],
      "name": "ExceedsMaxChoiceId",
      "type": "error"
    },
    {
      "inputs": [],
      "name": "ExceedsPredictionLimit",
      "type": "error"
    },
    {
      "inputs": [],
      "name": "InvalidEndAt",
      "type": "error"
    },
    {
      "inputs": [],
      "name": "NoPrize",
      "type": "error"
    },
    {
      "inputs": [],
      "name": "PredictionEnded",
      "type": "error"
    },
    {
      "inputs": [],
      "name": "PredictionNotStart",
      "type": "error"
    },
    {
      "inputs": [],
      "name": "PredictionOnGoing",
      "type": "error"
    },
    {
      "inputs": [],
      "name": "Unclaimable",
      "type": "error"
    },
    {
      "anonymous": false,
      "inputs": [
        {
          "indexed": true,
          "internalType": "uint256",
          "name": "gameId",
          "type": "uint256"
        },
        {
          "indexed": false,
          "internalType": "uint16",
          "name": "winnerId",
          "type": "uint16"
        }
      ],
      "name": "AnnounceWinner",
      "type": "event"
    },
    {
      "anonymous": false,
      "inputs": [
        {
          "indexed": true,
          "internalType": "uint256",
          "name": "gameId",
          "type": "uint256"
        },
        {
          "indexed": false,
          "internalType": "address",
          "name": "user",
          "type": "address"
        },
        {
          "indexed": false,
          "internalType": "uint256",
          "name": "betAmount",
          "type": "uint256"
        },
        {
          "indexed": false,
          "internalType": "uint256",
          "name": "reward",
          "type": "uint256"
        },
        {
          "indexed": false,
          "internalType": "uint16",
          "name": "winnerId",
          "type": "uint16"
        }
      ],
      "name": "ClaimReward",
      "type": "event"
    },
    {
      "anonymous": false,
      "inputs": [
        {
          "indexed": true,
          "internalType": "uint256",
          "name": "gameId",
          "type": "uint256"
        },
        {
          "indexed": false,
          "internalType": "uint256",
          "name": "minPredictAmount",
          "type": "uint256"
        },
        {
          "indexed": false,
          "internalType": "uint256",
          "name": "initiatePrize",
          "type": "uint256"
        },
        {
          "indexed": false,
          "internalType": "uint256",
          "name": "startAt",
          "type": "uint256"
        },
        {
          "indexed": false,
          "internalType": "uint256",
          "name": "endAt",
          "type": "uint256"
        },
        {
          "indexed": false,
          "internalType": "uint16",
          "name": "maxPredictCount",
          "type": "uint16"
        },
        {
          "indexed": false,
          "internalType": "uint16",
          "name": "maxChoiceId",
          "type": "uint16"
        }
      ],
      "name": "InitiateGame",
      "type": "event"
    },
    {
      "anonymous": false,
      "inputs": [
        {
          "indexed": true,
          "internalType": "address",
          "name": "previousOwner",
          "type": "address"
        },
        {
          "indexed": true,
          "internalType": "address",
          "name": "newOwner",
          "type": "address"
        }
      ],
      "name": "OwnershipTransferred",
      "type": "event"
    },
    {
      "anonymous": false,
      "inputs": [
        {
          "indexed": true,
          "internalType": "uint256",
          "name": "gameId",
          "type": "uint256"
        },
        {
          "indexed": false,
          "internalType": "address",
          "name": "user",
          "type": "address"
        },
        {
          "indexed": false,
          "internalType": "uint256",
          "name": "amount",
          "type": "uint256"
        },
        {
          "indexed": false,
          "internalType": "uint16",
          "name": "choiceId",
          "type": "uint16"
        },
        {
          "indexed": false,
          "internalType": "uint16",
          "name": "predictCount",
          "type": "uint16"
        }
      ],
      "name": "Predict",
      "type": "event"
    },
    {
      "anonymous": false,
      "inputs": [
        {
          "indexed": true,
          "internalType": "bytes32",
          "name": "role",
          "type": "bytes32"
        },
        {
          "indexed": true,
          "internalType": "bytes32",
          "name": "previousAdminRole",
          "type": "bytes32"
        },
        {
          "indexed": true,
          "internalType": "bytes32",
          "name": "newAdminRole",
          "type": "bytes32"
        }
      ],
      "name": "RoleAdminChanged",
      "type": "event"
    },
    {
      "anonymous": false,
      "inputs": [
        {
          "indexed": true,
          "internalType": "bytes32",
          "name": "role",
          "type": "bytes32"
        },
        {
          "indexed": true,
          "internalType": "address",
          "name": "account",
          "type": "address"
        },
        {
          "indexed": true,
          "internalType": "address",
          "name": "sender",
          "type": "address"
        }
      ],
      "name": "RoleGranted",
      "type": "event"
    },
    {
      "anonymous": false,
      "inputs": [
        {
          "indexed": true,
          "internalType": "bytes32",
          "name": "role",
          "type": "bytes32"
        },
        {
          "indexed": true,
          "internalType": "address",
          "name": "account",
          "type": "address"
        },
        {
          "indexed": true,
          "internalType": "address",
          "name": "sender",
          "type": "address"
        }
      ],
      "name": "RoleRevoked",
      "type": "event"
    },
    {
      "inputs": [],
      "name": "ADMIN_ROLE",
      "outputs": [
        {
          "internalType": "bytes32",
          "name": "",
          "type": "bytes32"
        }
      ],
      "stateMutability": "view",
      "type": "function"
    },
    {
      "inputs": [],
      "name": "DEFAULT_ADMIN_ROLE",
      "outputs": [
        {
          "internalType": "bytes32",
          "name": "",
          "type": "bytes32"
        }
      ],
      "stateMutability": "view",
      "type": "function"
    },
    {
      "inputs": [],
      "name": "accumulateRemainingReward",
      "outputs": [
        {
          "internalType": "uint256",
          "name": "",
          "type": "uint256"
        }
      ],
      "stateMutability": "view",
      "type": "function"
    },
    {
      "inputs": [
        {
          "internalType": "uint256",
          "name": "_gameId",
          "type": "uint256"
        },
        {
          "internalType": "uint16",
          "name": "_winnerId",
          "type": "uint16"
        }
      ],
      "name": "announceWinner",
      "outputs": [],
      "stateMutability": "nonpayable",
      "type": "function"
    },
    {
      "inputs": [
        {
          "internalType": "uint256",
          "name": "_gameId",
          "type": "uint256"
        },
        {
          "internalType": "address",
          "name": "_user",
          "type": "address"
        }
      ],
      "name": "claimReward",
      "outputs": [],
      "stateMutability": "nonpayable",
      "type": "function"
    },
    {
      "inputs": [],
      "name": "currentGameId",
      "outputs": [
        {
          "internalType": "uint256",
          "name": "",
          "type": "uint256"
        }
      ],
      "stateMutability": "view",
      "type": "function"
    },
    {
      "inputs": [
        {
          "internalType": "uint256",
          "name": "_gameId",
          "type": "uint256"
        },
        {
          "internalType": "uint16",
          "name": "_offset",
          "type": "uint16"
        },
        {
          "internalType": "uint16",
          "name": "_limit",
          "type": "uint16"
        }
      ],
      "name": "getAllChoicePools",
      "outputs": [
        {
          "internalType": "uint256[]",
          "name": "allChoicePools",
          "type": "uint256[]"
        },
        {
          "internalType": "uint16",
          "name": "",
          "type": "uint16"
        }
      ],
      "stateMutability": "view",
      "type": "function"
    },
    {
      "inputs": [
        {
          "internalType": "bytes32",
          "name": "role",
          "type": "bytes32"
        }
      ],
      "name": "getRoleAdmin",
      "outputs": [
        {
          "internalType": "bytes32",
          "name": "",
          "type": "bytes32"
        }
      ],
      "stateMutability": "view",
      "type": "function"
    },
    {
      "inputs": [
        {
          "internalType": "uint256",
          "name": "_gameId",
          "type": "uint256"
        },
        {
          "internalType": "address",
          "name": "_user",
          "type": "address"
        },
        {
          "internalType": "uint16",
          "name": "_choiceId",
          "type": "uint16"
        }
      ],
      "name": "getUserPrediction",
      "outputs": [
        {
          "internalType": "uint256",
          "name": "",
          "type": "uint256"
        },
        {
          "internalType": "bool",
          "name": "",
          "type": "bool"
        }
      ],
      "stateMutability": "view",
      "type": "function"
    },
    {
      "inputs": [
        {
          "internalType": "bytes32",
          "name": "role",
          "type": "bytes32"
        },
        {
          "internalType": "address",
          "name": "account",
          "type": "address"
        }
      ],
      "name": "grantRole",
      "outputs": [],
      "stateMutability": "nonpayable",
      "type": "function"
    },
    {
      "inputs": [
        {
          "internalType": "bytes32",
          "name": "role",
          "type": "bytes32"
        },
        {
          "internalType": "address",
          "name": "account",
          "type": "address"
        }
      ],
      "name": "hasRole",
      "outputs": [
        {
          "internalType": "bool",
          "name": "",
          "type": "bool"
        }
      ],
      "stateMutability": "view",
      "type": "function"
    },
    {
      "inputs": [
        {
          "internalType": "uint16",
          "name": "_maxChoiceId",
          "type": "uint16"
        },
        {
          "internalType": "uint16",
          "name": "_maxPredictCount",
          "type": "uint16"
        },
        {
          "internalType": "uint256",
          "name": "_minPredictAmount",
          "type": "uint256"
        },
        {
          "internalType": "uint256",
          "name": "_initiatePrize",
          "type": "uint256"
        },
        {
          "internalType": "uint256",
          "name": "_endAt",
          "type": "uint256"
        }
      ],
      "name": "initiateGame",
      "outputs": [],
      "stateMutability": "nonpayable",
      "type": "function"
    },
    {
      "inputs": [],
      "name": "owner",
      "outputs": [
        {
          "internalType": "address",
          "name": "",
          "type": "address"
        }
      ],
      "stateMutability": "view",
      "type": "function"
    },
    {
      "inputs": [
        {
          "internalType": "uint256",
          "name": "_gameId",
          "type": "uint256"
        },
        {
          "internalType": "uint16",
          "name": "_choiceId",
          "type": "uint16"
        },
        {
          "internalType": "uint256",
          "name": "_amount",
          "type": "uint256"
        }
      ],
      "name": "predict",
      "outputs": [],
      "stateMutability": "nonpayable",
      "type": "function"
    },
    {
      "inputs": [
        {
          "internalType": "address",
          "name": "",
          "type": "address"
        },
        {
          "internalType": "uint256",
          "name": "",
          "type": "uint256"
        }
      ],
      "name": "predictionCount",
      "outputs": [
        {
          "internalType": "uint16",
          "name": "",
          "type": "uint16"
        }
      ],
      "stateMutability": "view",
      "type": "function"
    },
    {
      "inputs": [
        {
          "internalType": "uint256",
          "name": "",
          "type": "uint256"
        }
      ],
      "name": "predictions",
      "outputs": [
        {
          "internalType": "uint256",
          "name": "minPredictAmount",
          "type": "uint256"
        },
        {
          "internalType": "uint256",
          "name": "totalPoolPrize",
          "type": "uint256"
        },
        {
          "internalType": "uint256",
          "name": "startAt",
          "type": "uint256"
        },
        {
          "internalType": "uint256",
          "name": "endAt",
          "type": "uint256"
        },
        {
          "internalType": "uint16",
          "name": "maxPredictCount",
          "type": "uint16"
        },
        {
          "internalType": "uint16",
          "name": "maxChoiceId",
          "type": "uint16"
        },
        {
          "internalType": "uint16",
          "name": "winnerId",
          "type": "uint16"
        },
        {
          "internalType": "bool",
          "name": "isClaimable",
          "type": "bool"
        }
      ],
      "stateMutability": "view",
      "type": "function"
    },
    {
      "inputs": [
        {
          "internalType": "address",
          "name": "_tokenAddress",
          "type": "address"
        }
      ],
      "name": "recoverERC20",
      "outputs": [],
      "stateMutability": "nonpayable",
      "type": "function"
    },
    {
      "inputs": [],
      "name": "renounceOwnership",
      "outputs": [],
      "stateMutability": "nonpayable",
      "type": "function"
    },
    {
      "inputs": [
        {
          "internalType": "bytes32",
          "name": "role",
          "type": "bytes32"
        },
        {
          "internalType": "address",
          "name": "account",
          "type": "address"
        }
      ],
      "name": "renounceRole",
      "outputs": [],
      "stateMutability": "nonpayable",
      "type": "function"
    },
    {
      "inputs": [
        {
          "internalType": "bytes32",
          "name": "role",
          "type": "bytes32"
        },
        {
          "internalType": "address",
          "name": "account",
          "type": "address"
        }
      ],
      "name": "revokeRole",
      "outputs": [],
      "stateMutability": "nonpayable",
      "type": "function"
    },
    {
      "inputs": [
        {
          "internalType": "bytes4",
          "name": "interfaceId",
          "type": "bytes4"
        }
      ],
      "name": "supportsInterface",
      "outputs": [
        {
          "internalType": "bool",
          "name": "",
          "type": "bool"
        }
      ],
      "stateMutability": "view",
      "type": "function"
    },
    {
      "inputs": [],
      "name": "token",
      "outputs": [
        {
          "internalType": "contract IERC20",
          "name": "",
          "type": "address"
        }
      ],
      "stateMutability": "view",
      "type": "function"
    },
    {
      "inputs": [
        {
          "internalType": "address",
          "name": "newOwner",
          "type": "address"
        }
      ],
      "name": "transferOwnership",
      "outputs": [],
      "stateMutability": "nonpayable",
      "type": "function"
    },
    {
      "inputs": [
        {
          "internalType": "uint256",
          "name": "_gameId",
          "type": "uint256"
        },
        {
          "internalType": "address",
          "name": "_user",
          "type": "address"
        }
      ],
      "name": "viewReward",
      "outputs": [
        {
          "internalType": "uint256",
          "name": "",
          "type": "uint256"
        }
      ],
      "stateMutability": "view",
      "type": "function"
    }
  ],
  "transactionHash": "0x8363974e71bd449f2fde10acb8c7963afcee3b228249594f7d260c5698c3c3bd",
  "args": [
    "0x402349046AA8F7e6fC355E7c8B4654D3e6967FD9"
  ],
  "numDeployments": 1,
  "solcInputHash": "58d8256ed610763349689f96d6547d03",
  "bytecode": "0x60806040523480156200001157600080fd5b506040516200241638038062002416833981016040819052620000349162000174565b6200003f3362000072565b6200004c600033620000c4565b600280546001600160a01b0319166001600160a01b0392909216919091179055620001a6565b600180546001600160a01b038381166001600160a01b0319831681179093556040519116919082907f8be0079c531659141344cd1fd0a4f28419497f9722a3daafe3b4186f6b6457e090600090a35050565b620000d08282620000d4565b5050565b6000828152602081815260408083206001600160a01b038516845290915290205460ff16620000d0576000828152602081815260408083206001600160a01b03851684529091529020805460ff19166001179055620001303390565b6001600160a01b0316816001600160a01b0316837f2f8788117e7eff1d82e926ec794901d17c78024a50270940304540a733656f0d60405160405180910390a45050565b6000602082840312156200018757600080fd5b81516001600160a01b03811681146200019f57600080fd5b9392505050565b61226080620001b66000396000f3fe608060405234801561001057600080fd5b50600436106101975760003560e01c80639e8c708e116100e3578063eb10d1581161008c578063f86f13ba11610066578063f86f13ba14610480578063fc0c546a14610507578063fc78728d1461052757600080fd5b8063eb10d15814610439578063f2fde38b1461044c578063f3196b5f1461045f57600080fd5b8063d1619908116100bd578063d161990814610400578063d547741f14610413578063e70eb3921461042657600080fd5b80639e8c708e146103dc5780639eed2670146103ef578063a217fddf146103f857600080fd5b806338f3f8eb1161014557806375b238fc1161011f57806375b238fc146103325780638da5cb5b1461035957806391d148541461039857600080fd5b806338f3f8eb1461030e578063536a3ddc14610321578063715018a61461032a57600080fd5b8063248a9ca311610176578063248a9ca3146102b55780632f2ff15d146102e657806336568abe146102fb57600080fd5b80624fbbb01461019c57806301ffc9a714610250578063080df42a14610273575b600080fd5b6102046101aa366004611c6c565b60056020819052600091825260409091206002810154600382015460048301549383015460069093015491939092909161ffff80821691620100008104821691640100000000820416906601000000000000900460ff1688565b60408051988952602089019790975295870194909452606086019290925261ffff908116608086015290811660a08501521660c0830152151560e0820152610100015b60405180910390f35b61026361025e366004611c85565b61053a565b6040519015158152602001610247565b6102a2610281366004611cf0565b600660209081526000928352604080842090915290825290205461ffff1681565b60405161ffff9091168152602001610247565b6102d86102c3366004611c6c565b60009081526020819052604090206001015490565b604051908152602001610247565b6102f96102f4366004611d1a565b6105d3565b005b6102f9610309366004611d1a565b6105fd565b6102f961031c366004611d58565b6106b5565b6102d860035481565b6102f961088a565b6102d87fa49807205ce4d355092ef5a8a18f56e8913cf4a201fbe287825b095693c2177581565b60015473ffffffffffffffffffffffffffffffffffffffff165b60405173ffffffffffffffffffffffffffffffffffffffff9091168152602001610247565b6102636103a6366004611d1a565b60009182526020828152604080842073ffffffffffffffffffffffffffffffffffffffff93909316845291905290205460ff1690565b6102f96103ea366004611d7b565b61089e565b6102d860045481565b6102d8600081565b6102f961040e366004611d96565b6109ec565b6102f9610421366004611d1a565b610b7f565b6102f9610434366004611d1a565b610ba4565b6102f9610447366004611de3565b610da1565b6102f961045a366004611d7b565b611024565b61047261046d366004611e18565b6110db565b604051610247929190611e54565b6104f261048e366004611ea3565b600083815260056020908152604080832073ffffffffffffffffffffffffffffffffffffffff86168452825280832061ffff851684528252918290208251808401909352805480845260019091015460ff1615159290910182905290935093915050565b60408051928352901515602083015201610247565b6002546103739073ffffffffffffffffffffffffffffffffffffffff1681565b6102d8610535366004611d1a565b61120e565b60007fffffffff0000000000000000000000000000000000000000000000000000000082167f7965db0b0000000000000000000000000000000000000000000000000000000014806105cd57507f01ffc9a7000000000000000000000000000000000000000000000000000000007fffffffff000000000000000000000000000000000000000000000000000000008316145b92915050565b6000828152602081905260409020600101546105ee8161124a565b6105f88383611254565b505050565b73ffffffffffffffffffffffffffffffffffffffff811633146106a7576040517f08c379a000000000000000000000000000000000000000000000000000000000815260206004820152602f60248201527f416363657373436f6e74726f6c3a2063616e206f6e6c792072656e6f756e636560448201527f20726f6c657320666f722073656c66000000000000000000000000000000000060648201526084015b60405180910390fd5b6106b18282611344565b5050565b7fa49807205ce4d355092ef5a8a18f56e8913cf4a201fbe287825b095693c217756106df8161124a565b600083815260056020526040902060068101546601000000000000900460ff1615610736576040517f991744c700000000000000000000000000000000000000000000000000000000815260040160405180910390fd5b6004810154610771576040517f633b245f00000000000000000000000000000000000000000000000000000000815260040160405180910390fd5b806005015442116107ae576040517fdd2048e900000000000000000000000000000000000000000000000000000000815260040160405180910390fd5b6006810180547fffffffffffffffffffffffffffffffffffffffffffffffffff00ffffffffffff61ffff86166401000000008102919091167fffffffffffffffffffffffffffffffffffffffffffffffffff000000ffffffff90921691909117660100000000000017909155600090815260018201602052604090205461084b578060030154600460008282546108459190611ef7565b90915550505b60405161ffff8416815284907fa22b773d9d9c167c4b5790dace2919b1e514f1517a568980be43af1fdf41bf129060200160405180910390a250505050565b6108926113fb565b61089c600061147c565b565b6108a66113fb565b6040517f70a0823100000000000000000000000000000000000000000000000000000000815230600482015260009073ffffffffffffffffffffffffffffffffffffffff8316906370a0823190602401602060405180830381865afa158015610913573d6000803e3d6000fd5b505050506040513d601f19601f820116820180604052508101906109379190611f0e565b60025490915073ffffffffffffffffffffffffffffffffffffffff838116911614156109ac576106b161097f60015473ffffffffffffffffffffffffffffffffffffffff1690565b60045461098c9084611ef7565b60025473ffffffffffffffffffffffffffffffffffffffff1691906114f3565b6106b16109ce60015473ffffffffffffffffffffffffffffffffffffffff1690565b73ffffffffffffffffffffffffffffffffffffffff841690836114f3565b7fa49807205ce4d355092ef5a8a18f56e8913cf4a201fbe287825b095693c21775610a168161124a565b42821015610a50576040517f2e19adc700000000000000000000000000000000000000000000000000000000815260040160405180910390fd5b600254610a759073ffffffffffffffffffffffffffffffffffffffff163330866115c7565b600060056000600360008154610a8a90611f27565b91829055508152602081019190915260400160009081206002810187905560038101869055426004808301919091556005820186905560068201805461ffff8c811662010000027fffffffffffffffffffffffffffffffffffffffffffffffffffffffff00000000909216908c1617179055805491935086929091610b10908490611f60565b909155505060035460048201546040805188815260208101889052808201929092526060820186905261ffff89811660808401528a1660a0830152517fd449b74436531695b31f0a3a97a73ddd8d7bd101a5938bc8dc3829c3ef7b50a29181900360c00190a250505050505050565b600082815260208190526040902060010154610b9a8161124a565b6105f88383611344565b600082815260056020526040902060068101546601000000000000900460ff16610bfa576040517f47bc8d9400000000000000000000000000000000000000000000000000000000815260040160405180910390fd5b73ffffffffffffffffffffffffffffffffffffffff82166000908152602082815260408083206006850154640100000000900461ffff1684529091529020600181015460ff1615610c77576040517f646cf55800000000000000000000000000000000000000000000000000000000815260040160405180910390fd5b6000610c83858561162b565b905080610cbc576040517f273b4b7700000000000000000000000000000000000000000000000000000000815260040160405180910390fd5b600182810180547fffffffffffffffffffffffffffffffffffffffffffffffffffffffffffffff0016909117905560048054829190600090610cff908490611ef7565b9091555050600254610d289073ffffffffffffffffffffffffffffffffffffffff1685836114f3565b815460068401546040805173ffffffffffffffffffffffffffffffffffffffff8816815260208101939093528201839052640100000000900461ffff16606082015285907f4c49710a89d488ef5b4f7f4be97fee6539487344239eab7fc41be528579d741e906080015b60405180910390a25050505050565b600083815260056020908152604080832033845260068352818420878552909252822080549192918290610dd89061ffff16611f78565b91906101000a81548161ffff021916908361ffff160217905590508160060160009054906101000a900461ffff1661ffff168161ffff16118015610e235750600682015461ffff1615155b15610e5a576040517f67afcbda00000000000000000000000000000000000000000000000000000000815260040160405180910390fd5b8160020154831015610e98576040517f9df8a2c000000000000000000000000000000000000000000000000000000000815260040160405180910390fd5b8160050154421115610ed6576040517fee515eaa00000000000000000000000000000000000000000000000000000000815260040160405180910390fd5b600682015461ffff62010000909104811690851610610f21576040517fae38cd7800000000000000000000000000000000000000000000000000000000815260040160405180910390fd5b600254610f469073ffffffffffffffffffffffffffffffffffffffff163330866115c7565b3360009081526020838152604080832061ffff8816845290915281208054859290610f72908490611f60565b909155505061ffff8416600090815260018301602052604081208054859290610f9c908490611f60565b9250508190555082826003016000828254610fb79190611f60565b925050819055508260046000828254610fd09190611f60565b9091555050604080513381526020810185905261ffff80871692820192909252908216606082015285907ffdfb268d5a97aeafe639751cec20f2bc5fe89577883480a7523df3b1bc1f1ff290608001610d92565b61102c6113fb565b73ffffffffffffffffffffffffffffffffffffffff81166110cf576040517f08c379a000000000000000000000000000000000000000000000000000000000815260206004820152602660248201527f4f776e61626c653a206e6577206f776e657220697320746865207a65726f206160448201527f6464726573730000000000000000000000000000000000000000000000000000606482015260840161069e565b6110d88161147c565b50565b60008381526005602052604081206060919061ffff84166110fb57600193505b600681015461111590869062010000900461ffff16611f9a565b61ffff168461ffff16111561114157600681015461113e90869062010000900461ffff16611f9a565b93505b8361ffff1667ffffffffffffffff81111561115e5761115e611fbd565b604051908082528060200260200182016040528015611187578160200160208202803683370190505b50925060005b8461ffff168161ffff1610156111f5576001820160006111ad8389611fec565b61ffff1661ffff16815260200190815260200160002054848261ffff16815181106111da576111da612012565b60209081029190910101526111ee81611f78565b905061118d565b50826112018587611fec565b9250925050935093915050565b6000828152600560205260408120600601546601000000000000900460ff16611239575060006105cd565b611243838361162b565b9392505050565b6110d881336116d8565b60008281526020818152604080832073ffffffffffffffffffffffffffffffffffffffff8516845290915290205460ff166106b15760008281526020818152604080832073ffffffffffffffffffffffffffffffffffffffff85168452909152902080547fffffffffffffffffffffffffffffffffffffffffffffffffffffffffffffff001660011790556112e63390565b73ffffffffffffffffffffffffffffffffffffffff168173ffffffffffffffffffffffffffffffffffffffff16837f2f8788117e7eff1d82e926ec794901d17c78024a50270940304540a733656f0d60405160405180910390a45050565b60008281526020818152604080832073ffffffffffffffffffffffffffffffffffffffff8516845290915290205460ff16156106b15760008281526020818152604080832073ffffffffffffffffffffffffffffffffffffffff8516808552925280832080547fffffffffffffffffffffffffffffffffffffffffffffffffffffffffffffff0016905551339285917ff6391f5c32d9c69d2a47ea670b442974b53935d1edc7fd64eb21e047a839171b9190a45050565b60015473ffffffffffffffffffffffffffffffffffffffff16331461089c576040517f08c379a000000000000000000000000000000000000000000000000000000000815260206004820181905260248201527f4f776e61626c653a2063616c6c6572206973206e6f7420746865206f776e6572604482015260640161069e565b6001805473ffffffffffffffffffffffffffffffffffffffff8381167fffffffffffffffffffffffff0000000000000000000000000000000000000000831681179093556040519116919082907f8be0079c531659141344cd1fd0a4f28419497f9722a3daafe3b4186f6b6457e090600090a35050565b60405173ffffffffffffffffffffffffffffffffffffffff83166024820152604481018290526105f89084907fa9059cbb00000000000000000000000000000000000000000000000000000000906064015b604080517fffffffffffffffffffffffffffffffffffffffffffffffffffffffffffffffe08184030181529190526020810180517bffffffffffffffffffffffffffffffffffffffffffffffffffffffff167fffffffff0000000000000000000000000000000000000000000000000000000090931692909217909152611790565b60405173ffffffffffffffffffffffffffffffffffffffff808516602483015283166044820152606481018290526116259085907f23b872dd0000000000000000000000000000000000000000000000000000000090608401611545565b50505050565b60008281526005602090815260408083206006810154640100000000900461ffff168452600181019092528220546116675760009150506105cd565b6006810154640100000000900461ffff166000818152600183016020908152604080832054600386015473ffffffffffffffffffffffffffffffffffffffff89168552868452828520958552949092529091205490916116c691612041565b6116d0919061207e565b949350505050565b60008281526020818152604080832073ffffffffffffffffffffffffffffffffffffffff8516845290915290205460ff166106b1576117168161189c565b6117218360206118bb565b6040516020016117329291906120e5565b604080517fffffffffffffffffffffffffffffffffffffffffffffffffffffffffffffffe0818403018152908290527f08c379a000000000000000000000000000000000000000000000000000000000825261069e91600401612166565b60006117f2826040518060400160405280602081526020017f5361666545524332303a206c6f772d6c6576656c2063616c6c206661696c65648152508573ffffffffffffffffffffffffffffffffffffffff16611afe9092919063ffffffff16565b8051909150156105f8578080602001905181019061181091906121b7565b6105f8576040517f08c379a000000000000000000000000000000000000000000000000000000000815260206004820152602a60248201527f5361666545524332303a204552433230206f7065726174696f6e20646964206e60448201527f6f74207375636365656400000000000000000000000000000000000000000000606482015260840161069e565b60606105cd73ffffffffffffffffffffffffffffffffffffffff831660145b606060006118ca836002612041565b6118d5906002611f60565b67ffffffffffffffff8111156118ed576118ed611fbd565b6040519080825280601f01601f191660200182016040528015611917576020820181803683370190505b5090507f30000000000000000000000000000000000000000000000000000000000000008160008151811061194e5761194e612012565b60200101907effffffffffffffffffffffffffffffffffffffffffffffffffffffffffffff1916908160001a9053507f7800000000000000000000000000000000000000000000000000000000000000816001815181106119b1576119b1612012565b60200101907effffffffffffffffffffffffffffffffffffffffffffffffffffffffffffff1916908160001a90535060006119ed846002612041565b6119f8906001611f60565b90505b6001811115611a95577f303132333435363738396162636465660000000000000000000000000000000085600f1660108110611a3957611a39612012565b1a60f81b828281518110611a4f57611a4f612012565b60200101907effffffffffffffffffffffffffffffffffffffffffffffffffffffffffffff1916908160001a90535060049490941c93611a8e816121d9565b90506119fb565b508315611243576040517f08c379a000000000000000000000000000000000000000000000000000000000815260206004820181905260248201527f537472696e67733a20686578206c656e67746820696e73756666696369656e74604482015260640161069e565b60606116d08484600085856000808673ffffffffffffffffffffffffffffffffffffffff168587604051611b32919061220e565b60006040518083038185875af1925050503d8060008114611b6f576040519150601f19603f3d011682016040523d82523d6000602084013e611b74565b606091505b5091509150611b8587838387611b90565b979650505050505050565b60608315611c23578251611c1c5773ffffffffffffffffffffffffffffffffffffffff85163b611c1c576040517f08c379a000000000000000000000000000000000000000000000000000000000815260206004820152601d60248201527f416464726573733a2063616c6c20746f206e6f6e2d636f6e7472616374000000604482015260640161069e565b50816116d0565b6116d08383815115611c385781518083602001fd5b806040517f08c379a000000000000000000000000000000000000000000000000000000000815260040161069e9190612166565b600060208284031215611c7e57600080fd5b5035919050565b600060208284031215611c9757600080fd5b81357fffffffff000000000000000000000000000000000000000000000000000000008116811461124357600080fd5b803573ffffffffffffffffffffffffffffffffffffffff81168114611ceb57600080fd5b919050565b60008060408385031215611d0357600080fd5b611d0c83611cc7565b946020939093013593505050565b60008060408385031215611d2d57600080fd5b82359150611d3d60208401611cc7565b90509250929050565b803561ffff81168114611ceb57600080fd5b60008060408385031215611d6b57600080fd5b82359150611d3d60208401611d46565b600060208284031215611d8d57600080fd5b61124382611cc7565b600080600080600060a08688031215611dae57600080fd5b611db786611d46565b9450611dc560208701611d46565b94979496505050506040830135926060810135926080909101359150565b600080600060608486031215611df857600080fd5b83359250611e0860208501611d46565b9150604084013590509250925092565b600080600060608486031215611e2d57600080fd5b83359250611e3d60208501611d46565b9150611e4b60408501611d46565b90509250925092565b604080825283519082018190526000906020906060840190828701845b82811015611e8d57815184529284019290840190600101611e71565b50505061ffff9490941692019190915250919050565b600080600060608486031215611eb857600080fd5b83359250611e3d60208501611cc7565b7f4e487b7100000000000000000000000000000000000000000000000000000000600052601160045260246000fd5b600082821015611f0957611f09611ec8565b500390565b600060208284031215611f2057600080fd5b5051919050565b60007fffffffffffffffffffffffffffffffffffffffffffffffffffffffffffffffff821415611f5957611f59611ec8565b5060010190565b60008219821115611f7357611f73611ec8565b500190565b600061ffff80831681811415611f9057611f90611ec8565b6001019392505050565b600061ffff83811690831681811015611fb557611fb5611ec8565b039392505050565b7f4e487b7100000000000000000000000000000000000000000000000000000000600052604160045260246000fd5b600061ffff80831681851680830382111561200957612009611ec8565b01949350505050565b7f4e487b7100000000000000000000000000000000000000000000000000000000600052603260045260246000fd5b6000817fffffffffffffffffffffffffffffffffffffffffffffffffffffffffffffffff048311821515161561207957612079611ec8565b500290565b6000826120b4577f4e487b7100000000000000000000000000000000000000000000000000000000600052601260045260246000fd5b500490565b60005b838110156120d45781810151838201526020016120bc565b838111156116255750506000910152565b7f416363657373436f6e74726f6c3a206163636f756e742000000000000000000081526000835161211d8160178501602088016120b9565b7f206973206d697373696e6720726f6c6520000000000000000000000000000000601791840191820152835161215a8160288401602088016120b9565b01602801949350505050565b60208152600082518060208401526121858160408501602087016120b9565b601f017fffffffffffffffffffffffffffffffffffffffffffffffffffffffffffffffe0169190910160400192915050565b6000602082840312156121c957600080fd5b8151801515811461124357600080fd5b6000816121e8576121e8611ec8565b507fffffffffffffffffffffffffffffffffffffffffffffffffffffffffffffffff0190565b600082516122208184602087016120b9565b919091019291505056fea264697066735822122076ca74859d2eba31cadc9181f7fe39ef018f3576ba249e1ec5960f6bc0c3098e64736f6c634300080b0033",
  "devdoc": {
    "kind": "dev",
    "methods": {
      "getRoleAdmin(bytes32)": {
        "details": "Returns the admin role that controls `role`. See {grantRole} and {revokeRole}. To change a role's admin, use {_setRoleAdmin}."
      },
      "grantRole(bytes32,address)": {
        "details": "Grants `role` to `account`. If `account` had not been already granted `role`, emits a {RoleGranted} event. Requirements: - the caller must have ``role``'s admin role. May emit a {RoleGranted} event."
      },
      "hasRole(bytes32,address)": {
        "details": "Returns `true` if `account` has been granted `role`."
      },
      "owner()": {
        "details": "Returns the address of the current owner."
      },
      "renounceOwnership()": {
        "details": "Leaves the contract without owner. It will not be possible to call `onlyOwner` functions anymore. Can only be called by the current owner. NOTE: Renouncing ownership will leave the contract without an owner, thereby removing any functionality that is only available to the owner."
      },
      "renounceRole(bytes32,address)": {
        "details": "Revokes `role` from the calling account. Roles are often managed via {grantRole} and {revokeRole}: this function's purpose is to provide a mechanism for accounts to lose their privileges if they are compromised (such as when a trusted device is misplaced). If the calling account had been revoked `role`, emits a {RoleRevoked} event. Requirements: - the caller must be `account`. May emit a {RoleRevoked} event."
      },
      "revokeRole(bytes32,address)": {
        "details": "Revokes `role` from `account`. If `account` had been granted `role`, emits a {RoleRevoked} event. Requirements: - the caller must have ``role``'s admin role. May emit a {RoleRevoked} event."
      },
      "supportsInterface(bytes4)": {
        "details": "See {IERC165-supportsInterface}."
      },
      "transferOwnership(address)": {
        "details": "Transfers ownership of the contract to a new account (`newOwner`). Can only be called by the current owner."
      }
    },
    "version": 1
  },
  "userdoc": {
    "kind": "user",
    "methods": {},
    "version": 1
  },
  "storageLayout": {
    "storage": [
      {
        "astId": 24,
        "contract": "contracts/WinnerTakeAll.sol:WinnerTakeAll",
        "label": "_roles",
        "offset": 0,
        "slot": "0",
        "type": "t_mapping(t_bytes32,t_struct(RoleData)19_storage)"
      },
      {
        "astId": 396,
        "contract": "contracts/WinnerTakeAll.sol:WinnerTakeAll",
        "label": "_owner",
        "offset": 0,
        "slot": "1",
        "type": "t_address"
      },
      {
        "astId": 2374,
        "contract": "contracts/WinnerTakeAll.sol:WinnerTakeAll",
        "label": "token",
        "offset": 0,
        "slot": "2",
        "type": "t_contract(IERC20)579"
      },
      {
        "astId": 2379,
        "contract": "contracts/WinnerTakeAll.sol:WinnerTakeAll",
        "label": "currentGameId",
        "offset": 0,
        "slot": "3",
        "type": "t_uint256"
      },
      {
        "astId": 2381,
        "contract": "contracts/WinnerTakeAll.sol:WinnerTakeAll",
        "label": "accumulateRemainingReward",
        "offset": 0,
        "slot": "4",
        "type": "t_uint256"
      },
      {
        "astId": 2386,
        "contract": "contracts/WinnerTakeAll.sol:WinnerTakeAll",
        "label": "predictions",
        "offset": 0,
        "slot": "5",
        "type": "t_mapping(t_uint256,t_struct(Prediction)2366_storage)"
      },
      {
        "astId": 2392,
        "contract": "contracts/WinnerTakeAll.sol:WinnerTakeAll",
        "label": "predictionCount",
        "offset": 0,
        "slot": "6",
        "type": "t_mapping(t_address,t_mapping(t_uint256,t_uint16))"
      }
    ],
    "types": {
      "t_address": {
        "encoding": "inplace",
        "label": "address",
        "numberOfBytes": "20"
      },
      "t_bool": {
        "encoding": "inplace",
        "label": "bool",
        "numberOfBytes": "1"
      },
      "t_bytes32": {
        "encoding": "inplace",
        "label": "bytes32",
        "numberOfBytes": "32"
      },
      "t_contract(IERC20)579": {
        "encoding": "inplace",
        "label": "contract IERC20",
        "numberOfBytes": "20"
      },
      "t_mapping(t_address,t_bool)": {
        "encoding": "mapping",
        "key": "t_address",
        "label": "mapping(address => bool)",
        "numberOfBytes": "32",
        "value": "t_bool"
      },
      "t_mapping(t_address,t_mapping(t_uint16,t_struct(PredictionInfo)2371_storage))": {
        "encoding": "mapping",
        "key": "t_address",
        "label": "mapping(address => mapping(uint16 => struct WinnerTakeAll.PredictionInfo))",
        "numberOfBytes": "32",
        "value": "t_mapping(t_uint16,t_struct(PredictionInfo)2371_storage)"
      },
      "t_mapping(t_address,t_mapping(t_uint256,t_uint16))": {
        "encoding": "mapping",
        "key": "t_address",
        "label": "mapping(address => mapping(uint256 => uint16))",
        "numberOfBytes": "32",
        "value": "t_mapping(t_uint256,t_uint16)"
      },
      "t_mapping(t_bytes32,t_struct(RoleData)19_storage)": {
        "encoding": "mapping",
        "key": "t_bytes32",
        "label": "mapping(bytes32 => struct AccessControl.RoleData)",
        "numberOfBytes": "32",
        "value": "t_struct(RoleData)19_storage"
      },
      "t_mapping(t_uint16,t_struct(PredictionInfo)2371_storage)": {
        "encoding": "mapping",
        "key": "t_uint16",
        "label": "mapping(uint16 => struct WinnerTakeAll.PredictionInfo)",
        "numberOfBytes": "32",
        "value": "t_struct(PredictionInfo)2371_storage"
      },
      "t_mapping(t_uint16,t_uint256)": {
        "encoding": "mapping",
        "key": "t_uint16",
        "label": "mapping(uint16 => uint256)",
        "numberOfBytes": "32",
        "value": "t_uint256"
      },
      "t_mapping(t_uint256,t_struct(Prediction)2366_storage)": {
        "encoding": "mapping",
        "key": "t_uint256",
        "label": "mapping(uint256 => struct WinnerTakeAll.Prediction)",
        "numberOfBytes": "32",
        "value": "t_struct(Prediction)2366_storage"
      },
      "t_mapping(t_uint256,t_uint16)": {
        "encoding": "mapping",
        "key": "t_uint256",
        "label": "mapping(uint256 => uint16)",
        "numberOfBytes": "32",
        "value": "t_uint16"
      },
      "t_struct(Prediction)2366_storage": {
        "encoding": "inplace",
        "label": "struct WinnerTakeAll.Prediction",
        "members": [
          {
            "astId": 2345,
            "contract": "contracts/WinnerTakeAll.sol:WinnerTakeAll",
            "label": "userPrediction",
            "offset": 0,
            "slot": "0",
            "type": "t_mapping(t_address,t_mapping(t_uint16,t_struct(PredictionInfo)2371_storage))"
          },
          {
            "astId": 2349,
            "contract": "contracts/WinnerTakeAll.sol:WinnerTakeAll",
            "label": "choicePools",
            "offset": 0,
            "slot": "1",
            "type": "t_mapping(t_uint16,t_uint256)"
          },
          {
            "astId": 2351,
            "contract": "contracts/WinnerTakeAll.sol:WinnerTakeAll",
            "label": "minPredictAmount",
            "offset": 0,
            "slot": "2",
            "type": "t_uint256"
          },
          {
            "astId": 2353,
            "contract": "contracts/WinnerTakeAll.sol:WinnerTakeAll",
            "label": "totalPoolPrize",
            "offset": 0,
            "slot": "3",
            "type": "t_uint256"
          },
          {
            "astId": 2355,
            "contract": "contracts/WinnerTakeAll.sol:WinnerTakeAll",
            "label": "startAt",
            "offset": 0,
            "slot": "4",
            "type": "t_uint256"
          },
          {
            "astId": 2357,
            "contract": "contracts/WinnerTakeAll.sol:WinnerTakeAll",
            "label": "endAt",
            "offset": 0,
            "slot": "5",
            "type": "t_uint256"
          },
          {
            "astId": 2359,
            "contract": "contracts/WinnerTakeAll.sol:WinnerTakeAll",
            "label": "maxPredictCount",
            "offset": 0,
            "slot": "6",
            "type": "t_uint16"
          },
          {
            "astId": 2361,
            "contract": "contracts/WinnerTakeAll.sol:WinnerTakeAll",
            "label": "maxChoiceId",
            "offset": 2,
            "slot": "6",
            "type": "t_uint16"
          },
          {
            "astId": 2363,
            "contract": "contracts/WinnerTakeAll.sol:WinnerTakeAll",
            "label": "winnerId",
            "offset": 4,
            "slot": "6",
            "type": "t_uint16"
          },
          {
            "astId": 2365,
            "contract": "contracts/WinnerTakeAll.sol:WinnerTakeAll",
            "label": "isClaimable",
            "offset": 6,
            "slot": "6",
            "type": "t_bool"
          }
        ],
        "numberOfBytes": "224"
      },
      "t_struct(PredictionInfo)2371_storage": {
        "encoding": "inplace",
        "label": "struct WinnerTakeAll.PredictionInfo",
        "members": [
          {
            "astId": 2368,
            "contract": "contracts/WinnerTakeAll.sol:WinnerTakeAll",
            "label": "amount",
            "offset": 0,
            "slot": "0",
            "type": "t_uint256"
          },
          {
            "astId": 2370,
            "contract": "contracts/WinnerTakeAll.sol:WinnerTakeAll",
            "label": "isClaim",
            "offset": 0,
            "slot": "1",
            "type": "t_bool"
          }
        ],
        "numberOfBytes": "64"
      },
      "t_struct(RoleData)19_storage": {
        "encoding": "inplace",
        "label": "struct AccessControl.RoleData",
        "members": [
          {
            "astId": 16,
            "contract": "contracts/WinnerTakeAll.sol:WinnerTakeAll",
            "label": "members",
            "offset": 0,
            "slot": "0",
            "type": "t_mapping(t_address,t_bool)"
          },
          {
            "astId": 18,
            "contract": "contracts/WinnerTakeAll.sol:WinnerTakeAll",
            "label": "adminRole",
            "offset": 0,
            "slot": "1",
            "type": "t_bytes32"
          }
        ],
        "numberOfBytes": "64"
      },
      "t_uint16": {
        "encoding": "inplace",
        "label": "uint16",
        "numberOfBytes": "2"
      },
      "t_uint256": {
        "encoding": "inplace",
        "label": "uint256",
        "numberOfBytes": "32"
      }
    }
  }
}